:020000040008F2
:2000000020554E4C4142454C45442020010000000000000000000000E5E5E5E5E5E5E5E5CB
:200020000041534D2020202020434F4D000000400400050000000000000000000000000017
:200040000042494F532020202041534D00000060060007000800000000000000000000009D
:20006000004342494F5320202041534D0000004509000A000B00000000000000000000006C
:20008000004444542020202020434F4D000000260C000D00000000000000000000000000C6
:2000A000004445424C4F434B2041534D000000500E000F00100000000000000000000000CE
:2000C000004449534B444546204C49420000003111001200000000000000000000000000DB
:2000E0000044554D5020202020434F4D000000041300000000000000000000000000000054
:200100000044554D502020202041534D0000002114001500000000000000000000000000FE
:20012000004544202020202020434F4D000000341600170000000000000000000000000036
:20014000004C4F414420202020434F4D0000000E18000000000000000000000000000000FA
:20016000004D4F5643504D2020434F4D0000004C19001A001B0000000000000000000000F4
:20018000005049502020202020434F4D0000003A1C001D0000000000000000000000000084
:2001A000005354415420202020434F4D000000291E001F000000000000000000000000003E
:2001C000005355424D49542020434F4D0000000A2000000000000000000000000000000002
:2001E0000053595347454E2020434F4D0000000821000000000000000000000000000000DE
:20020000005853554220202020434F4D000000062200000000000000000000000000000015
:20022000E5E5E5E5E5E5E5E5E5E5E5E5E5E5E5E5E5E5E5E5E5E5E5E5E5E5E5E5E5E5E5E51E
:20024000E5E5E5E5E5E5E5E5E5E5E5E5E5E5E5E5E5E5E5E5E5E5E5E5E5E5E5E5E5E5E5E5FE
:20026000E5E5E5E5E5E5E5E5E5E5E5E5E5E5E5E5E5E5E5E5E5E5E5E5E5E5E5E5E5E5E5E5DE
:20028000E5E5E5E5E5E5E5E5E5E5E5E5E5E5E5E5E5E5E5E5E5E5E5E5E5E5E5E5E5E5E5E5BE
:204000003100022A060022CD01C3000220434F5059524947485428432920313937382C20D6
:204020004449474954414C20524553454152434820000000000000000000000000000000F5
:20404000000000000000000000000000000000000000000000000000000000000000000060
:20406000000000000000000000000000000000000000000000000000000000000000000040
:20408000000000000000000000000000000000000000000000000000000000000000000020
:2040A000000000000000000000000000000000000000000000000000000000000000000000
:2040C0000000000000000000000000F02000000000000000F02000000000000000000000C0
:2040E0000000000000000000000000000000000000000000000000000000000000000000C0
:20410000C3E00CC3A10DC3CA0DC3340EC3AA0EC3DE0EC3BC0CC3000FC32F0FC34C10C3393D
:204120000F0000000000000000000000000000000000000000000000000000000000000070
:204140000041534D000000000000000000000000000000000000000000000000000000007E
:20416000000050524E0000000000000000000000000000000000000000000000000000004F
:20418000000000484558000000000000000000000000000000000000000000000400000036
:2041A0000000000000000000000000000000000000000000000000000000000000000000FF
:2041C0000000000000000000000000000000000000000000000000000000000000000000DF
:2041E0000000000000000000000000000000000000000000000000000000000000000000BF
:2042000000000000000000000000000000000000000000000000000000000000000000009E
:204BA00000213402BEC8775F0E0ECD0500C9237EFE20CAB80CDE41C93A3402C97ECDDE0EE6
:204BC0007E23FE0DC2BC0C3E0ACDDE0EC9115C0006091AFE3FCABB0D77231305C2D20CC955
:204BE00021A00FCDBC0CC33F0D0E0FCD0500FEFFC021B90FCDBC0CC300000E10CD0500FE66
:204C0000FFC0212910CDBC0CC300000E13C305000E16CD0500FEFFC021D00FCDBC0CC3002F
:204C2000003A3502CDA10CC93A3602FE19C8FE17C93A3602CDA10CC93A3702CDA10CC93AEC
:204C40005C00FE20CABB0D0E19CD0500323402216400CDAE0C323502CDAE0C323702CDAE05
:204C60000C323602213802CDCD0CCD280DCA830D215902E5E5CDCD0CCD310DD1CD0B0DD1E3
:204C8000CD100D3A3702FE19CA9E0D217A02E5E5CDCD0CCD380DD1CD0B0DD1CD100DC300D8
:204CA00011210004229B02AF324402325802322302CD210D113802CDE90CC921E30FCDBC88
:204CC0000CC300007ABCC07BBDC9C5D5E52A9B02110004CDC40DC2190ECD210D21000022EE
:204CE0009B020608219D02C5E50E14113802CD0500E1C1B70E80C20D0E1180000E801A77EC
:204D000013230DC2FE0D05C2E70DC3190EFE03D22B0E361A230DC2120E119D022A9B02E514
:204D200023229B02E1197EE1D1C1C921FA0FCDBC0CC30000C5473A3602FE19CA510EFE1788
:204D400078C24A0ECDDE0EC3510ED5E5CD530EE1D1C1C92A9D06EB219F061977EB23229DE7
:204D600006EB210003CDC40DC0CD310D210000229D06219F0611590206067EFE1AC8C5D599
:204D80000E801180007E1223130DC2850ED1D5E50E15CD0500E1D1C1B7C2A10E05C8C37AA7
:204DA0000E211110CDBC0CC3770FC5D5E5CDB40EE1D1C1C92A9F09EB21A1091977EB232233
:204DC0009F09EB210003CDC40DC0CD380D210000229F0921A109117A020606C37A0EC5D578
:204DE000E50E025FCD0500E1D1C1C94FCD340E3A0C01FE20C83A3602FE17C879CDDE0EC97C
:204E00003A8401210C01B7CA150F477ECDEB0E23783DC3060F3284013E0DCDEB0E3E0ACDE8
:204E2000EB0E210C013E783620233DC2270FC947210C017EFE20C070C9CD280DCA4F0F2AC0
:204E40009D067DB4CA4F0F3E1ACD340EC33F0F3A3702FE19CA770F3A2302B7C4B8102AD068
:204E600001222102CDB8102A9F097DB4CA770F3E1ACDAA0EC3670FCD280DCA860FCD310D82
:204E8000115902CDFA0C3A3702FE19CA970FCD380D117A02CDFA0C213C10CDBC0CC30000A2
:204EA00043502F4D20415353454D424C4552202D2056455220322E300D4E4F20534F555208
:204EC00043452046494C452050524553454E540D4E4F204449524543544F52592053504146
:204EE00043450D534F555243452046494C45204E414D45204552524F520D534F5552434543
:204F00002046494C452052454144204552524F520D4F55545055542046494C45205752491B
:204F20005445204552524F520D43414E4E4F5420434C4F53452046494C45530D454E442031
:204F40004F4620415353454D424C590DC5473A3702FE1978CA9810D5F52123027EB7CA841C
:204F600010FE10DA6C10CDB810C384102AD001EB2A21024F0600097BBDC281107ABCCA8A2B
:204F800010CDB8102AD0012221022123025E34160021240219F177D1C1C9F50F0F0F0FE604
:204FA0000FCDAF10F1F5E60FCDAF10F18257C9C69027CE4027C3AA0E3E3ACDAA0E212302EC
:204FC0005EAF57772A21027BCD9A107CCD9A107DCD9A10AFCD9A107BB7CAE8102124027EF1
:204FE00023CD9A101DC2DF10AF92CD9A103E0DCDAA0E3E0ACDAA0EC900000000000000002B
:20500000C34013C33211C3C011000000CD0602F5FE0DCA3011FE0ACA30113A8401FE78D2E6
:2050200030115F16003C328401210C0119F177C9F1C9CD4911320A113284013E0A320911D6
:20504000CD15023E10328401C9AF328801320B11C92188017EFE40DA5F113600CD1E135EDB
:2050600016003423193A0A1177C97EFE24C0AF77C93A0A11D630FE0A17E601C9CD7111C08D
:205080003A0A11D641FE0617E601C93A0A11D641FE1A17E601C9CD8B11C0CD7111C93A0A09
:2050A00011FE61D8FE7BD0E65F320A11C9CD0C11320A11C32D13C9FE0DC8FE1AC8FE21C966
:2050C000AF328501CD49113A0A11FE09CAF411FE3BCAE111FE2AC2ED113A0911FE0AC2ED2F
:2050E00011CDAD11CDB711CAFA11C3E111F620FE20C2FA11CDAD11C3C711CD8B11CA051284
:205100003E01C33912CD7111CA10123E02C339123A0A11FE27C22112AF320A113E03C33911
:2051200012FE0AC237123ACF01B7C41502210C0136203E103284013E043285013A0A1132A4
:205140000911B7C45111CDAD113A8501FE04C8FE03C49E11210A113A8501FE01C26C12CDC7
:205160006A11CA3C12CD9611C8C33C12FE02C20213CD6A11CA3C12CD7C11C23C123A0A1159
:20518000FE4FCA8A12FE51C28F123E08C39612FE48C2A0123E10320B11AF320A11C3BB1217
:2051A0003A0911FE42C2AD123E02C3B412FE443E0AC2B81221880135320B11210000228605
:2051C000012188014E237E23FE41D2D212D630C3D412D637E5C54F210B11BED41813060068
:2051E0007E2A8601EB210000B7CAF7121FD2F11219EB29EBC3E81209228601C1E10DC2C638
:2052000012C93A0A11FE0DCA1E13FE27C23C12CDAD11FE27C0C33C12F53E56C32413F53EEC
:205220004FC32413C5E5CD1802E1C1F1C9F53A8501FE03C49E11F1C9000000000000000055
:20524000C3A015C35C14C39E14C39814C3EB14C36015C37215C38D15C396150000000000A8
:2052600000000000000000000000000000000000000000000000000000000000000000002E
:2052800000000000000000000000000000000000000000000000000000000000000000000E
:2052A0000000000000000000000000000000000000000000000000000000000000000000EE
:2052C0000000000000000000000000000000000000000000000000000000000000000000CE
:2052E0000000000000000000000000000000000000000000000000000000000000000000AE
:2053000000000000000000000000000000000000000000000000000000000000000000008D
:2053200000000000000000000000000000000000000000000000000000000000000000006D
:2053400000000000000000000000000000000000000000000000000000000000215B1306B8
:2053600080AF7723772305C2621421000022D601C921880146AF238605C27614E67F325B1F
:2053800014C9472AD60123237EE6F0B077C92AD60123237EE60F3CC92AD6017DB4C9CD7166
:2053A000142188017EFE11DAAC143610215B145E1600215B1319195E23666B22D601CD984D
:2053C00014C8CD8E14218801BEC2E1144723EB2AD6012323231ABEC2E114132305C2D5142F
:2053E000C92AD6015E2356EBC3BB142188015E16002ACB0122D6011911050019EB2ACD0157
:205400007B957A9CEBD2411522CB012AD601EB215B144E0600215B1309094E2346722B732D
:20542000EB7123701188011AFE11DA2F153E10473D237723131A7705C23315AF2377237777
:20544000C9214A15CD1202C31E0253594D424F4C205441424C45204F564552464C4F570D40
:2054600017171717E6F0472AD60123237EE60FB077C92AD60123237E1F1F1F1FE60FC9CD3D
:205480008E142AD6015F160019232323C9E5CD7F15D1732372C9CD7F155E2356EBC90000D5
:2054A000C36018C38317C31018C415D415E6158216AE16BD161009340B03BD16DD16EF1657
:2054C00057176D170D28292A2B2C2D2F4142434445484C4D4442444944534457454949460D
:2054E000494E4F525350414349414443414444414449414E41414E44414E49434D41434DC9
:2055000043434D50435049444141444144444352444358454E44455155484C54494E524969
:205520004E584A4D504C44414C58494D4F444D4F564D56494E4F504E4F544F52414F5247BA
:205540004F52494F5554504F5050535752414C524152524554524C4352524352535453427B
:205560004253424953455453484C534852535441535443535542535549584F525852415862
:20558000524943414C4C454E444D4C4441584C484C445043484C5055534853484C445350AE
:2055A000484C53544158584348475854484C454E4449464D4143524F5449544C450F0A0C2E
:2055C000140D1E005005460E0A06460150100710001001100210031004100510061101137B
:2055E000F31102110313FB110821DB0A2810061ACE1D881D801AC61DA009321AE6132F13CF
:205600003F1DB81AFE132715091E051F0B1104110713761E041F0317C31C3A140102501810
:205620004019061300083C1DB0110A1AF621D316C110061317131F13C91307130F20C71D63
:20564000981ADE110B035004501C3213371D901AD60B281DA81AEE17CD11061B0A1C2A1349
:20566000E916C51C2213F91B0213EB13E311051109110C4E5A5A204E434320504F50455024
:20568000204D201EFF040E00AF78811FBBCAC4175FE5D5C5E5424816002100001905C29C27
:2056A00017D1191189011ABE1323C2B6170DC2A617C1D1E17BC9C1D1E1DAC0174BC388179D
:2056C00043C38817AF3CC93A89010117C2FE4AC806C4FE43C80113C0FE52C93A8801FE043E
:2056E000D20D18FE03CAF217FE02C20D18218B013620010800117317218A011ABE13C205F3
:20570000181A23BEC813040DC2F8170CC9AF3CC93A88014F3D5F1600D5FE05D25A1821B57A
:2057200015194621A91519195623666A51CD8317C24518D121BA1519195E23566F2600293C
:20574000197E2346C9D1CDC717C0C5CDDB1778C1C0B7171717B04779BFC9D1AF3CC900004E
:20576000C3A01BC3191AC36E19C33819000000000000000000000000000000000000000057
:2057800000000000000000000000000000000000000000EB2192187EFE10DAA218CD851BC6
:2057A00036007E34344F060021811809732372C9F52191187EFE0ADABF183600CD851B5EED
:2057C000160034F1216D1819772177181970C92192187EB7C2DE18CD851B210000C93535DD
:2057E0004E0600218118094E236669C9CDCF18EBCDCF18C96F260029110119195E23666B19
:20580000E98919921999199F19AB19BF19C619D019D919E019EC19F819851BCDEC187AB7E1
:20582000C227197BFE11D8CD851B3E10C9AF956F3E009C67C9CDEC18EB226B19216D193684
:2058400011010000C5AF7B175F7A175735E1C83E00CE002944852A6B19954F789C47C5D289
:20586000641909E3216D193FC34619000000444D210000AF781F47791F4FDA8219B0C8C3E1
:20588000831919EB29EBC37319CDEC18CD6E19C3011ACD3519EBC3011ACD3519C3011ACD58
:2058A0001B19B7CA011A293DC3A219CD1B19B7CA011AF5AF7C1F677D1F6FF13DC3AE19CD61
:2058C000EC1819C3011ACDEC18EBCD2D19C3C219CDCF18CD2D19C3011ACDCF1823C3D31935
:2058E000CDEC187AA4677BA56FC3011ACDEC187AB4677BB56FC3011ACDEC187AAC677BAD7C
:205900006FC393183A8501FE04C03A8901FE0DC8FE3BC8FE2CC8FE21C9AF32911832921850
:205920003D326C1821000022C901CD041AC25D1A2191187EB7CA481A355F1D1600216D18AB
:20594000197ECDF418C3301A3A9218FE02C4851B3A0C01FE20C02A811822C901C93A0C019E
:20596000FE20C27F1B3A8501FE03C2891A3A8801B7CC851BFE03D4851B16002189015E23EA
:205980003DCA851A56EBC3711BFE02C2941A2A8601C3711BCDA615C2311BFE10D2261BFEAC
:2059A0000C4F3A6C18C2B51AB7CC851B3EFF326C1879C3031BB7C20E1BC53A9118B7CADE24
:2059C0001A5F1D1600217718197EB8DADE1A21911873216D18197ECDF418C1C3B91AC17966
:2059E000FE0DC2031B2191187EB7CAFC1A3D775F1600216D18197EFE0CCAFF1ACD851BAF6E
:205A0000C3081BCDB0183EFF326C18C37F1B79FE05CA7F1BFE06C21E1B3C4FC3B91AFE08B5
:205A2000C4851BC3B91AFE11CC851B682600C3711B3A8501FE04C2501B3A8901FE24CA4A2B
:205A40001BCD851B210000C3711B2AD201C3711BCD4613CD4913C2641B3E50CD1802CD4CE4
:205A600013C36E1BCD5213E6073E55CC1802CD58133A6C18B7CC851BAF326C18CD9318CD6C
:205A80000611C32A1AE53E45CD1802E1C900000000000000000000000000000000000000EF
:205AA000AF32CF01CD4313CD0311CD030221000022EB2022D00122D20122ED20CD06113ADC
:205AC0008501FE02CABC1BFE04C2DD1B3A8901FE2AC2311FCD0020C27C1FC3521FFE01C2A6
:205AE0007C1FCDA615CA301CCD4613CD4913C2FE1BCD4C133ACF01B7C4D720C30C1CCD5291
:205B000013FE06C20C1CCDE320C3521F2AEB207DB4C4DD202AD60122EB20CD06113A850187
:205B2000FE04C2BF1B3A8901FE3AC2BF1BC3BC1BFE11C2D71D5816001B21431C19195E2314
:205B4000666BE95B1CA91CC01CDE1C151D181D1E1D401D871D8D1DA71DCE1DCD0A20CD06B3
:205B6000113A8501FE03C28C1C3A88013DCA8C1C47040421890105CA861CC54623E5CD48E4
:205B800020E1C1C3761CCD0611C39B1CCD63182AC9017CB7C4D12045CD4820CDF91FCDBA86
:205BA0001EFE2CCA5E1CC3311FCD0A20CDA620CDD11EEB2AD2011922D20122D001C3311F04
:205BC000CD0A20CDD11EE545CD4820E144CD4820CDF91FCDBA1EFE2CCAC31CC3311FCD0A12
:205BE00020CDA6203A0C01FE20C2311FCDD11E3A0C01FE20C2FA1C22ED203E20320C01CDE9
:205C000006113A8501FE04C27C1F3A8901FE0AC27C1FC38B1FC3D11DCDE320C3D11DCD00B9
:205C200020CA7C1F2AD201E5CDD11E22D201CD0A20CDA920211201363DE122D201C3311F2F
:205C4000CD0A20CDD11E3A0C01FE20C2311F7D1FDA311FCD06113A8501FE04C26E1D3A899E
:205C600001FE1A3E42CC1802CA8B1FC3531DFE01C2531DCDA615C2531DFE11C2531D78FE5C
:205C800005C2531DC3D11DCDE320C3311FCDD11E3A0C01FE20C2311F22D20122D001CD0A47
:205CA00020CDA620C3311FCD0020CA7C1FCD5213FE05C4DD203E05CD4F13CDD11EE5CD00F6
:205CC00020E1CD551321000022EB20C3311FCDE320CD0611C3311FD613FE21D27C1F5F167C
:205CE0000021EB1D19195E23666BE9091E121E1E1E241E381E411E501E601E691E781E81FA
:205D00001E881E8F1E9E1EA51ECD4820CD0611C3B11ECDFC1ECD171FCD111FC3B11ECDFCA6
:205D20001EC3B11ECDF21EFE38CA311EE608C4BD2079E630B0C3AE1ECD4820CD111FC3B184
:205D40001ECDF21EB047CD171FCDE71EB0C3AE1ECDF21EB0CD4720CD171FCD0B1FC3B11EF0
:205D6000CD4820CD0B1FC3B11ECDF21EE628C4BD2079E610B0C3AE1ECD4820CD111FC3B185
:205D80001ECDE71EB0C3AE1ECDF21EB0C3AE1ECDF21EE608C4BD2079E630B0C3AE1ECDF2BF
:205DA0001EB0C3AE1ECD4820CD0B1FC3B11ECD4720CD0A20CDF91FC3311F3A8501FE04C41F
:205DC000D1203A8901FE2CC8FE3BC8FE0DC4D120C9C5CD0611CD63182AC901C1C9CDD11E67
:205DE0007CB7C4C7207DC9CDDD1EFE08D4C720E607C9CDE71E171717E6384FC9CDF21EE630
:205E000008C4BD2079E630B0C34720CDDD1EC34720CDD11EC37420F5C53A8501FE04C22904
:205E20001F3A8901FE2CCA2E1F3E43CD1802C1F1C9CD0A203A8501FE04C27C1F3A8901FE83
:205E40000DC24A1FCD0611C3BC1BFE3BC2721FCD0A20CD06113A8501FE04C2521F3A89016C
:205E6000FE0ACABC1BFE1ACA8B1FFE21CABC1BC3521FFE21CABC1BFE1ACA8B1F3E53CD1837
:205E800002C3521F7B956F7A9C67C921CF017E34B7CAA71BCD0611CDA620211101360D2113
:205EA0000D01CD12022ACB01EB2AD401CD841FE52ACD01EB2AD401CD841F5C1600E1CD69E3
:205EC00018EBCDA92021110111D61F1AB7CAE41F772313C3CB1F4820555345204641435465
:205EE0004F520D00210E01CD12022AED2022D001C31E027ABCC07BBDC92AD00122D201C926
:205F00002AEB2022D601CD4913C9CD0020C821000022EB203ACF01B7C23120CD5213F5E67D
:205F200007C4DD20F1F601CD4F132AD201CD5513C9CD5213E607CCD720CD5813EB2AD20185
:205F4000CDF31FC4D720C9473ACF01B778CA6C20C5CD1B023A0D01FE202AD201CCA9203A27
:205F6000EF20FE10C1D26C2078CD96202AD0012322D001C9E545CD4820E144C34820C6306B
:205F8000FE3AD8C607C9CD7E2021EF205E160034210C011977C9F51F1F1F1FE60FCD8620B8
:205FA000F1E60FC386202AD201EB21EF20E536017AD5CD9620D17BCD9620E134C9F5C53EE7
:205FC00052CD1802C1F1C9F5E53E56CD1802E1F1C9F53E44C3E620F53E50C3E620F53E4C12
:205FE000C3E620F53E4ECD1802F1C9000000000000000000000000000000000000000000B6
:206000003B094D44532D38303020492F4F204472697665727320666F722043502F4D2032C5
:206020002E320D0A3B0928666F75722064726976652073696E676C652064656E73697479C5
:206040002076657273696F6E290D0A3B0D0A3B0956657273696F6E20322E3220466562720D
:20606000756172792C20313938300D0A3B0D0A7665727309657175093232093B7665727353
:20608000696F6E20322E320D0A3B0D0A3B09436F70797269676874202863292031393830DC
:2060A0000D0A3B094469676974616C2052657365617263680D0A3B09426F78203537392C05
:2060C00020506163696669632047726F76650D0A3B0943616C69666F726E69612C203933C3
:2060E0003935300D0A3B0D0A3B0D0A747275650965717509306666666668093B76616C75FE
:2061000065206F66202274727565220D0A66616C736509657175096E6F7420747275650948
:206120003B2266616C7365220D0A74657374096571750966616C7365093B74727565206909
:206140006620746573742062696F730D0A3B0D0A09696609746573740D0A626961730965FE
:20616000717509303334303068093B62617365206F662043435020696E207465737420739D
:20618000797374656D0D0A09656E6469660D0A096966096E6F7420746573740D0A6269613B
:2061A0007309657175093030303068093B67656E65726174652072656C6F63617461626C1F
:2061C000652063702F6D2073797374656D0D0A09656E6469660D0A3B0D0A7061746368095E
:2061E0006571750931363030680D0A3B0D0A096F72670970617463680D0A63706D62096522
:20620000717509242D7061746368093B62617365206F662063706D20636F6E736F6C6520C7
:2062200070726F636573736F720D0A62646F730965717509383036682B63706D62093B62E9
:206240006173696320646F7320287265736964656E7420706F7274696F6E290D0A63706DE7
:206260006C0965717509242D63706D62093B6C656E6774682028696E2062797465732920ED
:206280006F662063706D2073797374656D0D0A6E7365637473096571750963706D6C2F31F4
:2062A0003238093B6E756D626572206F6620736563746F727320746F206C6F61640D0A6F46
:2062C0006666736574096571750932093B6E756D626572206F66206469736B2074726163C0
:2062E0006B7320757365642062792063702F6D0D0A636469736B09657175093030303468B7
:20630000093B61646472657373206F66206C617374206C6F67676564206469736B206F6E30
:20632000207761726D2073746172740D0A6275666609657175093030383068093B6465667E
:2063400061756C742062756666657220616464726573730D0A72657472790965717509310C
:2063600030093B6D61782072657472696573206F6E206469736B20692F6F206265666F7228
:2063800065206572726F720D0A3B0D0A3B09706572666F726D20666F6C6C6F77696E672095
:2063A00066756E6374696F6E730D0A3B09626F6F7409636F6C642073746172740D0A3B09A1
:2063C00077626F6F74097761726D20737461727420287361766520692F6F20627974652969
:2063E0000D0A3B0928626F6F7420616E642077626F6F7420617265207468652073616D6549
:2064000020666F72206D6473290D0A3B09636F6E737409636F6E736F6C65207374617475B9
:20642000730D0A3B09097265672D61203D203030206966206E6F2063686172616374657223
:206440002072656164790D0A3B09097265672D61203D2066662069662063686172616374A9
:2064600065722072656164790D0A3B09636F6E696E09636F6E736F6C652063686172616320
:2064800074657220696E2028726573756C7420696E207265672D61290D0A3B09636F6E6FBD
:2064A000757409636F6E736F6C6520636861726163746572206F7574202863686172206943
:2064C0006E207265672D63290D0A3B096C697374096C697374206F757420286368617220DD
:2064E000696E207265672D63290D0A3B0970756E63680970756E6368206F75742028636883
:20650000617220696E207265672D63290D0A3B097265616465720970617065722074617046
:20652000652072656164657220696E2028726573756C7420746F207265672D61290D0A3B1B
:2065400009686F6D65096D6F766520746F20747261636B2030300D0A3B0D0A3B0928746860
:206560006520666F6C6C6F77696E672063616C6C73207365742D75702074686520696F209F
:20658000706172616D6574657220626C6F636B20666F72207468650D0A3B096D64732C205C
:2065A0007768696368206973207573656420746F20706572666F726D2073756273657175B5
:2065C000656E7420726561647320616E6420777269746573290D0A3B0973656C64736B0921
:2065E00073656C656374206469736B20676976656E206279207265672D632028302C312C2D
:20660000322E2E2E290D0A3B0973657474726B0973657420747261636B2061646472657380
:20662000732028302C2E2E2E37362920666F722073756273657175656E7420726561642F62
:2066400077726974650D0A3B097365747365630973657420736563746F7220616464726508
:2066600073732028312C2E2E2E2C32362920666F722073756273657175656E74207265611A
:20668000642F77726974650D0A3B09736574646D61097365742073756273657175656E749F
:2066A00020646D6120616464726573732028696E697469616C6C7920383068290D0A3B0DF3
:2066C0000A3B09287265616420616E6420777269746520617373756D652070726576696FA7
:2066E00075732063616C6C7320746F207365742075702074686520696F20706172616D6520
:2067000074657273290D0A3B0972656164097265616420747261636B2F736563746F7220E2
:20672000746F2070726573657420646D6120616464726573730D0A3B097772697465097765
:206740007269746520747261636B2F736563746F722066726F6D2070726573657420646D19
:206760006120616464726573730D0A3B0D0A3B096A756D7020766563746F7220666F72200F
:20678000696E6469766975616C20726F7574696E65730D0A096A6D7009626F6F740D0A77E9
:2067A000626F6F74653A096A6D700977626F6F740D0A096A6D7009636F6E73740D0A096AE1
:2067C0006D7009636F6E696E0D0A096A6D7009636F6E6F75740D0A096A6D70096C69737488
:2067E0000D0A096A6D700970756E63680D0A096A6D70097265616465720D0A096A6D7009B8
:20680000686F6D650D0A096A6D700973656C64736B0D0A096A6D700973657474726B0D0AB5
:20682000096A6D70097365747365630D0A096A6D7009736574646D610D0A096A6D700972A8
:206840006561640D0A096A6D700977726974650D0A096A6D70096C6973747374093B6C6947
:206860007374207374617475730D0A096A6D70097365637472616E0D0A3B0D0A096D61636A
:206880006C6962096469736B646566093B6C6F616420746865206469736B20646566696EA8
:2068A0006974696F6E206C6962726172790D0A096469736B730934093B666F757220646938
:2068C000736B730D0A096469736B64656609302C312C32362C362C313032342C3234332CFD
:2068E00036342C36342C6F66667365740D0A096469736B64656609312C300D0A09646973F5
:206900006B64656609322C300D0A096469736B64656609332C300D0A3B09656E6465662037
:206920006F636375727320617420656E64206F6620617373656D626C790D0A3B0D0A3B095A
:20694000656E64206F6620636F6E74726F6C6C6572202D20696E646570656E64656E74208C
:20696000636F64652C207468652072656D61696E696E6720737562726F7574696E65730D25
:206980000A3B09617265207461696C6F72656420746F2074686520706172746963756C61B4
:2069A00072206F7065726174696E6720656E7669726F6E6D656E742C20616E64206D7573B3
:2069C000740D0A3B09626520616C746572656420666F7220616E792073797374656D2077F5
:2069E0006869636820646966666572732066726F6D2074686520696E74656C206D64732EF5
:206A00000D0A3B0D0A3B0974686520666F6C6C6F77696E6720636F646520617373756D652E
:206A20007320746865206D6473206D6F6E69746F7220657869737473206174203066383023
:206A400030680D0A3B09616E6420757365732074686520692F6F20737562726F7574696E9D
:206A600065732077697468696E20746865206D6F6E69746F720D0A3B0D0A3B0977652061F8
:206A80006C736F20617373756D6520746865206D64732073797374656D2068617320666F1F
:206AA0007572206469736B206472697665730D0A7265767274096571750930666468093B2A
:206AC000696E746572727570742072657665727420706F72740D0A696E746309657175090A
:206AE00030666368093B696E74657272757074206D61736B20706F72740D0A69636F6E098A
:206B00006571750930663368093B696E7465727275707420636F6E74726F6C20706F7274B9
:206B20000D0A696E7465096571750930313131243131313062093B656E61626C6520727375
:206B4000742030287761726D20626F6F74292C20727374203720286D6F6E69746F72290D13
:206B60000A3B0D0A3B096D6473206D6F6E69746F7220657175617465730D0A6D6F6E383028
:206B80000965717509306638303068093B6D6473206D6F6E69746F720D0A726D6F6E383017
:206BA0000965717509306666306668093B72657374617274206D6F6E38302028626F6F7467
:206BC000206572726F72290D0A63690965717509306638303368093B636F6E736F6C652012
:206BE00063686172616374657220746F207265672D610D0A72690965717509306638303676
:206C000068093B72656164657220696E20746F207265672D610D0A636F0965717509306693
:206C200038303968093B636F6E736F6C6520636861722066726F6D206320746F20636F6E9C
:206C4000736F6C65206F75740D0A706F0965717509306638306368093B70756E6368206308
:206C60006861722066726F6D206320746F2070756E6368206465766963650D0A6C6F096551
:206C8000717509306638306668093B6C6973742066726F6D206320746F206C69737420647F
:206CA00065766963650D0A637374730965717509306638313268093B636F6E736F6C6520A7
:206CC0007374617475732030302F666620746F20726567697374657220610D0A3B0D0A3BE8
:206CE000096469736B20706F72747320616E6420636F6D6D616E64730D0A626173650965A3
:206D0000717509373868093B62617365206F66206469736B20636F6D6D616E6420696F20F7
:206D2000706F7274730D0A6473746174096571750962617365093B6469736B207374617421
:206D400075732028696E707574290D0A72747970650965717509626173652B31093B7265F0
:206D600073756C7420747970652028696E707574290D0A72627974650965717509626173F8
:206D8000652B33093B726573756C7420627974652028696E707574290D0A3B0D0A696C6F2B
:206DA000770965717509626173652B31093B696F7062206C6F77206164647265737320285A
:206DC0006F7574707574290D0A69686967680965717509626173652B32093B696F70622056
:206DE00068696768206164647265737320286F7574707574290D0A3B0D0A72656164660957
:206E0000657175093468093B726561642066756E6374696F6E0D0A77726974660965717585
:206E2000093668093B77726974652066756E6374696F6E0D0A726563616C09657175093308
:206E400068093B726563616C6962726174652064726976650D0A696F726479096571750933
:206E60003468093B692F6F2066696E6973686564206D61736B0D0A63720965717509306418
:206E800068093B63617272696167652072657475726E0D0A6C660965717509306168093BC5
:206EA0006C696E6520666565640D0A3B0D0A7369676E6F6E3A093B7369676E6F6E206D6581
:206EC00073736167653A2078786B2063702F6D207665727320792E790D0A09646209637277
:206EE0002C6C662C6C660D0A09696609746573740D0A0964620927333227093B33326B2008
:206F00006578616D706C652062696F730D0A09656E6469660D0A096966096E6F7420746550
:206F200073740D0A0964620927303027093B6D656D6F72792073697A652066696C6C656485
:206F40002062792072656C6F6361746F720D0A09656E6469660D0A09646209276B204350F1
:206F60002F4D207665727320270D0A09646209766572732F31302B2730272C272E272C763C
:206F8000657273206D6F642031302B2730270D0A0964620963722C6C662C300D0A3B0D0A96
:206FA000626F6F743A093B7072696E74207369676E6F6E206D65737361676520616E64204C
:206FC000676F20746F206363700D0A3B09286E6F74653A206D647320626F6F7420696E6977
:206FE0007469616C697A656420696F62797465206174203030303368290D0A096C786909B0
:2070000073702C627566662B3830680D0A096C786909682C7369676E6F6E0D0A0963616CDB
:207020006C0970726D7367093B7072696E74206D6573736167650D0A097872610961093B23
:20704000636C65617220616363756D756C61746F720D0A0973746109636469736B093B7333
:20706000657420696E697469616C6C7920746F206469736B20610D0A096A6D7009676F6350
:20708000706D093B676F20746F2063702F6D0D0A3B0D0A3B0D0A77626F6F743A3B096C6F28
:2070A00061646572206F6E20747261636B20302C20736563746F7220312C20776869636826
:2070C0002077696C6C20626520736B697070656420666F72207761726D200D0A3B09726551
:2070E00061642063702F6D2066726F6D206469736B202D20617373756D696E672074686568
:207100007265206973206120313238206279746520636F6C642073746172740D0A3B0973AE
:20712000746172742E0D0A3B0D0A096C78690973702C62756666093B7573696E6720646D91
:2071400061202D2074687573203830207468727520666620617661696C61626C6520666F90
:207160007220737461636B0D0A3B0D0A096D766909632C7265747279093B6D61782072655A
:2071800074726965730D0A097075736809620D0A77626F6F74303A093B656E7465722068E7
:2071A000657265206F6E206572726F7220726574726965730D0A096C786909622C63706DEA
:2071C00062093B73657420646D61206164647265737320746F207374617274206F6620649B
:2071E00069736B2073797374656D0D0A0963616C6C09736574646D610D0A096D7669096368
:207200002C30093B626F6F742066726F6D20647269766520300D0A0963616C6C0973656CB3
:2072200064736B0D0A096D766909632C300D0A0963616C6C0973657474726B093B737461EA
:207240007274207769746820747261636B20300D0A096D766909632C32093B73746172743F
:207260002072656164696E6720736563746F7220320D0A0963616C6C097365747365630DB9
:207280000A3B0D0A3B097265616420736563746F72732C20636F756E74206E73656374736A
:2072A00020746F207A65726F0D0A09706F700962093B31302D6572726F7220636F756E74CC
:2072C0000D0A096D766909622C6E73656374730D0A72647365633A093B72656164206E65E6
:2072E000787420736563746F720D0A09707573680962093B7361766520736563746F7220E4
:20730000636F756E740D0A0963616C6C09726561640D0A096A6E7A09626F6F746572720962
:207320003B7265747279206966206572726F7273206F636375720D0A096C686C6409696F4F
:2073400064093B696E6372656D656E7420646D6120616464726573730D0A096C786909648E
:207360002C313238093B736563746F722073697A650D0A096461640964093B696E6372658C
:207380006D656E74656420646D61206164647265737320696E20686C0D0A096D6F76096250
:2073A0002C680D0A096D6F7609632C6C093B726561647920666F722063616C6C20746F2024
:2073C00073657420646D610D0A0963616C6C09736574646D610D0A096C646109696F73091E
:2073E0003B736563746F72206E756D626572206A75737420726561640D0A096370690932E0
:2074000036093B72656164206C61737420736563746F723F0D0A096A63097264310D0A3B44
:20742000096D75737420626520736563746F722032362C207A65726F20616E6420676F20E6
:20744000746F206E65787420747261636B0D0A096C646109696F74093B67657420747261A4
:20746000636B20746F20726567697374657220610D0A09696E7209610D0A096D6F76096384
:207480002C61093B726561647920666F722063616C6C0D0A0963616C6C0973657474726B81
:2074A0000D0A097872610961093B636C65617220736563746F72206E756D6265720D0A72CA
:2074C00064313A09696E720961093B746F206E65787420736563746F720D0A096D6F7609F0
:2074E000632C61093B726561647920666F722063616C6C0D0A0963616C6C09736574736537
:20750000630D0A09706F700962093B726563616C6C20736563746F7220636F756E740D0A67
:20752000096463720962093B646F6E653F0D0A096A6E7A0972647365630D0A3B0D0A3B093C
:20754000646F6E65207769746820746865206C6F61642C2072657365742064656661756C88
:20756000742062756666657220616464726573730D0A676F63706D3A093B28656E74657206
:2075800020686572652066726F6D20636F6C6420737461727420626F6F74290D0A3B096586
:2075A0006E61626C65207273743020616E6420727374370D0A0964690D0A096D766909615A
:2075C0002C313268093B696E697469616C697A6520636F6D6D616E640D0A096F757409724C
:2075E000657672740D0A0978726109610D0A096F757409696E7463093B636C6561726564B2
:207600000D0A096D766909612C696E7465093B7273743020616E6420727374372062697489
:2076200073206F6E0D0A096F757409696E74630D0A0978726109610D0A096F757409696389
:207640006F6E093B696E7465727275707420636F6E74726F6C0D0A3B0D0A3B0973657420E2
:2076600064656661756C7420627566666572206164647265737320746F203830680D0A0972
:207680006C786909622C627566660D0A0963616C6C09736574646D610D0A3B0D0A3B097201
:2076A00065736574206D6F6E69746F7220656E74727920706F696E74730D0A096D7669096D
:2076C000612C6A6D700D0A0973746109300D0A096C786909682C77626F6F74650D0A097308
:2076E000686C640931093B6A6D702077626F6F74206174206C6F636174696F6E2030300D47
:207700000A0973746109350D0A096C786909682C62646F730D0A0973686C640936093B6A66
:207720006D702062646F73206174206C6F636174696F6E20350D0A096966096E6F74207404
:207740006573740D0A0973746109372A38093B6A6D7020746F206D6F6E383020286D6179E4
:207760002068617665206265656E206368616E67656420627920646474290D0A096C7869B4
:2077800009682C6D6F6E38300D0A0973686C6409372A382B310D0A09656E6469660D0A3B59
:2077A000096C6561766520696F62797465207365740D0A3B0970726576696F75736C7920BE
:2077C00073656C6563746564206469736B2077617320622C2073656E6420706172616D651C
:2077E00074657220746F2063706D0D0A096C646109636469736B093B6C617374206C6F6719
:20780000676564206469736B206E756D6265720D0A096D6F7609632C61093B73656E64204B
:20782000746F2063637020746F206C6F6720697420696E0D0A0965690D0A096A6D700963F5
:20784000706D620D0A3B0D0A3B096572726F7220636F6E646974696F6E206F63637572727D
:2078600065642C207072696E74206D65737361676520616E642072657472790D0A626F6FC1
:20788000746572723A0D0A09706F700962093B726563616C6C20636F756E74730D0A096420
:2078A000637209630D0A096A7A09626F6F746572300D0A3B0974727920616761696E0D0ACE
:2078C000097075736809620D0A096A6D700977626F6F74300D0A3B0D0A626F6F7465723085
:2078E0003A0D0A3B096F746865727769736520746F6F206D616E7920726574726965730DA7
:207900000A096C786909682C626F6F746D73670D0A0963616C6C0970726D73670D0A096AF7
:207920006D7009726D6F6E3830093B6D6473206861726477617265206D6F6E69746F720D12
:207940000A3B0D0A626F6F746D73673A0D0A09646209273F626F6F74272C300D0A3B0D0AA1
:207960003B0D0A636F6E73743A093B636F6E736F6C652073746174757320746F20726567F8
:207980002D610D0A3B092865786163746C79207468652073616D65206173206D64732063DA
:2079A000616C6C290D0A096A6D7009637374730D0A3B0D0A636F6E696E3A093B636F6E7387
:2079C0006F6C652063686172616374657220746F207265672D610D0A0963616C6C0963691A
:2079E0000D0A09616E6909376668093B72656D6F766520706172697479206269740D0A0917
:207A00007265740D0A3B0D0A636F6E6F75743A093B636F6E736F6C652063686172616374B3
:207A200065722066726F6D206320746F20636F6E736F6C65206F75740D0A096A6D700963B7
:207A40006F0D0A3B0D0A6C6973743A093B6C69737420646576696365206F75740D0A3B09F5
:207A60002865786163746C79207468652073616D65206173206D64732063616C6C290D0A69
:207A8000096A6D70096C6F0D0A3B0D0A6C69737473743A0D0A093B72657475726E206C697C
:207AA0007374207374617475730D0A0978726109610D0A0972657409093B616C77617973FD
:207AC000206E6F742072656164790D0A3B0D0A70756E63683A093B70756E6368206465767E
:207AE000696365206F75740D0A3B092865786163746C79207468652073616D652061732025
:207B00006D64732063616C6C290D0A096A6D7009706F0D0A3B0D0A7265616465723A093B93
:207B20007265616465722063686172616374657220696E20746F207265672D610D0A3B09C4
:207B40002865786163746C79207468652073616D65206173206D64732063616C6C290D0A88
:207B6000096A6D700972690D0A3B0D0A686F6D653A093B6D6F766520746F20686F6D65209E
:207B8000706F736974696F6E0D0A3B09747265617420617320747261636B20303020736554
:207BA000656B0D0A096D766909632C300D0A096A6D700973657474726B0D0A3B0D0A736573
:207BC0006C64736B3A093B73656C656374206469736B20676976656E206279207265676933
:207BE0007374657220630D0A096C786909682C3030303068093B72657475726E203030307E
:207C000030206966206572726F720D0A096D6F7609612C630D0A09637069096E6469736B12
:207C200073093B746F6F206C617267653F0D0A09726E6309093B6C6561766520484C203D03
:207C400020303030300D0A3B0D0A09616E6909313062093B303020303020666F722064724D
:207C600069766520302C3120616E6420313020313020666F7220647269766520322C330D5F
:207C80000A09737461096462616E6B093B746F2073656C6563742064726976652062616E2E
:207CA0006B0D0A096D6F7609612C63093B30302C2030312C2031302C2031310D0A09616E53
:207CC00069093162093B6D64732068617320302C312061742037382C20322C332061742098
:207CE00038380D0A096F72610961093B726573756C742030303F0D0A096A7A0973657464E9
:207D0000726976650D0A096D766909612C303031313030303062093B73656C656374732070
:207D20006472697665203120696E2062616E6B0D0A73657464726976653A0D0A096D6F76FC
:207D400009622C61093B73617665207468652066756E6374696F6E0D0A096C786909682C47
:207D6000696F66093B696F2066756E6374696F6E0D0A096D6F7609612C6D0D0A09616E6956
:207D800009313130303131313162093B6D61736B206F7574206469736B206E756D62657216
:207DA0000D0A096F72610962093B6D61736B20696E206E6577206469736B206E756D6265A3
:207DC000720D0A096D6F76096D2C61093B7361766520697420696E20696F70620D0A096D7E
:207DE0006F76096C2C630D0A096D766909682C30093B484C3D6469736B206E756D626572F8
:207E00000D0A096461640968093B2A320D0A096461640968093B2A340D0A096461640968F2
:207E2000093B2A380D0A096461640968093B2A31360D0A096C786909642C64706261736598
:207E40000D0A096461640964093B484C3D6469736B20686561646572207461626C6520617A
:207E60006464726573730D0A097265740D0A3B0D0A3B0D0A73657474726B3A093B736574F0
:207E800020747261636B206164647265737320676976656E20627920630D0A096C7869097A
:207EA000682C696F740D0A096D6F76096D2C630D0A097265740D0A3B0D0A73657473656310
:207EC0003A093B73657420736563746F72206E756D62657220676976656E20627920630DBB
:207EE0000A096C786909682C696F730D0A096D6F76096D2C630D0A097265740D0A73656306
:207F00007472616E3A0D0A09093B7472616E736C61746520736563746F72206263207573A3
:207F2000696E67207461626C652061742064650D0A096D766909622C30093B646F75626C70
:207F40006520707265636973696F6E20736563746F72206E756D62657220696E2042430DCE
:207F60000A097863686709093B7472616E736C617465207461626C652061646472657373FB
:207F800020746F20484C0D0A096461640962093B7472616E736C61746528736563746F72AC
:207FA0002920616464726573730D0A096D6F7609612C6D093B7472616E736C617465642087
:207FC000736563746F72206E756D62657220746F20410D0A0973746109696F730D0A096DBB
:207FE0006F76096C2C61093B72657475726E20736563746F72206E756D62657220696E2046
:208000004C0D0A097265740D0A3B0D0A736574646D613A093B73657420646D61206164645D
:208020007265737320676976656E206279207265677320622C630D0A096D6F76096C2C63F7
:208040000D0A096D6F7609682C620D0A0973686C6409696F640D0A097265740D0A3B0D0ACB
:20806000726561643A093B72656164206E657874206469736B207265636F726420286173E5
:2080800073756D696E67206469736B2F74726B2F7365632F646D6120736574290D0A096D15
:2080A000766909632C7265616466093B73657420746F20726561642066756E6374696F6E72
:2080C0000D0A0963616C6C0973657466756E630D0A0963616C6C0977616974696F093B70DD
:2080E0006572666F726D20726561642066756E6374696F6E0D0A0972657409093B6D6179B4
:208100002068617665206572726F722073657420696E207265672D610D0A3B0D0A3B0D0A47
:2081200077726974653A093B6469736B2077726974652066756E6374696F6E0D0A096D7617
:208140006909632C77726974660D0A0963616C6C0973657466756E63093B73657420746FA2
:208160002077726974652066756E6374696F6E0D0A0963616C6C0977616974696F0D0A09BC
:2081800072657409093B6D61792068617665206572726F72207365740D0A3B0D0A3B0D0ACB
:2081A0003B097574696C69747920737562726F7574696E65730D0A70726D73673A093B7056
:2081C00072696E74206D65737361676520617420682C6C20746F20300D0A096D6F76096199
:2081E0002C6D0D0A096F72610961093B7A65726F3F0D0A09727A0D0A3B096D6F7265207429
:208200006F207072696E740D0A097075736809680D0A096D6F7609632C610D0A0963616C96
:208220006C09636F6E6F75740D0A09706F7009680D0A09696E7809680D0A096A6D70097091
:20824000726D73670D0A3B0D0A73657466756E633A0D0A3B097365742066756E6374696F0B
:208260006E20666F72206E65787420692F6F2028636F6D6D616E6420696E207265672D6317
:20828000290D0A096C786909682C696F66093B696F2066756E6374696F6E206164647265AB
:2082A00073730D0A096D6F7609612C6D093B67657420697420746F20616363756D756C6174
:2082C000746F7220666F72206D61736B696E670D0A09616E69093131313131303030620987
:2082E0003B72656D6F76652070726576696F757320636F6D6D616E640D0A096F726109634B
:20830000093B73657420746F206E657720636F6D6D616E640D0A096D6F76096D2C61093BA8
:208320007265706C6163656420696E20696F70620D0A3B09746865206D64732D3830302057
:20834000636F6E74726F6C6C6572207265717569726573206469736B2062616E6B206269D7
:208360007420696E20736563746F7220627974650D0A3B096D61736B207468652062697447
:208380002066726F6D207468652063757272656E7420692F6F2066756E6374696F6E0D0AC1
:2083A00009616E6909303031303030303062093B6D61736B20746865206469736B2073657C
:2083C0006C656374206269740D0A096C786909682C696F7309093B6164647265737320747A
:2083E000686520736563746F722073656C65637420627974650D0A096F7261096D09093B67
:2084000073656C6563742070726F706572206469736B2062616E6B0D0A096D6F76096D2C89
:208420006109093B736574206469736B2073656C65637420626974206F6E2F6F66660D0AFA
:20844000097265740D0A3B0D0A77616974696F3A0D0A096D766909632C7265747279093B1A
:208460006D61782072657472696573206265666F7265207065726D206572726F720D0A725E
:2084800065776169743A0D0A3B0973746172742074686520692F6F2066756E6374696F6EF1
:2084A00020616E64207761697420666F7220636F6D706C6574696F6E0D0A0963616C6C090E
:2084C000696E74797065093B696E2072747970650D0A0963616C6C09696E62797465093B00
:2084E000636C656172732074686520636F6E74726F6C6C65720D0A3B0D0A096C646109642D
:2085000062616E6B09093B7365742062616E6B20666C6167730D0A096F7261096109093B24
:208520007A65726F20696620647269766520302C3120616E64206E7A20696620322C330D9D
:208540000A096D766909612C696F706220616E642030666668093B6C6F77206164647265EF
:20856000737320666F7220696F70620D0A096D766909622C696F7062207368722038093B2E
:2085800068696768206164647265737320666F7220696F70620D0A096A6E7A09696F6472DB
:2085A00031093B64726976652062616E6B20313F0D0A096F757409696C6F7709093B6C6F7C
:2085C00077206164647265737320746F20636F6E74726F6C6C65720D0A096D6F7609612CAF
:2085E000620D0A096F7574096968696768093B6869676820616464726573730D0A096A6DAE
:208600007009776169743009093B746F207761697420666F7220636F6D706C6574650D0A00
:208620003B0D0A696F6472313A093B64726976652062616E6B20310D0A096F757409696C0E
:208640006F772B313068093B383820666F722064726976652062616E6B2031300D0A096D21
:208660006F7609612C620D0A096F75740969686967682B3130680D0A3B0D0A776169743051
:208680003A0963616C6C09696E7374617409093B7761697420666F7220636F6D706C6574E2
:2086A000696F6E0D0A09616E6909696F72647909093B72656164793F0D0A096A7A09776166
:2086C0006974300D0A3B0D0A3B09636865636B20696F20636F6D706C6574696F6E206F6B96
:2086E0000D0A0963616C6C09696E7479706509093B6D75737420626520696F20636F6D7058
:208700006C657465202830302920756E6C696E6B65640D0A3B09303020756E6C696E6B6593
:208720006420692F6F20636F6D706C6574652C202020203031206C696E6B656420692F6F6A
:2087400020636F6D706C65746520286E6F742075736564290D0A3B093130206469736B2066
:20876000737461747573206368616E67656420202020202020313120286E6F742075736523
:2087800064290D0A096370690931306209093B726561647920737461747573206368616E44
:2087A00067653F0D0A096A7A097772656164790D0A3B0D0A3B096D75737420626520303038
:2087C00020696E2074686520616363756D756C61746F720D0A096F726109610D0A096A6EBD
:2087E0007A09776572726F7209093B736F6D65206F7468657220636F6E646974696F6E2CFF
:208800002072657472790D0A3B0D0A3B09636865636B20692F6F206572726F722062697487
:20882000730D0A0963616C6C09696E627974650D0A0972616C0D0A096A630977726561640D
:208840007909093B756E6974206E6F742072656164790D0A097261720D0A09616E690931F5
:208860003131313131313062093B616E79206F74686572206572726F72733F202028646545
:208880006C657465642064617461206F6B290D0A096A6E7A09776572726F720D0A3B0D0A68
:2088A0003B0972656164206F72207772697465206973206F6B2C20616363756D756C61748B
:2088C0006F7220636F6E7461696E73207A65726F0D0A097265740D0A3B0D0A777265616471
:2088E000793A093B6E6F742072656164792C207472656174206173206572726F7220666F5C
:2089000072206E6F770D0A0963616C6C09696E6279746509093B636C6561722072657375EE
:208920006C7420627974650D0A096A6D7009747279636F756E740D0A3B0D0A776572726FF3
:20894000723A093B72657475726E206861726477617265206D616C66756E6374696F6E2039
:20896000286372632C20747261636B2C207365656B2C206574632E290D0A3B0974686520A7
:208980006D647320636F6E74726F6C6C6572206861732072657475726E65642061206269DE
:2089A0007420696E206561636820706F736974696F6E0D0A3B096F6620746865206163632E
:2089C000756D756C61746F722C20636F72726573706F6E64696E6720746F2074686520636E
:2089E0006F6E646974696F6E733A0D0A3B0930092D2064656C6574656420646174612028AC
:208A00006163636570746564206173206F6B2061626F7665290D0A3B0931092D20637263BF
:208A2000206572726F720D0A3B0932092D207365656B206572726F720D0A3B0933092D2033
:208A400061646472657373206572726F7220286861726477617265206D616C66756E6374D6
:208A6000696F6E290D0A3B0934092D2064617461206F7665722F756E64657220666C6F7707
:208A800020286861726477617265206D616C66756E6374696F6E290D0A3B0935092D2077FA
:208AA000726974652070726F74656374202874726561746564206173206E6F7420726561F3
:208AC0006479290D0A3B0936092D207772697465206572726F72202868617264776172659E
:208AE000206D616C66756E6374696F6E290D0A3B0937092D206E6F742072656164790D0A08
:208B00003B0928616363756D756C61746F72206269747320617265206E756D6265726564AD
:208B200020372036203520342033203220312030290D0A3B0D0A3B096974206D61792062FD
:208B4000652075736566756C20746F2066696C746572206F75742074686520766172696F39
:208B6000757320636F6E646974696F6E732C0D0A3B096275742077652077696C6C20676521
:208B8000742061207065726D616E656E74206572726F72206D65737361676520696620692F
:208BA00074206973206E6F740D0A3B097265636F76657261626C652E2020696E20616E7942
:208BC00020636173652C20746865206E6F7420726561647920636F6E646974696F6E206936
:208BE000730D0A3B0974726561746564206173206120736570617261746520636F6E6469A7
:208C000074696F6E20666F72206C6174657220696D70726F76656D656E740D0A747279634C
:208C20006F756E743A0D0A3B097265676973746572206320636F6E7461696E732072657407
:208C4000727920636F756E742C2064656372656D656E74202774696C207A65726F0D0A094D
:208C600064637209630D0A096A6E7A09726577616974093B666F7220616E6F74686572208C
:208C80007472790D0A3B0D0A3B0963616E6E6F74207265636F7665722066726F6D20657264
:208CA000726F720D0A096D766909612C31093B6572726F7220636F64650D0A097265740D8D
:208CC0000A3B0D0A3B09696E747970652C20696E627974652C20696E73746174207265614D
:208CE000642064726976652062616E6B203030206F722031300D0A696E747970653A096CB9
:208D00006461096462616E6B0D0A096F726109610D0A096A6E7A09696E74797031093B7322
:208D20006B697020746F2062616E6B2031300D0A09696E0972747970650D0A097265740D03
:208D40000A696E747970313A09696E0972747970652B313068093B373820666F7220302CC3
:208D6000312020383820666F7220322C330D0A097265740D0A3B0D0A696E627974653A0958
:208D80006C6461096462616E6B0D0A096F726109610D0A096A6E7A09696E627974310D0AE4
:208DA00009696E0972627974650D0A097265740D0A696E627974313A09696E0972627974E7
:208DC000652B3130680D0A097265740D0A3B0D0A696E737461743A096C6461096462616EC1
:208DE0006B0D0A096F726109610D0A096A6E7A09696E737461310D0A09696E0964737461C5
:208E0000740D0A097265740D0A696E737461313A09696E0964737461742B3130680D0A09B5
:208E20007265740D0A3B0D0A3B0D0A3B0D0A3B096461746120617265617320286D757374BF
:208E400020626520696E2072616D290D0A6462616E6B3A0964620930093B6469736B2062E1
:208E6000616E6B20303020696620647269766520302C310D0A0909093B092020203130200B
:208E8000696620647269766520322C330D0A696F70623A093B696F20706172616D65746592
:208EA0007220626C6F636B0D0A09646209383068093B6E6F726D616C20692F6F206F7065FE
:208EC000726174696F6E0D0A696F663A096462097265616466093B696F2066756E637469D7
:208EE0006F6E2C20696E697469616C20726561640D0A696F6E3A0964620931093B6E756D6F
:208F0000626572206F6620736563746F727320746F20726561640D0A696F743A09646209CC
:208F20006F6666736574093B747261636B206E756D6265720D0A696F733A096462093109FA
:208F40003B736563746F72206E756D6265720D0A696F643A0964770962756666093B696F64
:208F600020616464726573730D0A3B0D0A3B0D0A3B09646566696E652072616D20617265C9
:208F8000617320666F722062646F73206F7065726174696F6E0D0A09656E6465660D0A099B
:208FA000656E640D0A1A1A1A1A1A1A1A1A1A1A1A1A1A1A1A1A1A1A1A1A1A1A1A1A1A1A1AA5
:208FC0001A1A1A1A1A1A1A1A1A1A1A1A1A1A1A1A1A1A1A1A1A1A1A1A1A1A1A1A1A1A1A1A51
:208FE0001A1A1A1A1A1A1A1A1A1A1A1A1A1A1A1A1A1A1A1A1A1A1A1A1A1A1A1A1A1A1A1A31
:209000003B09536B656C6574616C204342494F5320666F72206669727374206C6576656C60
:20902000206F662043502F4D20322E3020616C7465726174696F6E0D0A3B0D0A6D73697ADD
:209040006509657175093230093B63702F6D2076657273696F6E206D656D6F72792073695E
:209060007A6520696E206B696C6F62797465730D0A3B0D0A3B092262696173222069732078
:2090800061646472657373206F66667365742066726F6D20333430304820666F72206D65E7
:2090A0006D6F72792073797374656D730D0A3B097468616E2031364B20287265666572720B
:2090C000656420746F20617320226222207468726F7567686F75742074686520746578744B
:2090E000292E0D0A3B0D0A626961730965717509286D73697A652D3230292A313032340DAE
:209100000A636370096571750933343030482B62696173093B62617365206F6620636370AF
:209120000D0A62646F7309657175096363702B38303668093B62617365206F662062646F83
:20914000730D0A62696F7309657175096363702B3136303068093B62617365206F66206295
:20916000696F730D0A636469736B09657175093030303448093B63757272656E74206469E2
:20918000736B206E756D62657220303D412C2E2E2E2C31353D500D0A696F62797465096594
:2091A0007175093030303368093B696E74656C20692F6F20627974650D0A3B0D0A096F72E7
:2091C000670962696F73093B6F726967696E206F6620746869732070726F6772616D0D0AAA
:2091E0006E7365637473096571750928242D636370292F313238093B7761726D207374617D
:20920000727420736563746F7220636F756E740D0A3B0D0A3B096A756D7020766563746FC5
:209220007220666F7220696E646976696475616C20737562726F7574696E65730D0A096A9F
:209240006D7009626F6F7409093B636F6C642073746172740D0A77626F6F74653A096A6D76
:20926000700977626F6F7409093B7761726D2073746172740D0A096A6D7009636F6E737461
:2092800009093B636F6E736F6C65207374617475730D0A096A6D7009636F6E696E09093BF6
:2092A000636F6E736F6C652063686172616374657220696E0D0A096A6D7009636F6E6F7563
:2092C0007409093B636F6E736F6C6520636861726163746572206F75740D0A096A6D700925
:2092E0006C69737409093B6C69737420636861726163746572206F75740D0A096A6D7009F4
:2093000070756E636809093B70756E636820636861726163746572206F75740D0A096A6D88
:20932000700972656164657209093B72656164657220636861726163746572206F75740D2F
:209340000A096A6D7009686F6D6509093B6D6F7665206865616420746F20686F6D652070EF
:209360006F736974696F6E0D0A096A6D700973656C64736B09093B73656C65637420646938
:20938000736B0D0A096A6D700973657474726B09093B73657420747261636B206E756D6242
:2093A00065720D0A096A6D700973657473656309093B73657420736563746F72206E756D26
:2093C0006265720D0A096A6D7009736574646D6109093B73657420646D612061646472655B
:2093E00073730D0A096A6D70097265616409093B72656164206469736B0D0A096A6D700957
:20940000777269746509093B7772697465206469736B0D0A096A6D70096C697374737409C2
:20942000093B72657475726E206C697374207374617475730D0A096A6D7009736563747217
:20944000616E09093B736563746F72207472616E736C6174650D0A3B0D0A3B096669786519
:20946000642064617461207461626C657320666F7220666F75722D64726976652073746141
:209480006E646172640D0A3B0949424D2D636F6D70617469626C65203822206469736B738B
:2094A0000D0A3B096469736B20706172616D657465722068656164657220666F72206469E8
:2094C000736B2030300D0A6470626173653A096477097472616E732C30303030480D0A0905
:2094E00064770930303030482C30303030480D0A0964770964697262662C6470626C6B0DFB
:209500000A0964770963686B30302C616C6C30300D0A3B096469736B20706172616D6574E9
:2095200065722068656164657220666F72206469736B2030310D0A096477097472616E73EC
:209540002C30303030480D0A0964770930303030482C30303030480D0A0964770964697254
:2095600062662C6470626C6B0D0A0964770963686B30312C616C6C30310D0A3B09646973EE
:209580006B20706172616D657465722068656164657220666F72206469736B2030320D0A2B
:2095A000096477097472616E732C30303030480D0A0964770930303030482C303030304822
:2095C0000D0A0964770964697262662C6470626C6B0D0A0964770963686B30322C616C6C46
:2095E00030320D0A3B096469736B20706172616D657465722068656164657220666F722012
:209600006469736B2030330D0A096477097472616E732C30303030480D0A09647709303058
:209620003030482C30303030480D0A0964770964697262662C6470626C6B0D0A0964770906
:2096400063686B30332C616C6C30330D0A3B0D0A3B09736563746F72207472616E736C6157
:20966000746520766563746F720D0A7472616E733A09646209312C372C31332C3139093B0F
:20968000736563746F727320312C322C332C340D0A0964620932352C352C31312C31370977
:2096A0003B736563746F727320352C362C372C380D0A0964620932332C332C392C3135093B
:2096C0003B736563746F727320392C31302C31312C31320D0A0964620932312C322C382C09
:2096E0003134093B736563746F72732031332C31342C31352C31360D0A0964620932302C07
:2097000032362C362C3132093B736563746F72732031372C31382C31392C32300D0A0964E4
:20972000620931382C32342C342C3130093B736563746F72732032312C32322C32332C328D
:20974000340D0A0964620931362C323209093B736563746F72732032352C32360D0A3B0D25
:209760000A6470626C6B3A093B6469736B20706172616D6574657220626C6F636B2C2063EE
:209780006F6D6D6F6E20746F20616C6C206469736B730D0A09647709323609093B73656315
:2097A000746F72732070657220747261636B0D0A096462093309093B626C6F636B207368D0
:2097C00069667420666163746F720D0A096462093709093B626C6F636B206D61736B0D0A46
:2097E000096462093009093B6E756C6C206D61736B0D0A0964770932343209093B64697364
:209800006B2073697A652D310D0A09647709363309093B6469726563746F7279206D6178AF
:209820000D0A0964620931393209093B616C6C6F6320300D0A096462093009093B616C6C50
:209840006F6320310D0A09647709313609093B636865636B2073697A650D0A09647709321E
:2098600009093B747261636B206F66667365740D0A3B0D0A3B09656E64206F66206669789F
:209880006564207461626C65730D0A3B0D0A3B09696E646976696475616C20737562726F43
:2098A0007574696E657320746F20706572666F726D20656163682066756E6374696F6E0DAE
:2098C0000A626F6F743A093B73696D706C657374206361736520697320746F206A7573743A
:2098E00020706572666F726D20706172616D6574657220696E697469616C697A6174696FD2
:209900006E0D0A09787261096109093B7A65726F20696E2074686520616363756D0D0A0956
:2099200073746109696F6279746509093B636C6561722074686520696F627974650D0A09C9
:2099400073746109636469736B09093B73656C656374206469736B207A65726F0D0A096AA6
:209960006D7009676F63706D09093B696E697469616C697A6520616E6420676F20746F2000
:2099800063702F6D0D0A3B0D0A77626F6F743A093B73696D706C6573742063617365206990
:2099A0007320746F207265616420746865206469736B20756E74696C20616C6C2073656349
:2099C000746F7273206C6F616465640D0A096C78690973702C38306809093B7573652073B4
:2099E000706163652062656C6F772062756666657220666F7220737461636B0D0A096D765B
:209A00006909632C3009093B73656C656374206469736B20300D0A0963616C6C0973656C24
:209A200064736B0D0A0963616C6C09686F6D6509093B676F20746F20747261636B2030309B
:209A40000D0A3B0D0A096D766909622C6E7365637473093B6220636F756E74732023206FED
:209A60006620736563746F727320746F206C6F61640D0A096D766909632C3009093B632096
:209A8000686173207468652063757272656E7420747261636B206E756D6265720D0A096D9B
:209AA000766909642C3209093B642068617320746865206E65787420736563746F7220746B
:209AC0006F20726561640D0A3B096E6F7465207468617420776520626567696E206279203D
:209AE00072656164696E6720747261636B20302C20736563746F7220322073696E63652087
:209B0000736563746F7220310D0A3B09636F6E7461696E732074686520636F6C6420737480
:209B2000617274206C6F616465722C20776869636820697320736B697070656420696E20C5
:209B400061207761726D2073746172740D0A096C786909682C63637009093B626173652037
:209B60006F662063702F6D2028696E697469616C206C6F616420706F696E74290D0A6C6F2A
:209B80006164313A093B6C6F6164206F6E65206D6F726520736563746F720D0A0970757354
:209BA000680962093B7361766520736563746F7220636F756E742C2063757272656E742077
:209BC000747261636B0D0A09707573680964093B73617665206E65787420736563746F72A1
:209BE00020746F20726561640D0A09707573680968093B7361766520646D61206164647255
:209C00006573730D0A096D6F7609632C64093B67657420736563746F7220616464726573C4
:209C20007320746F20726567697374657220630D0A0963616C6C09736574736563093B73A3
:209C4000657420736563746F7220616464726573732066726F6D20726567697374657220FC
:209C6000630D0A09706F700962093B726563616C6C20646D61206164647265737320746F95
:209C800020622C630D0A09707573680962093B7265706C616365206F6E20737461636B20F5
:209CA000666F72206C6174657220726563616C6C0D0A0963616C6C09736574646D61093B0B
:209CC00073657420646D6120616464726573732066726F6D20622C630D0A3B0D0A3B0964EA
:209CE000726976652073657420746F20302C20747261636B207365742C20736563746F7246
:209D0000207365742C20646D612061646472657373207365740D0A0963616C6C09726561EA
:209D2000640D0A0963706909303068093B616E79206572726F72733F0D0A096A6E7A097718
:209D4000626F6F74093B72657472792074686520656E7469726520626F6F74206966206189
:209D60006E206572726F72206F63637572730D0A3B0D0A3B096E6F206572726F722C206DEF
:209D80006F766520746F206E65787420736563746F720D0A09706F700968093B7265636128
:209DA0006C6C20646D6120616464726573730D0A096C786909642C313238093B646D613D1F
:209DC000646D612B3132380D0A096461640964093B6E657720646D612061646472657373EF
:209DE00020697320696E20682C6C0D0A09706F700964093B726563616C6C20736563746F7F
:209E00007220616464726573730D0A09706F700962093B726563616C6C206E756D62657290
:209E2000206F6620736563746F72732072656D61696E696E672C20616E6420637572726570
:209E40006E742074726B0D0A096463720962093B736563746F72733D736563746F72732D37
:209E6000310D0A096A7A09676F63706D093B7472616E7366657220746F2063702F6D2069CA
:209E80006620616C6C2068617665206265656E206C6F616465640D0A3B0D0A3B096D6F7201
:209EA0006520736563746F72732072656D61696E20746F206C6F61642C20636865636B2051
:209EC000666F7220747261636B206368616E67650D0A09696E7209640D0A096D6F760961CE
:209EE0002C64093B736563746F723D32373F2C20696620736F2C206368616E676520747244
:209F000061636B730D0A096370690932370D0A096A63096C6F616431093B63617272792085
:209F200067656E65726174656420696620736563746F723C32370D0A3B0D0A3B09656E644A
:209F4000206F662063757272656E7420747261636B2C20676F20746F206E657874207472AA
:209F600061636B0D0A096D766909642C31093B626567696E207769746820666972737420EF
:209F8000736563746F72206F66206E65787420747261636B0D0A09696E720963093B747229
:209FA00061636B3D747261636B2B310D0A3B0D0A3B097361766520726567697374657220C3
:209FC00073746174652C20616E64206368616E676520747261636B730D0A097075736809CA
:209FE000620D0A097075736809640D0A097075736809680D0A0963616C6C0973657474726A
:20A000006B093B747261636B2061646472657373207365742066726F6D2072656769737488
:20A02000657220630D0A09706F7009680D0A09706F7009640D0A09706F7009620D0A096AA6
:20A040006D70096C6F616431093B666F7220616E6F7468657220736563746F720D0A3B0D9E
:20A060000A3B09656E64206F66206C6F6164206F7065726174696F6E2C207365742070612C
:20A0800072616D657465727320616E6420676F20746F2063702F6D0D0A676F63706D3A0D0E
:20A0A0000A096D766909612C30633368093B63332069732061206A6D7020696E73747275FA
:20A0C0006374696F6E0D0A097374610930093B666F72206A6D7020746F2077626F6F740D75
:20A0E0000A096C786909682C77626F6F7465093B77626F6F7420656E74727920706F696E3C
:20A10000740D0A0973686C640931093B7365742061646472657373206669656C6420666F17
:20A1200072206A6D7020617420300D0A3B0D0A097374610935093B666F72206A6D70207483
:20A140006F2062646F730D0A096C786909682C62646F73093B62646F7320656E74727920B8
:20A16000706F696E740D0A0973686C640936093B61646472657373206669656C64206F6668
:20A18000206A756D70206174203520746F2062646F730D0A3B0D0A096C786909622C383010
:20A1A00068093B64656661756C7420646D612061646472657373206973203830680D0A09AA
:20A1C00063616C6C09736574646D610D0A3B0D0A09656909093B656E61626C652074686507
:20A1E00020696E746572727570742073797374656D0D0A096C646109636469736B093B677A
:20A2000065742063757272656E74206469736B206E756D6265720D0A096D6F7609632C6163
:20A22000093B73656E6420746F20746865206363700D0A096A6D7009636370093B676F2096
:20A24000746F2063702F6D20666F7220667572746865722070726F63657373696E670D0A91
:20A260003B0D0A3B0D0A3B0973696D706C6520692F6F2068616E646C65727320286D757337
:20A28000742062652066696C6C656420696E2062792075736572290D0A3B09696E206561C1
:20A2A000636820636173652C2074686520656E74727920706F696E742069732070726F760B
:20A2C000696465642C20776974682073706163652072657365727665640D0A3B09746F20D6
:20A2E000696E7365727420796F7572206F776E20636F64650D0A3B0D0A636F6E73743A09D8
:20A300003B636F6E736F6C65207374617475732C2072657475726E203066666820696620CC
:20A320006368617261637465722072656164792C20303068206966206E6F740D0A096473D0
:20A3400009313068093B737061636520666F722073746174757320737562726F7574696EA5
:20A36000650D0A096D766909612C3030680D0A097265740D0A3B0D0A636F6E696E3A093B45
:20A38000636F6E736F6C652063686172616374657220696E746F207265676973746572207E
:20A3A000610D0A09647309313068093B737061636520666F7220696E70757420726F757482
:20A3C000696E650D0A09616E6909376668093B737472697020706172697479206269740D40
:20A3E0000A097265740D0A3B0D0A636F6E6F75743A203B636F6E736F6C6520636861726157
:20A4000063746572206F75747075742066726F6D20726567697374657220630D0A096D6FE5
:20A420007609612C63093B67657420746F20616363756D756C61746F720D0A096473093135
:20A440003068093B737061636520666F72206F757470757420726F7574696E650D0A097224
:20A4600065740D0A3B0D0A6C6973743A093B6C697374206368617261637465722066726F70
:20A480006D20726567697374657220630D0A096D6F7609612C63093B63686172616374655D
:20A4A0007220746F20726567697374657220610D0A0972657409093B6E756C6C2073756244
:20A4C000726F7574696E650D0A3B0D0A6C69737473743A093B72657475726E206C69737470
:20A4E00020737461747573202830206966206E6F742072656164792C203120696620726528
:20A50000616479290D0A097872610961093B3020697320616C77617973206F6B20746F20C1
:20A5200072657475726E0D0A097265740D0A3B0D0A70756E63683A093B70756E636820636A
:20A5400068617261637465722066726F6D20726567697374657220630D0A096D6F760961F9
:20A560002C63093B63686172616374657220746F20726567697374657220610D0A0972655B
:20A580007409093B6E756C6C20737562726F7574696E650D0A3B0D0A3B0D0A726561646513
:20A5A000723A203B726561642063686172616374657220696E746F207265676973746572CC
:20A5C00020612066726F6D20726561646572206465766963650D0A096D766909612C31616F
:20A5E00068093B656E74657220656E64206F662066696C6520666F72206E6F77202872658B
:20A60000706C616365206C61746572290D0A09616E6909376668093B72656D656D626572DB
:20A6200020746F20737472697020706172697479206269740D0A097265740D0A3B0D0A3B9E
:20A640000D0A3B09692F6F206472697665727320666F7220746865206469736B20666F6C85
:20A660006C6F770D0A3B09666F72206E6F772C2077652077696C6C2073696D706C79207321
:20A68000746F72652074686520706172616D6574657273206177617920666F7220757365A5
:20A6A0000D0A3B09696E20746865207265616420616E6420777269746520737562726F75ED
:20A6C00074696E65730D0A3B0D0A686F6D653A093B6D6F766520746F207468652074726145
:20A6E000636B20303020706F736974696F6E206F662063757272656E742064726976650D18
:20A700000A3B097472616E736C61746520746869732063616C6C20696E746F206120736536
:20A720007474726B2063616C6C207769746820706172616D657465722030300D0A096D7658
:20A740006909632C30093B73656C65637420747261636B20300D0A0963616C6C097365746E
:20A7600074726B0D0A0972657409093B77652077696C6C206D6F766520746F203030206F33
:20A780006E20666972737420726561642F77726974650D0A3B0D0A73656C64736B3A093B80
:20A7A00073656C656374206469736B20676976656E20627920726567697374657220430D25
:20A7C0000A096C786909682C3030303068093B6572726F722072657475726E20636F64656B
:20A7E0000D0A096D6F7609612C630D0A09737461096469736B6E6F0D0A0963706909340953
:20A800003B6D757374206265206265747765656E203020616E6420330D0A09726E630909D8
:20A820003B6E6F20636172727920696620342C352C2E2E2E0D0A3B096469736B206E756DEF
:20A8400062657220697320696E207468652070726F7065722072616E67650D0A0964730986
:20A860003130093B737061636520666F72206469736B2073656C6563740D0A3B09636F6DBB
:20A88000707574652070726F706572206469736B20706172616D657465722068656164657F
:20A8A0007220616464726573730D0A096C6461096469736B6E6F0D0A096D6F76096C2C61CA
:20A8C000093B4C3D6469736B206E756D62657220302C312C322C330D0A096D766909682CE4
:20A8E00030093B68696768206F72646572207A65726F0D0A096461640968093B2A320D0AB7
:20A90000096461640968093B2A340D0A096461640968093B2A380D0A096461640968093B94
:20A920002A3136202873697A65206F66206561636820686561646572290D0A096C786909B5
:20A94000642C6470626173650D0A096461640964093B484C3D2E6470626173652864697328
:20A960006B6E6F2A3136290D0A097265740D0A3B0D0A73657474726B3A093B736574207406
:20A980007261636B20676976656E20627920726567697374657220630D0A096D6F760961FE
:20A9A0002C630D0A0973746109747261636B0D0A09647309313068093B73706163652066E3
:20A9C0006F7220747261636B2073656C6563740D0A097265740D0A3B0D0A73657473656366
:20A9E0003A093B73657420736563746F7220676976656E2062792072656769737465722004
:20AA0000630D0A096D6F7609612C630D0A0973746109736563746F720D0A09647309313006
:20AA200068093B737061636520666F7220736563746F722073656C6563740D0A097265743C
:20AA40000D0A3B0D0A7365637472616E3A0D0A093B7472616E736C61746520746865207346
:20AA60006563746F7220676976656E206279204243207573696E67207468650D0A093B746A
:20AA800072616E736C617465207461626C6520676976656E2062792044450D0A09786368F4
:20AAA0006709093B484C3D2E7472616E730D0A096461640962093B484C3D2E7472616E739C
:20AAC00028736563746F72290D0A096D6F76096C2C6D093B4C203D207472616E73287365E0
:20AAE00063746F72290D0A096D766909682C30093B484C3D207472616E7328736563746F99
:20AB000072290D0A0972657409093B776974682076616C756520696E20484C0D0A3B0D0AD5
:20AB2000736574646D613A093B73657420646D61206164647265737320676976656E2062BA
:20AB40007920726567697374657273206220616E6420630D0A096D6F76096C2C63093B6C06
:20AB60006F77206F7264657220616464726573730D0A096D6F7609682C62093B6869676858
:20AB8000206F7264657220616464726573730D0A0973686C6409646D616164093B7361761A
:20ABA000652074686520616464726573730D0A09647309313068093B737061636520666FBB
:20ABC000722073657474696E672074686520646D6120616464726573730D0A097265740DB4
:20ABE0000A3B0D0A726561643A093B706572666F726D2072656164206F7065726174696FA5
:20AC00006E2028757375616C6C7920746869732069732073696D696C617220746F2077727E
:20AC20006974650D0A3B09736F2077652077696C6C20616C6C6F7720737061636520746F53
:20AC400020736574207570207265616420636F6D6D616E642C207468656E207573650D0A49
:20AC60003B09636F6D6D6F6E20636F646520696E207772697465290D0A0964730931306818
:20AC8000093B736574207570207265616420636F6D6D616E640D0A096A6D7009776169743F
:20ACA000696F093B746F20706572666F726D207468652061637475616C20692F6F0D0A3B06
:20ACC0000D0A77726974653A093B706572666F726D2061207772697465206F706572617442
:20ACE000696F6E0D0A09647309313068093B73657420757020777269746520636F6D6D6138
:20AD00006E640D0A3B0D0A77616974696F3A093B656E74657220686572652066726F6D2017
:20AD20007265616420616E6420777269746520746F20706572666F726D2074686520616376
:20AD40007475616C20692F6F200D0A3B096F7065726174696F6E2E202072657475726E209C
:20AD6000612030306820696E207265676973746572206120696620746865206F7065726106
:20AD800074696F6E20636F6D706C657465730D0A3B0970726F7065726C792C20616E642096
:20ADA00030316820696620616E206572726F72206F636375727320647572696E672074684E
:20ADC000652072656164206F722077726974650D0A3B0D0A3B09696E2074686973206361C6
:20ADE00073652C207765206861766520736176656420746865206469736B206E756D6265F9
:20AE00007220696E20276469736B6E6F272028302C31290D0A3B09090974686520747261C0
:20AE2000636B206E756D62657220696E2027747261636B272028302D3736290D0A3B090982
:20AE40000974686520736563746F72206E756D62657220696E2027736563746F7227202812
:20AE6000312D3236290D0A3B09090974686520646D61206164647265737320696E2027643B
:20AE80006D616164272028302D3635353335290D0A09647309323536093B73706163652015
:20AEA000726573657276656420666F7220492F4F20647269766572730D0A096D76690961EF
:20AEC0002C31093B6572726F7220636F6E646974696F6E0D0A0972657409093B7265706C55
:20AEE00061636564207768656E2066696C6C65642D696E0D0A3B0D0A3B097468652072657A
:20AF00006D61696E646572206F6620746865204342494F53206973207265736572766564EF
:20AF200020756E696E697469616C697A65640D0A3B096461746120617265612C20616E644B
:20AF400020646F6573206E6F74206E65656420746F20626520612070617274206F6620742E
:20AF600068650D0A3B0973797374656D206D656D6F727920696D616765202874686520730C
:20AF800070616365206D75737420626520617661696C61626C652C0D0A3B09686F776576D7
:20AFA00065722C206265747765656E20226265676461742220616E642022656E64646174B4
:20AFC00022292E0D0A3B0D0A747261636B3A0964730932093B74776F2062797465732066BA
:20AFE0006F7220657870616E73696F6E0D0A736563746F723A0964730932093B74776F20C1
