:020000040008F2
:2000000020554E4C4142454C45442020010000000000000000000000E5E5E5E5E5E5E5E5CB
:200020000042444F53332020205350520000004D04000500060000000000000000000000B4
:200040000042494F53332020205350520000002407000800000000000000000000000000B8
:200060000042494F534B524E4C41534D0000007D09000A000B000C00000000000000000094
:2000800000424E4B42444F53335350520000006A0D000E000F001000000000000000000091
:2000A00000424F4F542020202041534D000000181100000000000000000000000000000082
:2000C0000043414C4C5645525341534D0000000512000000000000000000000000000000CC
:2000E000004342494F5333202052454C002A000E13000000000000000000000000000000EF
:20010000004343502020202020434F4D00000019140000000000000000000000000000005D
:200120000043484152494F202041534D000000241500160000000000000000000000000099
:2001400000434F50595359532041534D000000751700180019001A0000000000000000008D
:2001600000434F505953595320434F4D0000000F1B0000000000000000000000000000001C
:200180000043504D33202020204C4942000000201C000000000000000000000000000000B9
:2001A0000043504D3320202020535953000000601D001E001F0000000000000000000000F3
:2001C0000043504D4C4452202052454C000000172000000000000000000000000000000003
:2001E000004441544520202020434F4D00000016210000000000000000000000000000004B
:20020000004445564943452020434F4D0000003A2200230000000000000000000000000090
:20022000004449522020202020434F4D000000722400250026002700000000000000000058
:20024000004449524C424C20205253580000000C2800000000000000000000000000000074
:200260000044525654424C202041534D000000022900000000000000000000000000000064
:200280000044554D502020202041534D000000202A0000000000000000000000000000007D
:2002A0000044554D5020202020434F4D000000082B00000000000000000000000000000076
:2002C000004543484F5645525341534D000000072C000000000000000000000000000000AB
:2002E000004544202020202020434F4D000000492D002E002F000000000000000000000003
:20030000004552415345202020434F4D0000001D30000000000000000000000000000000E1
:2003200000464431373937534441534D0000005131003200330000000000000000000000FC
:200340000047454E434F4D2020434F4D00000074340035003600370000000000000000007B
:200360000047454E43504D2020434F4D01000028380039003A003B003C003D00000000001C
:20038000004745542020202020434F4D000000333E003F000000000000000000000000004E
:2003A0000048454C5020202020434F4D0000003840004100000000000000000000000000FC
:2003C0000048454C5020202020484C500100008042004300440045004600470048004900E3
:2003E0000048454C5020202020484C50030000684A004B004C004D004E004F005000510099
:2004000000484558434F4D2020434F4D00000009520000000000000000000000000000009E
:2004200000484953542020202055544C0000000A53000000000000000000000000000000B2
:2004400000494E495444495220434F4D0100007A5400550056005700580059005A005B0053
:20046000004C445242494F532052454C001900055C000000000000000000000000000000F0
:20048000004C49422020202020434F4D000000385D005E0000000000000000000000000013
:2004A000004C494E4B20202020434F4D0000007B5F006000610062000000000000000000B2
:2004C000004D41432020202020434F4D0000005C6300640065000000000000000000000044
:2004E000004D4F4445424155444C4942000000086600000000000000000000000000000076
:20050000004D4F56452020202041534D0000000667000000000000000000000000000000D6
:20052000005041544348202020434F4D000000136800000000000000000000000000000091
:20054000005049502020202020434F4D0000004469006A006B0000000000000000000000B1
:2005600000504F5254532020204C49420000000E6C00000000000000000000000000000032
:20058000005055542020202020434F4D000000376D006E00000000000000000000000000D1
:2005A0000052414E444F4D202041534D000000566F007000710000000000000000000000B3
:2005C0000052454E414D452020434F4D0000001772000000000000000000000000000000BB
:2005E0000052455342444F533353505200000010730000000000000000000000000000003E
:2006000000524D414320202020434F4D0000006A7400750076007700000000000000000018
:20062000005341564520202020434F4D0000000E78000000000000000000000000000000A6
:2006400000534342202020202052454C000F000479000000000000000000000000000000B3
:20066000005345542020202020434F4D000000517A007B007C00000000000000000000004D
:20068000005345544445462020434F4D000000207D000000000000000000000000000000E3
:2006A0000053484F5720202020434F4D000000427E007F00800000000000000000000000DB
:2006C000005349442020202020434F4D0000003E810082000000000000000000000000007A
:2006E000005355424D49542020434F4D0000002A83008400000000000000000000000000D6
:2007000000545241434520202055544C0000000A8500000000000000000000000000000086
:20072000005459504520202020434F4D00000018860000000000000000000000000000007A
:2007400000584D4F44454D2020434F4D000000218700880000000000000000000000000080
:20076000005852454620202020434F4D0000007989008A008B008C00000000000000000042
:20078000E5E5E5E5E5E5E5E5E5E5E5E5E5E5E5E5E5E5E5E5E5E5E5E5E5E5E5E5E5E5E5E5B9
:2007A000E5E5E5E5E5E5E5E5E5E5E5E5E5E5E5E5E5E5E5E5E5E5E5E5E5E5E5E5E5E5E5E599
:2007C000E5E5E5E5E5E5E5E5E5E5E5E5E5E5E5E5E5E5E5E5E5E5E5E5E5E5E5E5E5E5E5E579
:2007E000E5E5E5E5E5E5E5E5E5E5E5E5E5E5E5E5E5E5E5E5E5E5E5E5E5E5E5E5E5E5E5E559
:2040000000E720000000000000000000000000000000000000000000000000000000000099
:20402000000000000000000000000000000000000000000000000000000000000000000080
:20404000000000000000000000000000000000000000000000000000000000000000000060
:20406000000000000000000000000000000000000000000000000000000000000000000040
:20408000000000000000000000000000000000000000000000000000000000000000000020
:2040A000000000000000000000000000000000000000000000000000000000000000000000
:2040C0000000000000000000000000000000000000000000000000000000000000000000E0
:2040E0000000000000000000000000000000000000000000000000000000000000000000C0
:20410000000000000930EB22DB1EEB7932DF1EFE0EDA370021000022BD1C3ADA1E32C61C4E
:204120003AE61E3DCA37002194007EB7CA3700B9CACD0223C32A007B32C31C210000227A6D
:204140000722DD1E3922CB0231EC0021641CE579FE33D25C004B21EC00C36E00FE80D2823D
:2041600001D662DA260FFE0FD2260F2152015F160019195E23562ADB1EEBE90600C50D2101
:20418000700109095E2356EBCDA602C13AE71EB7C0C3BC02141521222800434F50522E2057
:2041A0002738322044524920313531323832C7C7C7C7C7C7C7C7C7C7C7C7C7C7C7C7C7C71E
:2041C000C7C7C7C7C7C7C7C7C7C7C7C7C7C7C7C7C7C7C7C7C7C7C7C7C7C7C7C7C7C7C7C7FF
:2041E000C7C7C7C7C7C7C7C7C7C7C7C7C8025E03A004640612FF0FFF6A068E0694069A06D5
:204200001D05A006121818182B183518B818CC181D1928192E193719401989198F199519D9
:204220009B19A219910BAB19B119BD19C719DB19E419ED195516F319CE06CE06E419260FE7
:20424000CE06CE06171A251A2A1A671A791AC41AEA1A821A161B260FEE1BF71B260F251C79
:20426000321CCE06471C501CD406E206EE06EE062B075107420734070000000060076007C7
:204280006C07FE98C021C319E52ADB1E5E2356D5235E2356E1EBE5AF7723010B20CD920223
:2042A000010400CD9202010820CD9202010C00CD9202CD99021AFE3A1BE1E5C2D201CD7330
:2042C00002CA0602D641DA1C02FE10D21C0213133C7723CD7302CA06020100071AFE2ECAD5
:2042E000F001FE3BCA2102CD3F02C2DC01C3060213E1E5010900090100021AFE3BCA210200
:20430000CD3F02C2FA01C1D5CD99021BCD7302E1C0210000B7C8FE0DC8EBC9C1C121FFFF0E
:20432000C913E1E501100009010107CD3F02C22B023E0790E1E5011A0009771AC30602CDD3
:204340007302C8FE2013DA1B020405FA1B020C0DC25802FE2ACA5D02772305B7C9363F239B
:2043600005F25D02C90D09202E2C3A3B5B5D3D3C3E7C001AE5216502BECA8302343523C24C
:204380007802B7E1C8FE61D8FE7BD28F02E65FE67FC970230DC29202C91A13FE20CA99024E
:2043A000FE09CA9902C9E5CDE8043ACC1CC641322707011907CDF204C1C3F20421FDFFC363
:2043C000C50221FEFF22AC1EC303FF000021000039220203310E03213E03E5CDD507CD25A2
:2043E000033AE61EF532BE1CCD1003B7C235033ADF1EFE21D4CA07CD1B03F13DC2E40267C7
:204400006FC90000C7C7C7C7C7C7C7C7C7C700003ADF1E4F2ADB1EEBC337002AD81E11805F
:204420000019C32F032AD81E220E03C92A0E0322D81EC35B0CC13CC83AE61E9067C9E53AF3
:20444000DF1EFE21D4E507CD2C03D12A0203F9EB7D44C92117077E3600B7C0C309FF21CBF5
:2044600006E5CD5303CD8C03DA7203F54FCDA004F1C9CDA803C0FE13C28103CDE003C362B0
:2044800003FE11CA6203FE10CA6203C9FE0DC8FE0AC8FE09C8FE08C8FE20C93A1707B7C2DD
:2044A0001604CD06FFE601C9473ACF1EE60278C9CDA803C29B033A1707B7C2D203CDA803D3
:2044C000C03A1707FE13CAD203CD06FFE601C8CD09FFFE13C2FB03211707BEC2E003360015
:2044E000CD09FFFE03C2F1033ACF1EE608CAC202AFD611C83CCD1C04C3E003211707473AA0
:20450000CF1E1FD20A043E03BEC878FE11CA1904FE10CA1904773E01C9AF77C9CC25040E14
:2045200007C40CFFC93ACF1EE614C2370421D41E3E01AEE60177C9AFC93ADF1E3DCA0CFFD6
:2045400078E608C20CFFC30CFF3A1507B7C272043ACF1EE61447C53ADF1E3DC4BD03C1C56A
:20456000CD3904C178B7C27204C53AD41EB7C40FFFC17921B71EFE7FC834FE20D0357EB78E
:20458000C879FE08C2890435C9FE0DC03600C979CD8C03D2A004F50E5ECD4904F1F6404F81
:2045A0003ADF1E3DCAAF043ACF1EE614C2490479FE09C249040E20CD49043AB71EE607C245
:2045C000B504C9CDCB040E20CD0CFF0E08C30CFF0E23CD4904CDE8043AB71E211607BED0F4
:2045E0000E20CD4904C3D8040E0DCD49040E0AC3490421D31E0ABEC803C54FCDA004C1C3C9
:20460000F2042ABA1E7DB4CA53037E23B7C2130521000022BA1E22BC1EC0C353037AB3C240
:204620002D052AD81E22DB1E232322BA1E3E0132DF1E3AB71E3216072ADB1E4E23E5AF4792
:20464000321807B9C248050CC5E5CD0205E1C1FE0DCA5706FE0ACA5706FE08C27C053ACA67
:204660001E3CCA88053A1607573AB71EBACA480532150778B7CA790505C3E405FE7FC293B3
:20468000053ACB1E3CCA650578B7CA48057E052BC33806FE05C2A805C578321807E5CDE8F3
:2046A00004AF321607C34A05FE10C2B805E5C5AFCD1C04C1E1C34805FE18C2CF05E13A1684
:2046C0000721B71EBED22D0535CDC304C3BE05FE15C2DB05CDD004E1C32D05FE12C22306A5
:2046E000AF321807C5CDD004C1E1E5C578B7CA0706234E05D1D57A9057C5E53A1807BADCEC
:204700008F04E1C1C3EC05E53A1507B7CA4A0521B71E96321507CDC30421150735C21606E7
:20472000C34A05F578B9DA3406F1C5E50E07CD0CFFC34A05F1237704C5E54FCD8F04E1C109
:204740003ACF1EE608C254067EFE0378C25406FE01CAC202C34805E17021000022BA1E0EFE
:204760000DC34904CD15FFC3CB06793CCA83063CCA7A063CCA8806C30CFFCD9B03C2260F55
:20478000C3CB06CD9B03B7C8CD5303C3CB06CD36FFC3CB06CD39FFC3CB06EB4D44C3F20480
:2047A0003ACF1E1FD2C80621C506E53A1707FE03CA1604CD06FFB7C8CD09FFFE03CAFB0316
:2047C000321707AFC9C3CB06CDB003327A07C93E01C3CB067AA33C2ACF1ECAC319EB22CFBC
:2047E0001EC921D31E7AA33C7ECACB0673C9EB5E2356234E2346EB78B1C8C5E54E3ADF1E6B
:20480000FE6FCA0B07CD0FFFC30E07CDA004E123C10BC3F7060000000043502F4D204572B5
:20482000726F72204F6E20203A20244469736B20492F4F24496E76616C6964204472697678
:204840006524526561642F4F6E6C792046696C6524526561642F4F6E6C79204469736B24A2
:2048600046696C6520457869737473243F20696E2046696C656E616D652400000E02C38DF9
:20488000070E03C38D070E043EFF32CB1C612EFF227A073ACC1C32ED1E3AE71E3CC4FB1E59
:2048A0003ADF1EFE1BCA5E1CFE1FCA5E1CC3641C7B955F7A9C57D005C97B855F7A8C57D0BA
:2048C00004C90C0DC8298FC3C307CDF50934C02334C02334C9CDDE07EB0E03C3F507CDF5C0
:2048E0000911D01CC9CDDE07C3D9071ABEC023130DC8C3EB070C0DC81A771323C3F6074A8A
:20490000CD1BFF7CB5C85E235623228E1C232322901C232322921C23232322941C232296B1
:204920001C2323EB22BF1C21981C0E0DCDF5072A981CEB21A51C0E11CDF5072AAA1C7C2154
:20494000C51C36FFB7CA4A08360037C9CD18FFAF2A901C7723772A921C7723772377C93E34
:204960000132D61CCD27FFC37108AF32D61CCD2AFFB7C84FCD820879FE03DA8D070E01C33B
:204980008D073CC02A881CCDDB0A0E01C8CD700BE13ADF1EFE30C821CC1C3AC61CBEC2AE87
:2049A00008CDD10B3AD61CB7C00E02C38D07AF32DE1EC92AE11E0E02CD690A22B61C060023
:2049C000EB21CD1C7323722370C92A901C4E2346C52A921C5E235623462ACD1C3ACF1C4F8D
:2049E0007D937C9A7998E5D2F7082AA51CCDB007E1E32BE3C3E0082AA51CCDB907E17D9375
:204A00007C9A7998DA0E09E323E3E5C3F708E3E52AA51CCDB007E1D5C5E5EB2AB21C194417
:204A20004D22FE1CCD1EFFD12A901C732372C1D12A921C7323722370C179936F789A67CDCD
:204A40005B09444D2ABF1CEBCD30FF4D4422001DCD21FF2A8A1C4D44C324FF3AB41C4FC355
:204A6000690A21A71C4E3ACA1CB71F0DC26909473E08964F3AC81C0DCA8009B717C3770959
:204A800080C92ADB1E11100019C9CD8209093AC51CB7CA98096E60C9097E23666FC9CD62FB
:204AA0000932C41C4F0600CD8A0922CD1C7DB4C93AA71C4F2ACD1CAFCDC20722CD1C32CF71
:204AC0001C22D31C3AA81C4F3ACA1CA14732B81C21CD1CB677C92ADB1E110800190E047E69
:204AE00087F57A1F57F10F772B0DC2DF097AC9CDFD09237EC92ADB1E11210019C92ADB1E17
:204B0000110C0019C92ADB1E110F0019C9CD050AEB21110019C9CD0D0A7E32CA1CEB7EB7FC
:204B2000C22B0ACD2D0E4FCDC4107EFE81DA320A3E8032C71CCDFD093AA91CA632C81CC949
:204B4000CD0D0A3ACA1C773ADF1EFE16D2500A34EB7EFE80D03AC71C77C9CDFD0972232390
:204B600072C970230DC8C3620A0C0DC87CB71F677D1F6FC36A0A2A8C1C0104001620AF8645
:204B80002315C27F0AA8470DC27C0AC9CDEF092A961CBEC4A10A3AD71CB7C82ADB1EAF77C2
:204BA000C92ADB1EEB2AFE1ECD3D0BD2B50A2A921ECDDB0AC8E1E13E0AC3CB060C0DC82936
:204BC000C3BD0A11881C3ACB1C4F210100CDBC0A1AB512131AB412C92A861C3ACB1C4FCDCB
:204BE000690A7DE601C9CDFE0ACDF00AD0C38107110900197E17C9CDD80AC8C37C072A8C5A
:204C00001C3AD81C856FD024C92ADB1E110E00197EC9CD090B3600C9CDFD097EE61F77C981
:204C2000CD090BF68077C92AE11EEB2A8E1C7B96237A9EC9CD270BD813722B73C97B956F9E
:204C40007A9C67C90EFE2AB61CEB2AB01C7CE67F67CD3D0BD0C5CD760A2A9A1CEB2AB61C1F
:204C600019C10CCA840B0CCA8F0BBEC8CDD80AC0CD100C3EFF32DE1E329C1ECDA60BCDC342
:204C80000AC3F419BE77C82A961C3E01B677C977C93AC61C11861CCDC90A2AAC1C23EB2A53
:204CA0008E1C732372C92A901ECDDB0AC811921EC3C60A3AB11CE680C021E41C3ADF1E4707
:204CC0007EB8C823B7C2C00B3CC92A961C237EB7C921641CE521F11CCDBC0BCAB70A21F881
:204CE0001CCDBC0BCA260FE1C921DE1E7EB7C83600CD801621000022E11EAF32D81CC92A9E
:204D0000961C4ECDEF0971C92AA01C0E04C31B0C2AA01CC3190C2A9E1C0E017DA43CC8E5E7
:204D200011CC1CCDEB07E1C036FFC9D5110A00195E2356EBD1C9CDB3083E03C3460CCDF715
:204D40000ACD440B3E0521000022BB1C2A9E1CCD051D2AD81EC35B0CCD2B0C228A1CC92AF4
:204D60008C1CEB2A8A1C018000CD4BFF217A077E3CC83AE11EE60377C9CD200B23233EFF37
:204D8000772377C9CD8209C3970CCD840CC0E13E09C3CB0621E11E7E23BEC03CC921FFFF3F
:204DA00022E11EC9CDAA0CC3DC0C2AAC1CEB2AE11E2322E11ECD3D0BDA9D0C3AE11EE603D7
:204DC00006058705C2C20C32D81CB7C0C5CD360CC13ADE1EB7C0C3460BCDCC0C3ADE1EB727
:204DE000C8CDD10BCDE90BC3360C79E6073C5F5760690E03CD690A444D2A9C1C097E071DEC
:204E0000C2FE0CC9D5CDEA0CE6FEC1B10F15C20C0D77C93AF31E0707D8F5CD860D444D2A8F
:204E20009C1C545D09F1CA4BFFEBC34BFFC5CD4E0DC13AF31EE640C0C5CD860DEB2A9C1C32
:204E4000C1E519229C1CCD4E0DE1229C1CC9CDFE0A11100019C50E11D10DC8D53AC51CB7CD
:204E6000CA6B0DC5E54E0600C3710D0DC54E2346E579B0CA800D2AAA1C7D917C98D4040DCC
:204E8000E123C1C3580D2AAA1C0E03CD690A23C9CDCA0B3600CD100CCD160CCD860D444D57
:204EA0002A9C1C3600230B78B1C2A30D2A941C772AAE1CEB2A9C1C732372CD4C082A8E1C02
:204EC0003604233600CD9D0C2AA21C22D31C0EFFCDA40CCD940CCA130DCDFE0AEB2AD31C16
:204EE0007CA53CEBC4001F3E21BECACE0D3EE5BECACE0D3E20BECA0A0E3E10A6C2040E0E6B
:204F000001CD4E0DCD340BC3CE0D110C00197E2A941C77C3040E3AC21CC3CB06C5F53AA99B
:204F20001C2F4779A04FF1A091E61FC1C9CD0D0A0E10410CC5C10DAF2B05BEC2420E0DC266
:204F4000380E7932C41C3AC51CB778C24F0E1FC5E56F26003AA71C573E07924FCD690A45BA
:204F60003AA91CB8E1DA350ECDFD094E2FE61FA1B0C1C92ADB1E22E31E7932E51ECD141F58
:204F80003EFF32C21CC90E0FC38D0E0E0CCD730ECD9D0CCDB30BCC4C08AF32E21CCDD91F53
:204FA000C2200F0E00CDA40CCD940CCA200F2AE31EEB1AFEE5CAC00ED5CD270BD1D2200FBE
:204FC000CDFE0A3AE51E4F06007EFEE5CC530F79B7CA130F1AFE3FCA0C0F78FE0DCA0C0F1B
:204FE000FE0CCAF40EFE0E1ACC1D0F96E67FC22D0FC30C0F1AC54ECD1C0E473AE21C3CCA3D
:20500000440FAF32E11C78C1B7C2990E1323040DC3CF0EAF32C21C327A074704C9E63FC9AB
:20502000CD530FCD9D0C3EFF4704C3CB0678B7C2990E7EB7C2990E3AE11CB7CA990E32E206
:205040001CC30C0FB0C101990EC5C023237EB7C0CD5B0FE52ADF1C24C2610F2AE11E22DFBC
:205060001CE1C9CDD60917D8CD8B0EC8CA840FCDE60A2ADB1ECD2110CA7E0FC38A0FCD994D
:205080000EC36C0FCD8B0ECA160ECDFE0A36E5CD3E0C0E00CD2D0DCDB620CD990EC3870FE4
:2050A00050592AAA1C7B957A9CD2D60F13C5D5424BCDEA0C1FD2CE0FD1C179B0CAA20F0B6E
:2050C000D5C5CDEA0C1FD2CE0FC1D1C3A20F173CCD0C0DE1D1C979B0C2BA0F210000C91637
:2050E00080CDF80F0C0DCA3E0C7EA0C5471AE67FB077C12313C3E50FD506002ADB1E092387
:205100007ED624CC0D102BEBCDFE0AC1C911B31E1AF60112C92ADB1ECD2110C03E09C37F81
:20512000190E0B233E3F96E67FC80DC22310B7C92ADB1E7E0110000977C9CD1510CD30105E
:2051400022E31ECD18100E0C2AE31ECD790ECD900EC27D19CD3010CD8B0EC8CDE60A0E10C5
:205160001E0CCDDF0FCDB620CD990EC25E10C3160ECDD60932D51CCD8B0EC80E001E0CCD1A
:20518000F80FCDF5073AD51CE640CA9510E5CD0D0A7EE12377CD3E0CCD990ECA160EC37B06
:2051A00010CD860EC8CD200B5FE52B2B56D5CDFE0AEB2ADB1E0E20CDF507CD2D0E4FD1E116
:2051C000732B2B720600EB210300191A91CAD91078D2D7103E80B677C97EB7C036003AC4FA
:2051E0001CB7C83680C97E23B62BC01A7713231A771B2BC9E5110300197EFE81DA0211E60A
:205200007F77E1C9AF327A07CDD80AC0CD090BE680C0CD840CCAB911CDFD1D4F46C571CDA6
:20522000F41079B8DCC410CD3311CDFD09C14E70C3C410CD860EC8011000CDAF1B0E103A66
:20524000C51CB7CA5A117EB71AC24D1177B7C253117E12BEC2B911C36F11CDE610EBCDE640
:2052600010EB1ABEC2B91113231ABEC2B9110D13230DC23F11EB01ECFF09E5CD2D0ED1CD68
:20528000BF117712C501030009EB09C105CAA01105CAA1111ABEDAA011B7C2A111CDDC10E6
:2052A000EB1A77CDFE0A110B00197EE67F77CD200B0E01CD320DC33E0CCD790CC3260F069E
:2052C00001BEC004EBBEEBC004C921FFFF22DF1CC92ADF1C3EFCA56F2B22E11EC921DF1C81
:2052E000CD970CC4D1112ADB1EE521851C22DB1E0E01CD730ECD990EE122DB1EC8110D0000
:205300001972237EF5E5E63F77233E010E1172230DC20E123D4ACCA717B70E0ACA0E12CD4F
:20532000340B0E00112000CDE10FE1F177CDB620C3200BCDFD097E4F0CCD1C0ECA9912E55B
:20534000C5CD0411C1E13A7A073CC83E1FA17723237E32C91CC25F12347EE63FCA8812CDBA
:20536000CA11CD860EC278123AC11C3CCA8812CDDD11CA8812C37B12CDA510CDFF0BCD1643
:205380000AAF32CA1CC3CB06CD090B3AC91C772B2B7E3DE61F77C3CF0634CD2D0E4FBED2F1
:2053A000AB12353AC11C3CCACF0634CDF410CDC410C37B12CD8A0C3EFF32C11CCD160A3A3D
:2053C000CA1C21C71CBEDAD812FE80C2CF06CD33123A7A07B7C2CF06CD9E09CACF06CDB0A1
:2053E00009CD0413DA400AC2F612CD520CCDCA08CD5F08C3400A21000022BB1C3E01CD029F
:205400001DC3400A3AB81C473AB51C4FA0F53ABD1CFE02DA1F133D32BD1CF137C0AFC9F166
:20542000CA291379B7C8F601C9792F5721CA1C3ABE1CFE02DA231386FE80DA3F133E80C5D1
:2054400046367FC5E5F53AA81C5F1C2FA047E13AC11CB7CA5E133AC71CA2BCDA5F137C9066
:205460004FBBDA66134B79E1C170C121BE1C5690BAD2751357792FA232BD1CCA2613F53A65
:20548000C11CB7CA8C13CDBA1ACD520CF167CD5B097CFE014FC445FFAFC9CD090BE67F77B3
:2054A000C9CD090BE640F57EF64077F1C93E0032C11CCDF70A3AD71CB73E03C27F192ADBA3
:2054C0001ECDE90ACD8A0CCDE817CD160A3ACA1CFE80DADD13CD33123A7A07B7C0CD9E09B2
:2054E000CAFB1321CC1C11BA1C0E03CDEB07CAF6133EFF32B91C0E00C34F14CD620932C49B
:205500001C010000B7CA0F144F0BCD8A09444DCDA00F7DB4C21C143E02C3CB0622CD1C22DF
:20552000BB1CAF32B91C3ACC1C32BA1CEB2ADB1E011000093AC51CB73AC41CCA4514CD04AC
:205540000B73C34D144F060009097323720E02C5CDB0093ADF1EFE28C2B114793D3DC2B195
:2055600014C1F52ACD1CE521B51C5E1C57D52A9E1C3D32B91C77CD580CD1D5AF772314F20C
:205580007C14571DC27C142AD31C0E0222CD1CC5CD080CCDCA08C1CD6A082ACD1CD1D5196A
:2055A0003AA81CA50E00C28C14E1E122CD1CCD520CD13ACA1C57D5CD0413DAE214CAC81469
:2055C0003E02CD021DC3E214CD520CCDCA08CD080CC1C53ACD1C21A81CA6CADF140E00CD6F
:2055E0006A08C17821C71CBEDAEF1477340E020D0DC2F714CD9A13CDA113CC9A13C3400A3E
:20560000C52ADB1EEB212100197EE67FF57E17237E17E61F4F7EE6F023B60F0F0F0F477EB5
:20562000E6FCE12E067CC2C91521200019773ADF1EFE63CA8715D5CD840CD1CA7715210E00
:2056400000197896E63FC27715210C00197EB9CABD15CD1C0EC27715C5CD2D0EC1B9D26CCD
:2056600015D1D51CC26C151CD1C3CF06714FCDF410CDC410C3BD15C5D5CD0411D1C12E0385
:205680003A7A073CCAC915CDCA11210C0019E5567123237E5FD5E640B077CDA1103A7A0753
:2056A0003CC2B815D1E1C1C5E5D52E040CCAC215CDDD112E05CAC215C1C1CDFF0BC1AFC333
:2056C000CB06D1E372232373E1C17DC3CB060EFFCD0015CCB412C90E00CD0015CCAD13C9D8
:2056E000EB194E0600210C00197E0FE680814F3E0088477E0FE60F8047210E00197E87871F
:205700008787B78047F57E1F1F1F1FE6036FF13E008DC95F79965723789E23F5B257F17BA6
:205720009EC9732B702B71C9CDF509E57223722372CD8B0ECA5316CDFE0A110F00CDE015F3
:20574000E1E5CD1316D42216CD990E3E00327A07C33416E1C9EB112000CDE015212100192C
:205760007123702377C932CC1C77572A881CCDDB0A5FD5CDFF07E1D286072DC921C61C73A7
:205780003AC61C21CB1CBEC28D16FEFFC0CD6616C8CD900D2A961C7EE601F58677F1C4A6FC
:2057A0000BCDC30AC9AF32D71CC3C316017F802ADB1E110700EB19237EA032D71C7EA177D0
:2057C000CD180B21000022DF1CAF32E11C3D32DD1E2ADB1E7E32E31CE61F3D32C31CFEFF31
:2057E000CAE61632C61CCD80163AE01E2ADB1E77CDB30BCC160CCDFC16C33617CDCA0BC8C8
:205800003600CD160C2AE11EE5CD4C08CD9D0C0E00CDAA0C21DE1E7EB7CA2B173600E13A7E
:20582000DF1EFE30C8CDF10BC3D10BCD270BDA0F17E122E11EC921F01E7EB7C836002A882F
:205840001C3E103D29D25817F5E521CB1CCD6616CD5F17C4FC16E1F1B7C24317C380162ACB
:20586000A01C7DA43CC8110400197EB7C92A941C7EE67FC90E00C37B170E04CDA717B7C01E
:20588000113E0CD511F41EE5D50E00CD4EFF0E04CDEB070E04D1E1C2F507E1C9CDFE0A09F8
:2058A00011CE06D5C384173AE11EE603FE03C8472A8C1C116000197ED621C078875F8787A1
:2058C000833C815F19AFC9CDD517C02A941C79A6C2D80A3CC93AA91CF6E02F47CDFD097EE1
:2058E000A0C023237EE63FC90E20CDCB17C0CD090BE640C0CDFD09463600E523234E360034
:20590000C5CD860EC47917AF327A07C1E170232371C93AA11EC3CB0621FFFFCDF419AF32B2
:20592000DA1E21800022D81EC3520CCD7C163AC61C32DA1EC9CD120BCDA516CD15103AE0A9
:205940001EB7CA4E183EFE32E01C3C32E11CCDA110CD7C1821E11CBEC8773AE01CFEFEC879
:20596000CDD1113E8032D71C2ADB1E36000E0FCD730ECD990ECDA410CD7C18C9CD940CC87D
:20598000CD0D0A7E3CC28C181B1B1A77E13AD71C17D2A7182ADB1E110A00197EE680C2A7E2
:2059A0001832D71CC3260FCDFF0B0E40CDC717CC741711901EC3C60ACDAC16CDFF0BCD9670
:2059C0000ACD04113A7A073CC8C3B41AEBAFF57EFE3FC2E018CD8016CDF0160E00C3F41874
:2059E000CDFD097EFE3FCAEF18CD180BCD120BCDA5160E0FF1F5CA0B192AE11EE53EFCA508
:205A00006F22E11ECD360CE122E11EF1215F0CE5CA8D0E3AE51E4FCD730EC3990E2AE31EAF
:205A200022DB1EF601C3CE18CDA516C3630FCDAC16CD8C0AC3B412CDAC16CD8C0AC3AD13FE
:205A4000CD180BCD120BCDA516CD1510CDCA11CDA110CD940CB7CA6019CD2D0EBED27D1937
:205A6000F5F1D4DD11CD940CC8CDFF0B0E50CDAC180E20CDC717C0CD7917C3A1133E084F81
:205A8000327B07CD260FC39307CDA516C33A102A881CC3C3193AC61CC3CB06EB22D81EC37B
:205AA000520CCD80162A9C1CC3C3192A861CC3C319CD1510CDA516CD7110C3160ECD801627
:205AC0002A981C227A07C93AC31CFEFFC2D5193AE01EC3CB06E60F32E01EC9CDAC16CD8C14
:205AE0000AC3CE15CDAC16CD8C0AC3D715CDAC16C32816EB7D2F5F7C2F2A881CA4577DA33B
:205B00005F2A861CEB22881C7DA36F7CA26722861C3EFF32CB1CC97BB7CA260FFE81D2260A
:205B20000F32E61EC97B32E71EC9CD7C162A9C1CEBCD860D0100001AB7CA441A1FD23C1A0F
:205B400003C3381A132B7DB4C2371A2AAA1C237D916F7C98673AA71C4FAFCDC207EB2A8A70
:205B60001C7323722377C921B31E7EF680771CC2C8027EF64077C3C802CD3617CD48FFCDE6
:205B800071082A881C3E103D29D2AF1AF5E55FCD7C163ADF1EFE30CAA01ACD130DC3AA1A7A
:205BA000CDBA1A3AC31C3CC2AD1ACD100CE1F1B7C2871AC9CD48FFCD71083AB51CB7C83EA6
:205BC00004C3021DEB7EFE63D0EB219C1E856FEB237EFEFED2DF1AEB5E2356EBC3C31947A5
:205BE000237E1204C823137E12C9210F1BE5EBE523234E2346235E2356237E23666FE37EA6
:205C0000E56F87852100FF856FE3237EE1E3C9EB2ACB02F9EBC9CDA516CD15100EFFCD001C
:205C200015C2260FCDFE0A110F00CDE015CDF509CD1316DA260FB2CA260FCDE60ACD3E0C4C
:205C4000CDE817CD8B0ECA160ECDB91BDA641BF50E00CD2D0DF1CA6A1BCDFE0A36E5CDB66D
:205C600020CD3E0CCD990EC3461BCD160ACD6209CDD31BCD2D0EBE77F5CD0D0A7E3C12F1A2
:205C8000EBC4DC103AC41CB7CCDC10010B00CDAF1BEB7EE67F7723131A772336002323137F
:205CA00013130E11CDF5070E01CD2D0DC3611BCDFE0A09EB2ADB1E09C9010E00CDAF1B7E9F
:205CC000E63F471AB8C02B2B1B1B1A4ECD1C0EC81ABEC93C21C51C34CADC1B8735CD82092B
:205CE0004F0600093E10B9C870230CC3E61BCD7C16CD6D17C3CB06CDA516CD1510CD5A0A25
:205D0000CD860EC8CD8209010800CD620AE50E00CDA717B7C21E1CD1EB0E08C3F507E1011C
:205D20000800C3620A21F41ECD421C36000EFFC34EFF0E00CD4EFF21F41EEBCD421C1AC32D
:205D4000CB060E04C3F507210000EB0E06C3F5077AA33C2AAC1ECAC319EB22AC1EC921FF0F
:205D6000FF227A073ADD1EB7CA7B1C2ADB1E3AE31C77110800193AD71CB6772ACB02F92ABB
:205D80007A077D44C9E5000000000000000000000000000000000000000000000000000013
:205DA0000000000000000000000000000000000000000000000000000000000000000000E3
:205DC0000000000000000000000000FFFF00000000000000000000000000000000000000C5
:205DE000000000000F10111316171E2363646667001415212228290010120000000000007F
:205E000000002AA01CF5CDCA1D3ACD1C5FA032FB1C7BA132CD1C22FC1CCD2B0C228A1CCD7E
:205E2000D11D7E3CCA6A1DF1F5FE04D2351DCD0C1ECA961DAFCDDA1DFE05CA421D7EB7CA4B
:205E40006A1D36002ACD1CE53ACF1CF5CDD11DEBCDF50721CB1C3ACC1CBEC469163E01CCCE
:205E6000E21DC1D1CDC108CD8016F1FE04D0F5FE02C27E1D21B91C3AB81CBED2881DCD1C61
:205E80001E36FF3E02C38B1D3C77AFCDE21DCDD11DCDF50736003AFB1C3C1180002180FF5E
:205EA000193DC2A01DEB2A8A1C19F1FE03C2B41D228C1CC9EB2AD81E018000FE01CA4BFF82
:205EC000EBCD4BFFCDDA1D36FFC93AB51C472F4FC92AFC1C11CC1C0E04C91104002AFC1CF8
:205EE00019C9F5CDCA080E01F13DCA6A08F45F08CDDA1D232311FE1C0E04C3F5073AB11C4B
:205F000017DA2D0E3EFF32241EC32D0EFE03C2EB073A241E3CC2EB07E1C37E1DAF32241E23
:205F20002AFC1CC90000000000000000000000000000000000000000000000000000000056
:205F4000000000000000000000000000000000000000000000000000000000000000000041
:205F6000000000000000000000000000000000000000000000000000000000000000000021
:205F80000000000000000000000000000000000000000000000000020600AFC90000000081
:205FA0000031000000000000000000000000000000000000000000000000000000000000B0
:205FC000000000000000000000000000000000000000002400009C1E800000000000000063
:205FE000000000000000010000FFFFFF0000000000000000FFFFFFFFFF0000C37B00060064
:20600000E5D5CD4E1FE1119D1E010400CD4BFF22D31CE1C9B7C8FE0CDA4A1F3E02CA221FF1
:206020003E03329C1EEBCDD21FC8EB3ADF1EFE10CA4E1FFE23CA3D1FFE14D24E1F3E023251
:206040009C1EE5CD2110E1C24E1FAF329C1E7E329D1E23EB210000E620C28C1F01080B0DCA
:20606000C5CA741F0D0DCA741F298FF5781FDA751FF1298FF51AE67FD6201FD27F1F174FCD
:206080000600F109CE00C11305C25F1F229E1E219D1EE6030F0FB677E620C2C91F1AE61F5C
:2060A0004F13131AE63F0F0F0F57E607477AE6E0B14F3AA91C1FD2C41FF5781F47791F4FA7
:2060C000F1C3B51F78E6010F0F0FB6771103001971C92AA21C7DB43CC9CDD21FC83A9C1E80
:2060E0003CC83AE51EB7C82A8E1C5E2356EB3DC2F51F2AAC1C22DD1C2AA21C444D2ADD1C8E
:20610000EB2AE11EE5CD3D0BD1B5C8E513EBE52B29290911040019119D1E1AAEE61FC250FC
:2061200020CD9E20CA6720EBE123E32B7DB4E3E5EBC21320E1E1CD940CC0CDB30BC03EFF16
:20614000329C1E2A8E1C5E2356EB2BCDD411AFC93AE01C3CCA90203CC22720CD9E20C227C3
:20616000207EE61FC227202AE11EEBE12B22E11EC17DE603FE03C87BE6FC5F7DE6FC6FCDEB
:206180003D0BB5C8CDCC0C3A9C1E3CCC9D0CAFC97EFEF5C22720EBE122DF1CC329203A9C33
:2061A0001EB7C84F0F0F0FF690471AAEA0C0E52313CDEB07E1C9CDD21FC821D91C119D1EE5
:2061C000010400E5D5C5CD4BFF2AA21CE5CDFE0ACD4E1F2AE11E2929D119C1D1D5C5CD4B9F
:2061E000FFC1E1D1C34BFF00421049224222209124089084240080402210000000000000F8
:2062000000000000055555555555555555555555555555555555054110000104104804908D
:206220008404804249000124220000000480024084210010000110400801010848491041C4
:20624000201244912242420000222409224820424404048921082484200004481024891097
:206260009042442121012444010802110900110491204420888400020024102242084844D4
:206280002109240908480448410488490849202208108489112110910821088908210891EE
:2062A0001212211100800442224491208090042102120212422249242492412244242121BA
:2062C000241048881000010924080000000000000000000000000084082491210900000009
:2062E00048010491200802200842088242442441022080124482084241104892044424104C
:20630000081012004902480204240412202000422124244882022108088800904822249260
:206320002120800008410101010088244109222442010800800480082244841124901024DA
:2063400081002440910044901008202044020000881091044221249040124840912412016F
:20636000081124921010444421248024000084901249244412081002481200224889240247
:206380004110921240021021008408408888110488800220200481048421242012220901AA
:2063A000242491020820821240449080010004448402022120048908212489212481112442
:2063C000021041082090444410224024084244908022248422492492484249081011020805
:2063E0008420201080010404210120800420092424924409249240490881249100884800DD
:20640000011000800000020122092042482408441082488204080440011089040084920043
:2064200001101124890910000010824041241210800902492249248924008844449212480F
:2064400084912492492410922084402002420800804484080410244490810810004904923E
:2064600049092124848424810842124491022488002420844088804242244820848849097B
:206480002484884220124910000000008084440080491082109210224000091001210840C5
:2064A00004241200000000000000000020124109212010008484422441120090904008208C
:2064C0008891042492249209121210412488808109241240010084220420422240200000FA
:2064E000442102000882001220090441249124884492082120492221011200924249249239
:206500001009212092409012222449212492492492489109108448249249224924924924FD
:20652000424844924920101100841090891011102401088040409248104849244822481005
:20654000080202000800000200209092092449249208909249241012208000021242020006
:2065600002022100049249220822040920424442410488122480844000000000000000008F
:20658000000000000000000890849242049108422224884240124481049080088121011234
:2065A0000812010409210910909111200000000000000000000000000000400000000000E7
:2065C000000100000000050882402108842108444440101080800400124008000008801037
:2065E00000081108404921110000409200108824042224824100004244042480001089005D
:20660000912400821A1A1A1A1A1A1A1A1A1A1A1A1A1A1A1A1A1A1A1A1A1A1A1A1A1A1A1A6B
:206620001A1A1A1A1A1A1A1A1A1A1A1A1A1A1A1A1A1A1A1A1A1A1A1A1A1A1A1A1A1A1A1A1A
:206640001A1A1A1A1A1A1A1A1A1A1A1A1A1A1A1A1A1A1A1A1A1A1A1A1A1A1A1A1A1A1A1AFA
:206660001A1A1A1A1A1A1A1A1A1A1A1A1A1A1A1A1A1A1A1A1A1A1A1A1A1A1A1A1A1A1A1ADA
:206680000000000000000000000000000000000000000000000000000000000000000000FA
:20700000000B0F000000000000000000000000000000000000000000000000000000000056
:20702000000000000000000000000000000000000000000000000000000000000000000050
:20704000000000000000000000000000000000000000000000000000000000000000000030
:20706000000000000000000000000000000000000000000000000000000000000000000010
:207080000000000000000000000000000000000000000000000000000000000000000000F0
:2070A0000000000000000000000000000000000000000000000000000000000000000000D0
:2070C0000000000000000000000000000000000000000000000000000000000000000000B0
:2070E000000000000000000000000000000000000000000000000000000000000000000090
:20710000C35501C37201C30302C30B02C31502C3F601C3F601C3F601C34B02C32502C34E75
:2071200002C35302C35B02C36A02C37803C3F601C35802C32002C3F101C3F101C3F101C30A
:20714000F101C36102C32302C32302C36502C32302C3F601C3F601C3F601C3F601C300008A
:20716000C30000000000000000000000000000E00000000B05FEFFFEFFFFFF000000000064
:207180000000000000000000F10000000B07FEFFFEFFFFFF000000000000000000000000F4
:2071A00000020100000B09FEFFFEFFFFFF00000000000000000000000000130100000B0B96
:2071C000FEFFFEFFFFFF00000000000000000000000000240100000B0DFEFFFEFFFFFF0082
:2071E0000004051F01BF07FF01F0000000010002030004051F01DF07FF01F000000040006B
:2072000002030004051F01DF07FF01F0000000800002030004051F01DF07FF01F0000000E6
:20722000C00002030004051F017F03FF01F00000000001020363007C009500AE00C70000FF
:20724000000000000000000000000000000000000000000000310001CD08043EE2D3103EE2
:2072600080D312D314AF320300320400213F04CD1E043100012103002201002A62FE22062A
:20728000003EC33200003205000624215C00CDBF03215C00360123119A04010B00CD650288
:2072A000115C000E0FCD05003CCAD201110001D50E1ACD0500115C000E14CD0500B7D1C20D
:2072C000CA0121800019EBC3AF01FE01C2DB01C3000121A504CD1E04C3010221C104CD1E1A
:2072E00004C301020E09CD05000E01CD0500C372010E34C3F8010E39CD1502213504CD1E56
:207300000418FEDB14E610C83EFFC9DB14E610CA0B02DB16C9DB12E601CA150279D318C948
:207320003EFFC9AFC921000079FE05D032E404216300FE00C8217C00FE01C8219500FE02E4
:20734000C821AE00FE03C821C700C9010000ED43E504C9ED43E704C96069C9696022E904EB
:20736000C9213501C9EBEDB0EBC93AE404FE04CAAE02E5C5CD13043E40D3CD3AE704D3C7DF
:207380003E01D3C53AE504D3C93AE604D3CB3E20D3CFCDA6022AE9040EC00600ED92CD08E1
:2073A00004C1E13E00C9DBCFE608CAA602C9E5D5C53AE504673AE704CB27CB14F60F6F11C9
:2073C000000819E5CDFD030E1F21E0F0EDBF0E14210002EDBF0E13E1EDBFAF6F3AE704E648
:2073E00007CB27F6F0670E12EDBF0E11ED5BE90426003E0FB26FEDBF0E103EF0B2676BED2A
:20740000BF2180800E15EDBF0000CD0804C1D1E13E00C9E5D5C53AE504673AE704CB27CB7F
:2074200014F60F6F11000819E5CDFD030E1F21E0F0EDBF0E1C210002EDBF0E19E1EDBFAFBA
:207440006F3AE704E607CB27F6F0670E18EDBF0E1BED5BE90426003E0FB26FEDBF0E1A3E96
:20746000F0B2676BEDBF2180800E1DEDBF0000CD0804C1D1E13E00C93AE404FE04CA13039D
:20748000E5C5CD13043E40D3CD3AE704D3C73E01D3C53AE504D3C93AE604D3CB3E30D3CF19
:2074A000CDA6022AE9040EC00600ED93CDB703CD0804C1E13E00C9DBCFE680C2B703C93658
:2074C000002305C2BF03C9E5C53E0A21EB047723360023C610FE0AC2CE03AFD3F121EB044E
:2074E0000EF40610ED933E10D3F121EB040EF40610ED930EF021FFBBEDBFC1E1C9C5E50E92
:20750000082EFFED6EE1C1C9C5E50E082EFEED6EE1C1C9C5E50E082E00ED6EE1C1C97EFE8E
:2075200000C84FCD15022318F5434350206C6F6164204F4B00204661696C656421210043E6
:207540006F70797269676874203139373920286329206279204469676974616C20526573C4
:2075600065617263682020202020200D0A43502F4D203320666F722054696E795A323830B0
:2075800020332F32352F313820332E356D65672052414D6469736B0D0A0043435020202083
:2075A0002020434F4D0D0A42494F532063616E2774206F70656E204343502E434F4D202462
:2075C000000D0A42494F53206861732062616420736563746F7220696E204343502E434F67
:2075E0004D20240000000000000000000000000000000000000000000000000000000000FA
:2076000000000000000000000000000000000000000000000000000000000000000000006A
:2076200000000000000000000000000000000000000000000000000000000000000000004A
:2076400000000000000000000000000000000000000000000000000000000000000000002A
:2076600000000000000000000000000000000000000000000000000000000000000000000A
:20800000000000000000000000000024924924924924924924924800008800004400002277
:20802000000011000008800000000000000000000002AA00000020000241040000804100D3
:20804000100000404209249000842480004010000241041040420110084204021009008086
:20806000081100020000020001000000080088001000001000080000004021081008402445
:20808000024004040400410008000000000000040000000000000000000000000000000045
:2080A0000000000000000000000000000000000000000000000000000000000000000000C0
:2080C0000000000000000000000000000000000000000000000000000000000000000000A0
:2080E000000000000000000000000000000000000000000000000000000000000000000080
:2081000000000000000000000000000000000000000000000000000000000000000000005F
:2081200000000000000000000000000000000000000000000000000000000000000000003F
:2081400000000000000000000000000000000000000000000000000000000000000000001F
:208160000000000000000000000000000000000000000000000000000000000000000000FF
:208180000000000000000000000000000000000000000000000000000000000000000000DF
:2081A0000000000000000000000000000000000000000000000000000000000000000000BF
:2081C00000000000000000000000000000000000000000000000000000000000000000009F
:2081E000000000000000000000000000001A1A1A1A1A1A1A1A1A1A1A1A1A1A1A1A1A1A1A91
:2082000000000000000000000000000000000000000000000000000000000000000000005E
:2082200000000000000000000000000000000000000000000000000000000000000000003E
:2082400000000000000000000000000000000000000000000000000000000000000000001E
:208260000000000000000000000000000000000000000000000000000000000000000000FE
:20900000097469746C650927526F6F74206D6F64756C65206F662072656C6F6361746162E9
:209020006C652042494F5320666F722043502F4D20332E30270D0A0D0A093B207665727352
:20904000696F6E20312E3020313520536570742038320D0A0D0A7472756509657175202DC0
:20906000310D0A66616C736509657175206E6F7420747275650D0A0D0A62616E6B6564095C
:2090800065717520747275650D0A090D0A0D0A3B09092020436F7079726967687420284386
:2090A000292C20313938320D0A3B0909204469676974616C2052657365617263682C204943
:2090C0006E630D0A3B09092020202020502E4F2E20426F78203537390D0A3B09095061633A
:2090E000696669632047726F76652C204341202039333935300D0A0D0A0D0A3B2020205464
:209100006869732069732074686520696E76617269616E7420706F7274696F6E206F662082
:20912000746865206D6F64756C61722042494F5320616E642069730D0A3B096469737472BD
:2091400069627574656420617320736F7572636520666F7220696E666F726D6174696F6EC0
:20916000616C20707572706F736573206F6E6C792E0D0A3B09416C6C2064657369726564FD
:20918000206D6F64696669636174696F6E732073686F756C6420626520706572666F726D95
:2091A00065642062790D0A3B09616464696E67206F72206368616E67696E672065787465F3
:2091C000726E616C6C7920646566696E6564206D6F64756C65732E0D0A3B095468697320B4
:2091E000616C6C6F77732070726F647563696E6720227374616E646172642220492F4F2036
:209200006D6F64756C657320746861740D0A3B0963616E20626520636F6D62696E6564208F
:20922000746F20737570706F7274206120706172746963756C61722073797374656D200D44
:209240000A3B09636F6E66696775726174696F6E2E0D0A0D0A6372096571752031330D0A28
:209260006C66096571752031300D0A62656C6C0965717520370D0A63746C510965717520C7
:209280002751272D2740270D0A63746C5309657175202753272D2740270D0A0D0A63637093
:2092A00009657175203031303068093B20436F6E736F6C6520436F6D6D616E642050726FAA
:2092C000636573736F722067657473206C6F6164656420696E746F20746865205450410D56
:2092E0000A0D0A096373656709093B2047454E43504D2070757473204353454720737475D1
:20930000666620696E20636F6D6D6F6E206D656D6F72790D0A0D0A0D0A202020203B207692
:2093200061726961626C657320696E2073797374656D206461746120706167650D0A0D0A89
:2093400009657874726E2040636F7665632C4063697665632C40616F7665632C40616976C7
:2093600065632C406C6F766563203B20492F4F207265646972656374696F6E2076656374D4
:209380006F72730D0A09657874726E20406D78747061090909093B2061646472206F66206F
:2093A00073797374656D20656E74727920706F696E740D0A09657874726E2040626E6B621E
:2093C00066090909093B2031323820627974652073637261746368206275666665720D0A80
:2093E0000D0A202020203B20696E697469616C697A6174696F6E0D0A0D0A09657874726E2B
:20940000203F696E69740909093B2067656E6572616C20696E697469616C697A6174696F4B
:209420006E20616E64207369676E6F6E0D0A09657874726E203F6C646363702C3F726C635B
:20944000637009093B206C6F616420262072656C6F61642043435020666F7220424F4F549E
:2094600020262057424F4F540D0A0D0A202020203B207573657220646566696E65642063C1
:20948000686172616374657220492F4F20726F7574696E65730D0A0D0A09657874726E207A
:2094A0003F63692C3F636F2C3F636973742C3F636F7374093B20656163682074616B652048
:2094C00064657669636520696E203C423E0D0A09657874726E203F63696E69740909093B2C
:2094E0002028726529696E697469616C697A652064657669636520696E203C433E0D0A096E
:20950000657874726E20406374626C0909093B20706879736963616C20636861726163744C
:20952000657220646576696365207461626C650D0A0D0A202020203B206469736B20636FF6
:209540006D6D756E69636174696F6E2064617461206974656D730D0A0D0A09657874726E03
:2095600020406474626C0909093B207461626C65206F6620706F696E7465727320746F20BB
:2095800058445048730D0A097075626C69632040616472762C40726472762C4074726B2C65
:2095A0004073656374093B20706172616D657465727320666F72206469736B20492F4F0DFE
:2095C0000A097075626C69632040646D612C4064626E6B2C40636E7409093B2020202027B7
:2095E000272020202020202027272020202727202027270D0A0D0A202020203B206D656D92
:209600006F727920636F6E74726F6C0D0A0D0A097075626C6963204063626E6B0909093BC5
:209620002063757272656E742062616E6B0D0A09657874726E203F786D6F76652C3F6D6F25
:20964000766509093B2073656C656374206D6F76652062616E6B2C20616E6420626C6F6370
:209660006B206D6F76650D0A09657874726E203F62616E6B0909093B2073656C6563742046
:209680004350552062616E6B0D0A0D0A202020203B20636C6F636B20737570706F72740DC7
:2096A0000A0D0A09657874726E203F74696D650909093B207369676E616C2074696D65205E
:2096C0006F7065726174696F6E0D0A0D0A202020203B2067656E6572616C207574696C698B
:2096E000747920726F7574696E65730D0A0D0A097075626C6963203F706D73672C3F7064D9
:209700006563093B207072696E74206D6573736167652C207072696E74206E756D626572C9
:209720002066726F6D203020746F2036353533350D0A097075626C6963203F7064657272BF
:2097400009093B207072696E742042494F53206469736B206572726F72206D65737361676D
:2097600065206865616465720D0A0D0A096D61636C6962206D6F64656261756409093B208E
:20978000646566696E65206D6F646520626974730D0A0D0A0D0A202020203B204578746511
:2097A000726E616C206E616D657320666F722042494F5320656E74727920706F696E747305
:2097C0000D0A0D0A097075626C6963203F626F6F742C3F77626F6F742C3F636F6E73742C6C
:2097E0003F636F6E696E2C3F636F6E6F2C3F6C6973742C3F6175786F2C3F617578690D0A71
:20980000097075626C6963203F686F6D652C3F736C64736B2C3F737474726B2C3F737473C4
:2098200065632C3F7374646D612C3F726561642C3F77726974650D0A097075626C69632080
:209840003F6C697374732C3F736374726E0D0A097075626C6963203F636F6E6F732C3F6119
:20986000757869732C3F6175786F732C3F647674626C2C3F646576696E2C3F647274626CF9
:209880000D0A097075626C6963203F6D6C74696F2C3F666C7573682C3F6D6F762C3F746913
:2098A0006D2C3F626E6B736C2C3F7374626E6B2C3F786D6F760D0A0D0A0D0A202020203BF4
:2098C0002042494F53204A756D7020766563746F722E0D0A0D0A09093B20416C6C2042493F
:2098E0004F5320726F7574696E65732061726520696E766F6B65642062792063616C6C69A5
:209900006E672074686573650D0A09093B09656E74727920706F696E74732E0D0A0D0A3F42
:20992000626F6F743A096A6D7020626F6F74093B20696E697469616C20656E747279206FE6
:209940006E20636F6C642073746172740D0A3F77626F6F743A096A6D702077626F6F74092A
:209960003B207265656E747279206F6E2070726F6772616D20657869742C207761726D2071
:2099800073746172740D0A0D0A3F636F6E73743A096A6D7020636F6E7374093B2072657485
:2099A00075726E20636F6E736F6C6520696E707574207374617475730D0A3F636F6E696EBE
:2099C0003A096A6D7020636F6E696E093B2072657475726E20636F6E736F6C6520696E7048
:2099E0007574206368617261637465720D0A3F636F6E6F3A096A6D7020636F6E6F75740961
:209A00003B2073656E6420636F6E736F6C65206F7574707574206368617261637465720D83
:209A20000A3F6C6973743A096A6D70206C697374093B2073656E64206C697374206F757459
:209A4000707574206368617261637465720D0A3F6175786F3A096A6D70206175786F75747D
:209A6000093B2073656E6420617578696C6C69617279206F75747075742063686172616321
:209A80007465720D0A3F617578693A096A6D7020617578696E093B2072657475726E20611A
:209AA0007578696C6C6961727920696E707574206368617261637465720D0A0D0A3F686F62
:209AC0006D653A096A6D7020686F6D65093B20736574206469736B7320746F206C6F6769A5
:209AE00063616C20686F6D650D0A3F736C64736B3A096A6D702073656C64736B093B2073EF
:209B0000656C656374206469736B2064726976652C2072657475726E206469736B2070618B
:209B200072616D6574657220696E666F0D0A3F737474726B3A096A6D702073657474726B94
:209B4000093B20736574206469736B20747261636B0D0A3F73747365633A096A6D702073C0
:209B60006574736563093B20736574206469736B20736563746F720D0A3F7374646D613AFD
:209B8000096A6D7020736574646D61093B20736574206469736B20492F4F206D656D6F7235
:209BA0007920616464726573730D0A3F726561643A096A6D702072656164093B2072656152
:209BC0006420706879736963616C20626C6F636B2873290D0A3F77726974653A096A6D70AA
:209BE000207772697465093B20777269746520706879736963616C20626C6F636B2873291F
:209C00000D0A0D0A3F6C697374733A096A6D70206C6973747374093B2072657475726E2037
:209C20006C69737420646576696365207374617475730D0A3F736374726E3A096A6D7020EA
:209C400073656374726E093B207472616E736C617465206C6F676963616C20746F2070684D
:209C600079736963616C20736563746F720D0A0D0A3F636F6E6F733A096A6D7020636F6E36
:209C80006F7374093B2072657475726E20636F6E736F6C65206F75747075742073746174AA
:209CA00075730D0A3F61757869733A096A6D7020617578697374093B2072657475726E20D0
:209CC00061757820696E707574207374617475730D0A3F6175786F733A096A6D702061751C
:209CE000786F7374093B2072657475726E20617578206F7574707574207374617475730D82
:209D00000A3F647674626C3A096A6D702064657674626C093B2072657475726E2061646466
:209D200072657373206F662064657669636520646566207461626C650D0A3F646576696EFE
:209D40003A096A6D70203F63696E6974093B206368616E6765206261756420726174652091
:209D60006F66206465766963650D0A0D0A3F647274626C3A096A6D702067657464727609BA
:209D80003B2072657475726E2061646472657373206F66206469736B206472697665207434
:209DA00061626C650D0A3F6D6C74696F3A096A6D70206D756C74696F093B20736574206D13
:209DC000756C7469706C65207265636F726420636F756E7420666F72206469736B20492FD2
:209DE0004F0D0A3F666C7573683A096A6D7020666C757368093B20666C7573682042494F50
:209E000053206D61696E7461696E6564206469736B2063616368696E670D0A0D0A3F6D6FB4
:209E2000763A096A6D70203F6D6F7665093B20626C6F636B206D6F7665206D656D6F72790D
:209E400020746F206D656D6F72790D0A3F74696D3A096A6D70203F74696D65093B205369EE
:209E6000676E616C2054696D6520616E642044617465206F7065726174696F6E0D0A3F62F7
:209E80006E6B736C3A096A6D7020626E6B73656C093B2073656C6563742062616E6B2066BB
:209EA0006F7220636F646520657865637574696F6E20616E642064656661756C7420444D09
:209EC000410D0A3F7374626E6B3A096A6D7020736574626E6B093B2073656C656374206430
:209EE0006966666572656E742062616E6B20666F72206469736B20492F4F20444D41206FB9
:209F00007065726174696F6E732E0D0A3F786D6F763A096A6D70203F786D6F7665093B20A2
:209F200073657420736F7572636520616E642064657374696E6174696F6E2062616E6B73E0
:209F400020666F72206F6E65206F7065726174696F6E0D0A0D0A096A6D70203009093B200C
:209F6000726573657276656420666F722066757475726520657870616E73696F6E0D0A094A
:209F80006A6D70203009093B20726573657276656420666F722066757475726520657870CE
:209FA000616E73696F6E0D0A096A6D70203009093B20726573657276656420666F722066A8
:209FC000757475726520657870616E73696F6E0D0A0D0A0D0A093B20424F4F540D0A093B1F
:209FE00009496E697469616C20656E74727920706F696E7420666F722073797374656D20A6
:20A00000737461727475702E0D0A0D0A0964736567093B207468697320706172742063614E
:20A020006E2062652062616E6B65640D0A0D0A626F6F743A0D0A096C78692073702C626FBD
:20A040006F7424737461636B0D0A096D766920632C3135093B20696E697469616C697A65CC
:20A0600020616C6C2031362063686172616374657220646576696365730D0A6324696E6952
:20A0800074246C6F6F703A0D0A0970757368206220212063616C6C203F63696E697420211E
:20A0A00020706F7020620D0A0964637220632021206A70206324696E6974246C6F6F700D52
:20A0C0000A0D0A0963616C6C203F696E6974093B20706572666F726D20616E792061646497
:20A0E0006974696F6E616C2073797374656D20696E697469616C697A6174696F6E0D0A0983
:20A1000009093B20616E64207072696E74207369676E6F6E206D6573736167650D0A0D0A71
:20A12000096C786920622C31362A3235362B302021206C786920682C406474626C093B20E6
:20A14000696E697420616C6C203136206C6F676963616C206469736B206472697665730DEB
:20A160000A6424696E6974246C6F6F703A0D0A0970757368206209093B2073617665207271
:20A18000656D61696E696E6720636F756E7420616E64206162732064726976650D0A096DBE
:20A1A0006F7620652C6D202120696E7820682021206D6F7620642C6D202120696E7820685C
:20A1C000093B2067726162204064727620656E7472790D0A096D6F7620612C652021206F2D
:20A1E000726120642021206A7A206424696E6974246E657874093B206966206E756C6C2C4A
:20A20000206E6F2064726976650D0A0970757368206809090909093B2073617665204064A4
:20A22000727620706F696E746572200D0A097863686709090909093B20584450482061648A
:20A24000647265737320696E203C484C3E0D0A096463782068202120646378206820212048
:20A260006D6F7620612C6D202120737461204052445256093B206765742072656C617469E6
:20A28000766520647269766520636F64650D0A096D6F7620612C6320212073746120404122
:20A2A0004452560909093B20676574206162736F6C75746520647269766520636F64650D7B
:20A2C0000A09646378206809090909093B20706F696E7420746F20696E697420706F696E45
:20A2E0007465720D0A096D6F7620642C6D20212064637820682021206D6F7620652C6D0982
:20A30000093B2067657420696E697420706F696E7465720D0A097863686720212063616C49
:20A320006C20697063686C0909093B2063616C6C20696E697420726F7574696E650D0A0955
:20A34000706F70206809090909093B207265636F766572204064727620706F696E746572DB
:20A360000D0A6424696E6974246E6578743A0D0A09706F70206209090909093B20726563BA
:20A380006F76657220636F756E74657220616E6420647269766520230D0A09696E72206325
:20A3A00020212064637220622021206A6E7A206424696E6974246C6F6F7009093B20616E58
:20A3C00064206C6F6F7020666F7220656163682064726976650D0A096A6D7020626F6F74B2
:20A3E00024310D0A0D0A0963736567093B20666F6C6C6F77696E6720696E207265736964CC
:20A40000656E74206D656D6F72790D0A0D0A626F6F7424313A0D0A0963616C6C20736574A3
:20A42000246A756D70730D0A0963616C6C203F6C64636370090909093B20666574636820FF
:20A4400043435020666F722066697273742074696D650D0A096A6D70206363700D0A0D0ABD
:20A460000D0A093B2057424F4F540D0A093B09456E74727920666F722073797374656D2014
:20A4800072657374617274732E0D0A0D0A77626F6F743A0D0A096C78692073702C626F6FA7
:20A4A0007424737461636B0D0A0963616C6C20736574246A756D707309093B20696E697452
:20A4C00069616C697A652070616765207A65726F0D0A0963616C6C203F726C636370090920
:20A4E0003B2072656C6F6164204343500D0A096A6D70206363700909093B207468656E2092
:20A500007265736574206A6D7020766563746F727320616E64206578697420746F20636375
:20A52000700D0A0D0A0D0A736574246A756D70733A0D0A0D0A202069662062616E6B6564CB
:20A540000D0A096D766920612C3120212063616C6C203F626E6B736C0D0A2020656E646944
:20A56000660D0A0D0A096D766920612C4A4D500D0A0973746120302021207374612035099F
:20A58000093B20736574207570206A756D707320696E2070616765207A65726F0D0A096C97
:20A5A000786920682C3F77626F6F7420212073686C642031093B2042494F53207761726DD7
:20A5C00020737461727420656E7472790D0A096C686C6420404D5854504120212073686C85
:20A5E000642036093B2042444F532073797374656D2063616C6C20656E7472790D0A0972B0
:20A6000065740D0A0D0A0D0A090964732036340D0A626F6F7424737461636B096571752030
:20A62000240D0A0D0A0D0A093B2044455654424C0D0A093B0952657475726E2061646472ED
:20A64000657373206F662063686172616374657220646576696365207461626C650D0A0D11
:20A660000A64657674626C3A0D0A096C786920682C406374626C2021207265740D0A0D0A35
:20A680000D0A093B204745544452560D0A093B0952657475726E2061646472657373206FFA
:20A6A00066206472697665207461626C650D0A0D0A6765746472763A0D0A096C78692068E9
:20A6C0002C406474626C2021207265740D0A0D0A0D0A0D0A093B20434F4E4F55540D0A0904
:20A6E0003B09436F6E736F6C65204F75747075742E202053656E642063686172616374653F
:20A700007220696E203C433E0D0A093B090909746F20616C6C2073656C6563746564206454
:20A720006576696365730D0A0D0A636F6E6F75743A090D0A0D0A096C686C642040636F760E
:20A740006563093B20666574636820636F6E736F6C65206F75747075742062697420766585
:20A7600063746F720D0A096A6D70206F7574247363616E0D0A0D0A0D0A093B204155584F93
:20A7800055540D0A093B09417578696C69617279204F75747075742E2053656E6420636880
:20A7A0006172616374657220696E203C433E0D0A093B090909746F20616C6C2073656C6568
:20A7C0006374656420646576696365730D0A0D0A6175786F75743A0D0A096C686C642040A4
:20A7E000616F766563093B20666574636820617578206F75747075742062697420766563E1
:20A80000746F720D0A096A6D70206F7574247363616E0D0A0D0A0D0A093B204C4953540D49
:20A820000A093B094C697374204F75747075742E202053656E6420636861726163746572AF
:20A8400020696E203C433E0D0A093B090909746F20616C6C2073656C656374656420646520
:20A8600076696365732E0D0A0D0A6C6973743A0D0A096C686C6420406C6F766563093B20CB
:20A880006665746368206C697374206F75747075742062697420766563746F720D0A0D0AC1
:20A8A0006F7574247363616E3A0D0A096D766920622C3009093B20737461727420776974E4
:20A8C000682064657669636520300D0A636F246E6578743A0D0A09646164206809093B20EC
:20A8E0007368696674206F7574206E657874206269740D0A096A6E63206E6F74246F75743C
:20A90000246465766963650D0A0970757368206809093B2073617665207468652076656360
:20A92000746F720D0A0970757368206209093B20736176652074686520636F756E74206119
:20A940006E64206368617261637465720D0A6E6F74246F75742472656164793A0D0A09637E
:20A96000616C6C20636F737465722021206F726120612021206A7A206E6F74246F75742474
:20A9800072656164790D0A09706F702062202120707573682062093B20726573746F7265A6
:20A9A00020616E6420726573617665207468652063686172616374657220616E6420646534
:20A9C000766963650D0A0963616C6C203F636F093B206966206465766963652073656C6557
:20A9E000637465642C207072696E742069740D0A09706F70206209093B207265636F76655F
:20AA00007220636F756E7420616E64206368617261637465720D0A09706F70206809093B17
:20AA2000207265636F766572207468652072657374206F662074686520766563746F720DAB
:20AA40000A6E6F74246F7574246465766963653A0D0A09696E72206209093B206E6578743A
:20AA600020646576696365206E756D6265720D0A096D6F7620612C682021206F7261206CE7
:20AA8000093B2073656520696620616E792064657669636573206C6566740D0A096A6E7A7E
:20AAA00020636F246E657874093B20616E6420676F2066696E64207468656D2E2E2E0D0A04
:20AAC000097265740D0A0D0A0D0A093B20434F4E4F53540D0A093B09436F6E736F6C65204C
:20AAE0004F7574707574205374617475732E202052657475726E20747275652069660D0A4D
:20AB0000093B0909616C6C2073656C656374656420636F6E736F6C65206F75747075742039
:20AB2000646576696365730D0A093B09096172652072656164792E0D0A0D0A636F6E6F73DA
:20AB4000743A0D0A096C686C642040636F766563093B2067657420636F6E736F6C65206FCD
:20AB600075747075742062697420766563746F720D0A096A6D70206F7374247363616E0DCE
:20AB80000A0D0A0D0A093B204155584F53540D0A093B09417578696C69617279204F7574C1
:20ABA000707574205374617475732E202052657475726E20747275652069660D0A093B0977
:20ABC00009616C6C2073656C656374656420617578696C69617279206F757470757420647D
:20ABE0006576696365730D0A093B09096172652072656164792E0D0A0D0A6175786F7374FC
:20AC00003A0D0A096C686C642040616F766563093B2067657420617578206F7574707574E5
:20AC20002062697420766563746F720D0A096A6D70206F7374247363616E0D0A0D0A0D0A17
:20AC4000093B204C49535453540D0A093B094C697374204F75747075742053746174757358
:20AC60002E202052657475726E20747275652069660D0A093B0909616C6C2073656C656345
:20AC8000746564206C697374206F757470757420646576696365730D0A093B090961726522
:20ACA0002072656164792E0D0A0D0A6C69737473743A0D0A096C686C6420406C6F766563E9
:20ACC000093B20676574206C697374206F75747075742062697420766563746F720D0A0DED
:20ACE0000A6F7374247363616E3A0D0A096D766920622C3009093B2073746172742077690C
:20AD000074682064657669636520300D0A636F73246E6578743A0D0A09646164206809091B
:20AD20003B20636865636B206E657874206269740D0A0970757368206809093B207361765D
:20AD4000652074686520766563746F720D0A0970757368206209093B207361766520746800
:20AD60006520636F756E740D0A096D766920612C30464668093B20617373756D652064650D
:20AD8000766963652072656164790D0A09636320636F73746572093B20636865636B20734C
:20ADA000746174757320666F722074686973206465766963650D0A09706F70206209093B55
:20ADC000207265636F76657220636F756E740D0A09706F70206809093B207265636F76652C
:20ADE000722062697420766563746F720D0A096F7261206109093B207365652069662064CF
:20AE000065766963652072656164790D0A09727A09093B20696620616E79206E6F7420723E
:20AE2000656164792C2072657475726E2066616C73650D0A09696E72206209093B2064722A
:20AE40006F7020646576696365206E756D6265720D0A096D6F7620612C682021206F7261B0
:20AE6000206C093B2073656520696620616E79206D6F72652073656C656374656420646529
:20AE800076696365730D0A096A6E7A20636F73246E6578740D0A096F726920304646680927
:20AEA0003B20616C6C2073656C656374656420776572652072656164792C2072657475720F
:20AEC0006E20747275650D0A097265740D0A0D0A636F737465723A09093B20636865636B56
:20AEE00020666F72206F7574707574206465766963652072656164792C20696E636C75648A
:20AF0000696E67206F7074696F6E616C0D0A09093B09786F6E2F786F666620737570706F72
:20AF200072740D0A096D6F76206C2C622021206D766920682C30093B206D616B6520646523
:20AF40007669636520636F646520313620626974730D0A097075736820680909093B2073E5
:20AF600061766520697420696E20737461636B0D0A09646164206820212064616420682068
:20AF800021206461642068093B20637265617465206F666673657420696E746F2064657607
:20AFA000696365206368617261637465726973746963732074626C0D0A096C786920642C85
:20AFC000406374626C2B362021206461642064093B206D616B652061646472657373206F86
:20AFE00066206D6F646520627974650D0A096D6F7620612C6D202120616E69206D622478A2
:20B000006F6E786F66660D0A09706F7020680909093B207265636F76657220636F6E736FFB
:20B020006C65206E756D62657220696E203C484C3E0D0A096A7A203F636F737409093B20E8
:20B040006E6F74206120786F6E206465766963652C20676F20676574206F757470757420A6
:20B06000737461747573206469726563740D0A096C786920642C786F66666C6973742021C4
:20B08000206461642064093B206D616B6520706F696E74657220746F2070726F70657220E5
:20B0A000786F6E2F786F666620666C61670D0A0963616C6C20636973743109093B2073659A
:20B0C000652069662074686973206B6579626F6172642068617320636861726163746572AA
:20B0E0000D0A096D6F7620612C6D202120636E7A20636931093B2067657420666C6167207D
:20B100006F722072656164206B657920696620616E790D0A096370692063746C7120212041
:20B120006A6E7A206E6F742471093B2069662069747320612063746C2D512C0D0A096D7683
:20B140006920612C304646682009093B097365742074686520666C61672072656164790D96
:20B160000A6E6F7424713A0D0A096370692063746C732021206A6E7A206E6F742473093B74
:20B180002069662069747320612063746C2D532C0D0A096D766920612C30306809093B0989
:20B1A000636C6561722074686520666C61670D0A6E6F7424733A0D0A096D6F76206D2C61A8
:20B1C0000909093B20736176652074686520666C61670D0A0963616C6C20636F7374310960
:20B1E000093B20676574207468652061637475616C206F7574707574207374617475732CEF
:20B200000D0A09616E61206D0909093B20616E64206D61736B20776974682063746C2D511F
:20B220002F63746C2D5320666C61670D0A097265740909093B2072657475726E207468697C
:20B240007320617320746865207374617475730D0A0D0A63697374313A0909093B206765D4
:20B260007420696E707574207374617475732077697468203C42433E20616E64203C484C08
:20B280003E2073617665640D0A09707573682062202120707573682068200D0A0963616CC2
:20B2A0006C203F636973740D0A09706F702068202120706F7020620D0A096F726120610DF7
:20B2C0000A097265740D0A0D0A636F7374313A0909093B20676574206F75747075742073A4
:20B2E00074617475732C20736176696E67203C42433E2026203C484C3E0D0A0970757368D6
:20B3000020622021207075736820680D0A0963616C6C203F636F73740D0A09706F70206837
:20B32000202120706F7020620D0A096F726120610D0A097265740D0A0D0A6369313A090916
:20B34000093B2067657420696E7075742C20736176696E67203C42433E2026203C484C3E92
:20B360000D0A097075736820622021207075736820680D0A0963616C6C203F63690D0A09BB
:20B38000706F702068202120706F7020620D0A097265740D0A0D0A0D0A093B20434F4E535D
:20B3A000540D0A093B09436F6E736F6C6520496E707574205374617475732E202052657495
:20B3C00075726E20747275652069660D0A093B0909616E792073656C656374656420636F39
:20B3E0006E736F6C6520696E707574206465766963650D0A093B090968617320616E206133
:20B400007661696C61626C65206368617261637465722E0D0A0D0A636F6E73743A0D0A0942
:20B420006C686C6420406369766563093B2067657420636F6E736F6C6520696E70757420D7
:20B4400062697420766563746F720D0A096A6D7020697374247363616E0D0A0D0A0D0A090C
:20B460003B204155584953540D0A093B09417578696C6961727920496E70757420537461FF
:20B480007475732E202052657475726E20747275652069660D0A093B0909616E79207365E6
:20B4A0006C656374656420617578696C6961727920696E707574206465766963650D0A0923
:20B4C0003B090968617320616E20617661696C61626C65206368617261637465722E0D0A21
:20B4E0000D0A6175786973743A0D0A096C686C6420406169766563093B2067657420617597
:20B500007820696E7075742062697420766563746F720D0A0D0A697374247363616E3A0DC3
:20B520000A096D766920622C3009093B207374617274207769746820646576696365203077
:20B540000D0A636973246E6578743A0D0A09646164206809093B20636865636B206E6578D1
:20B5600074206269740D0A096D766920612C3009093B20617373756D652064657669636524
:20B58000206E6F742072656164790D0A096363206369737431093B20636865636B207374B2
:20B5A0006174757320666F722074686973206465766963650D0A096F726120612021207249
:20B5C0006E7A093B20696620616E792072656164792C2072657475726E20747275650D0AD0
:20B5E00009696E72206209093B2064726F7020646576696365206E756D6265720D0A096D8F
:20B600006F7620612C682021206F7261206C093B2073656520696620616E79206D6F726536
:20B620002073656C656374656420646576696365730D0A096A6E7A20636973246E657874EA
:20B640000D0A09787261206109093B20616C6C2073656C65637465642077657265206E6F1F
:20B66000742072656164792C2072657475726E2066616C73650D0A097265740D0A0D0A0D64
:20B680000A093B20434F4E494E0D0A093B09436F6E736F6C6520496E7075742E2020526539
:20B6A0007475726E206368617261637465722066726F6D2066697273740D0A093B090972F9
:20B6C0006561647920636F6E736F6C6520696E707574206465766963652E0D0A0D0A636FA6
:20B6E0006E696E3A0D0A096C686C64204063697665630D0A096A6D7020696E247363616E76
:20B700000D0A0D0A0D0A093B20415558494E0D0A093B09417578696C6961727920496E7098
:20B7200075742E202052657475726E206368617261637465722066726F6D20666972737449
:20B740000D0A093B0909726561647920617578696C6961727920696E707574206465766957
:20B7600063652E0D0A0D0A617578696E3A0D0A096C686C64204061697665630D0A0D0A6983
:20B780006E247363616E3A0D0A0970757368206809093B20736176652062697420766563F7
:20B7A000746F720D0A096D766920622C300D0A6369246E6578743A0D0A0964616420680910
:20B7C000093B207368696674206F7574206E657874206269740D0A096D766920612C3009DF
:20B7E000093B20696E73757265207A65726F20612020286E6F6E6578697374616E74206447
:20B800006576696365206E6F74207265616479292E0D0A096363206369737431093B20735E
:20B820006565206966207468652064657669636520686173206120636861726163746572B4
:20B840000D0A096F726120610D0A096A6E7A20636924726479093B207468697320646576B9
:20B86000696365206861732061206368617261637465720D0A09696E72206209093B206530
:20B880006C73652C206E657874206465766963650D0A096D6F7620612C682021206F72619F
:20B8A000206C093B2073656520696620616E79206D6F726520646576696365730D0A096AA4
:20B8C0006E7A206369246E657874093B20676F206C6F6F6B206174207468656D0D0A09704F
:20B8E0006F70206809093B207265636F7665722062697420766563746F720D0A096A6D7005
:20B9000020696E247363616E093B206C6F6F702074696C2077652066696E642061206368B7
:20B92000617261637465720D0A0D0A6369247264793A0D0A09706F70206809093B2064694D
:20B94000736361726420657874726120737461636B0D0A096A6D70203F63690D0A0D0A0D93
:20B960000A3B095574696C69747920537562726F7574696E65730D0A0D0A0D0A69706368D9
:20B980006C3A09093B20766563746F7265642043414C4C20706F696E740D0A097063686CEB
:20B9A0000D0A0D0A0D0A3F706D73673A09093B207072696E74206D65737361676520403CD7
:20B9C000484C3E20757020746F2061206E756C6C0D0A09093B207361766573203C42433E6C
:20B9E0002026203C44453E0D0A097075736820620D0A097075736820640D0A706D73672426
:20BA00006C6F6F703A0D0A096D6F7620612C6D2021206F726120612021206A7A20706D73CD
:20BA20006724657869740D0A096D6F7620632C612021207075736820680D0A0963616C6CDA
:20BA4000203F636F6E6F202120706F7020680D0A09696E7820682021206A6D7020706D7391
:20BA600067246C6F6F700D0A706D736724657869743A0D0A09706F7020640D0A09706F7039
:20BA800020620D0A097265740D0A0D0A3F706465633A09093B207072696E742062696E6122
:20BAA0007279206E756D62657220302D36353533352066726F6D203C484C3E0D0A096C7867
:20BAC0006920622C7461626C65313021206C786920642C2D31303030300D0A6E6578743A7A
:20BAE0000D0A096D766920612C2730272D310D0A706465636C3A0D0A09707573682068216F
:20BB000020696E7220612120646164206421206A6E632073746F706C6F6F700D0A09696E3A
:20BB2000782073702120696E7820737021206A6D7020706465636C0D0A73746F706C6F6F20
:20BB4000703A0D0A0970757368206421207075736820620D0A096D6F7620632C612120632E
:20BB6000616C6C203F636F6E6F0D0A09706F7020622120706F7020640D0A6E6578746469D6
:20BB80006769743A0D0A09706F7020680D0A096C646178206221206D6F7620652C612120FF
:20BBA000696E7820620D0A096C646178206221206D6F7620642C612120696E7820620D0A9C
:20BBC000096D6F7620612C6521206F7261206421206A6E7A206E6578740D0A097265740D07
:20BBE0000A0D0A7461626C6531303A0D0A096477092D313030302C2D3130302C2D31302CBF
:20BC00002D312C300D0A0D0A3F70646572723A0D0A096C786920682C6472697665246D7367
:20BC20006720212063616C6C203F706D73670909093B206572726F72206865616465720D54
:20BC40000A096C6461204061647276202120616469202741272021206D6F7620632C612072
:20BC6000212063616C6C203F636F6E6F093B20647269766520636F64650D0A096C78692013
:20BC8000682C747261636B246D736720212063616C6C203F706D73670909093B20747261C0
:20BCA000636B206865616465720D0A096C686C64204074726B20212063616C6C203F706488
:20BCC0006563090909093B20747261636B206E756D6265720D0A096C786920682C73656303
:20BCE000746F72246D736720212063616C6C203F706D73670909093B20736563746F72204B
:20BD00006865616465720D0A096C686C6420407365637420212063616C6C203F70646563EF
:20BD2000090909093B20736563746F72206E756D6265720D0A097265740D0A0D0A0D0A0992
:20BD40003B20424E4B53454C0D0A093B0942616E6B2053656C6563742E202053656C65630F
:20BD600074204350552062616E6B20666F72206675727468657220657865637574696F6E10
:20BD80002E0D0A0D0A626E6B73656C3A0D0A09737461204063626E6B200909093B207265BB
:20BDA0006D656D6265722063757272656E742062616E6B0D0A096A6D70203F62616E6B09C1
:20BDC00009093B20616E6420676F2065786974207468726F7567682075736572730D0A0960
:20BDE000090909093B20706879736963616C2062616E6B2073656C65637420726F757469B8
:20BE00006E650D0A0D0A0D0A786F66666C697374096462092D312C2D312C2D312C2D312C9B
:20BE20002D312C2D312C2D312C2D3109093B2063746C2D7320636C6561727320746F207A7F
:20BE400065726F0D0A09096462092D312C2D312C2D312C2D312C2D312C2D312C2D312C2DB1
:20BE6000310D0A0D0A0D0A0D0A0964736567093B20666F6C6C6F77696E672072657369641D
:20BE8000657320696E2062616E6B6564206D656D6F72790D0A0D0A0D0A0D0A3B09446973D5
:20BEA0006B20492F4F20696E7465726661636520726F7574696E65730D0A0D0A0D0A093B3D
:20BEC0002053454C44534B0D0A093B0953656C656374204469736B2044726976652E202085
:20BEE000447269766520636F646520696E203C433E2E0D0A093B0909496E766F6B65206C26
:20BF00006F67696E2070726F63656475726520666F722064726976650D0A093B09096966AE
:20BF200020746869732069732066697273742073656C6563742E202052657475726E0D0A40
:20BF4000093B090961646472657373206F66206469736B20706172616D6574657220686517
:20BF6000616465720D0A093B0909696E203C484C3E0D0A0D0A73656C64736B3A0D0A096D38
:20BF80006F7620612C632021207374612040616472760909093B20736176652064726976FC
:20BFA000652073656C65637420636F64650D0A096D6F76206C2C632021206D766920682CD3
:20BFC00030202120646164206809093B2063726561746520696E6465782066726F6D2064AE
:20BFE0007269766520636F64650D0A096C786920622C406474626C202120646164206209BA
:20C0000009093B2067657420706F696E74657220746F206469737061746368207461626C1C
:20C02000650D0A096D6F7620612C6D202120696E7820682021206D6F7620682C6D202120A2
:20C040006D6F76206C2C61093B20706F696E74206174206469736B206465736372697074A9
:20C060006F720D0A096F72612068202120727A20090909093B206966206E6F20656E747264
:20C080007920696E207461626C652C206E6F206469736B0D0A096D6F7620612C652021202F
:20C0A000616E6920312021206A6E7A206E6F742466697273742473656C656374093B20651A
:20C0C00078616D696E65206C6F67696E206269740D0A0970757368206820212078636867D3
:20C0E000090909093B2070757420706F696E74657220696E20737461636B2026203C4445EF
:20C100003E0D0A096C786920682C2D3220212064616420642021206D6F7620612C6D202145
:20C1200020737461204052445256093B206765742072656C61746976652064726976650D92
:20C140000A096C786920682C2D3620212064616420640909093B2066696E64204C4F4749F8
:20C160004E20616464720D0A096D6F7620612C6D202120696E7820682021206D6F762068B7
