:020000040008F2
:2000000020554E4C4142454C45442020010000000000000000000000E5E5E5E5E5E5E5E5CB
:20002000005A4F524B31323320504B47010000800400050006000700080009000A000B0025
:20004000005A4F524B31323320504B47030000800C000D000E000F001000110012001300C3
:20006000005A4F524B31323320504B47050000801400150016001700180019001A001B0061
:20008000005A4F524B31323320504B47070000801C001D001E001F002000210022002300FF
:2000A000005A4F524B31323320504B47090000802400250026002700280029002A002B009D
:2000C000005A4F524B31323320504B470B0000802C002D002E002F0030003100320033003B
:2000E000005A4F524B31323320504B470D0000803400350036003700380039003A003B00D9
:20010000005A4F524B31323320504B470F0000803C003D003E003F00400041004200430076
:20012000005A4F524B31323320504B47110000804400450046004700480049004A004B0014
:20014000005A4F524B31323320504B47130000804C004D004E004F005000510052005300B2
:20016000005A4F524B31323320504B47150000805400550056005700580059005A005B0050
:20018000005A4F524B31323320504B47170000805C005D005E005F006000610062006300EE
:2001A000005A4F524B31323320504B47190000806400650066006700680069006A006B008C
:2001C000005A4F524B31323320504B471B0000806C006D006E006F0070007100720073002A
:2001E000005A4F524B31323320504B471D0000807400750076007700780079007A007B00C8
:20020000005A4F524B31323320504B471F0000807C007D007E007F00800081008200830065
:20022000005A4F524B31323320504B47010001808400850086008700880089008A008B0022
:20024000005A4F524B31323320504B47024C015A8C008D008E000000000000000000000070
:20026000E5E5E5E5E5E5E5E5E5E5E5E5E5E5E5E5E5E5E5E5E5E5E5E5E5E5E5E5E5E5E5E5DE
:20028000E5E5E5E5E5E5E5E5E5E5E5E5E5E5E5E5E5E5E5E5E5E5E5E5E5E5E5E5E5E5E5E5BE
:2002A000E5E5E5E5E5E5E5E5E5E5E5E5E5E5E5E5E5E5E5E5E5E5E5E5E5E5E5E5E5E5E5E59E
:2002C000E5E5E5E5E5E5E5E5E5E5E5E5E5E5E5E5E5E5E5E5E5E5E5E5E5E5E5E5E5E5E5E57E
:20400000413A444F574E4C4F4144205A4F524B332E434F4D0D0A55300D0A3A433330303034
:20402000323346313735413446353234423333323032303230303130313030303030303002
:20404000303030303030303030303030303030303030303030303030303030303030303060
:20406000303030303030303030303030303030303030303030303030303030303030303040
:20408000303030303030303030303030303030303030303030303030303030303030303020
:2040A000303030303030303030303030303030303030303030303030303030303030303000
:2040C0003030303030303030303030303030303030303030303030303030303030303030E0
:2040E0003030303030303030303030303030303030303030303030303030303030303030C0
:2041000030303030303030303030303030303030303030303030303030303030303030309F
:2041200030303030303030303030303030303030303030303030303030303030303030307F
:2041400030303030303030303030303030303030303030303030303030303030303030305F
:2041600030303030303030303030303030303030303030303030303030303030303030303F
:2041800030303030303030303030303030303030303030303030303030303030303030301F
:2041A0003030303030303030303030303030303030303030303030303030303030303030FF
:2041C0003030303030303030303030303030303030303030303030303030303030303030DF
:2041E0003030303030303030303030303030303030303030303030303030303030303030BF
:20420000303030303030303030303030303030303030303030303030303030333130373093
:2042200045433341363130433335463037324130363030374446454646324546463235332B
:2042400041444132314143453630314330323543393332373530433231354330303036306A
:20426000434344344230334146333237433030323130303030323236383030323236413075
:2042800030313135433030414633323543303030453046434430353030334343303341421A
:2042A000353031423743383345303133323543303041463332374330303231303030303243
:2042C000323638303032323641303031313543303030453046434430353030334343303316
:2042E000453032333235433030414633323743303032313030303032323638303032323625
:2043000041303031313543303030453046434430353030334343393745323342374338467E
:20432000354335443545353545304530364344303530304531443143314631334443333742
:20434000463032374532334237433846354335443545353545304530354344303530304515
:20436000314431433146313344433339353032323143383032434442463032323145303036
:20438000324344424630323231443430324344424630323231454330323131303530313027
:2043A0003630384333344230333030324532453245324532453245324532453434343135F6
:2043C0003430303245324532453245324532453245324535303535353230303245324532DB
:2043E000453245324532453245324535303532343530303245324532453245324532453294
:2044000045324535333431353632324542304243443633304236463341373530434645305F
:20442000333744434131383033323142393231424544413135303339364344393330424351
:20444000333138303343444233304236463236303032393239434432363033434432363064
:20446000334344323630334535323237443030414633323746303031313543303030453254
:20448000314344303530304237433430363032313138303030324145423042303638304340
:2044A000443442303332324542304245313233433931413737323331333035433234423002
:2044C0003343393341303430313344333237363043434446373034334530313332423732E7
:2044E0003131363444314530303241424232313233434433383034464530384341413330A6
:20450000334645374643414133303346453044434143303033464531324341464530334606
:2045200045323044413642303334464344423630343739464534314441393830334645351E
:20454000424432393830334336323037373233314337414242434131413034433336423039
:20456000333742464530304341364230333144324243444231303343333642303330453009
:204580003843444236303430453230434442363034304530384333423630344535443541E3
:2045A0004633324237323132414439323131313131303031393745453630314341454630FC
:2045C00033443144353742423743414546303332414242323132333745464536314441455F
:2045E000363033443632303446323343443836303531444332444530334431453137414292
:2046000042434146393033314333363044434437333034374243394435453532414242323B
:20462000313233434437333034374242374341313530343445434442363034314432334356
:2046400033303730344531443143333642303343443338303446453044434143303033462B
:204660004530384341413330334645374643414133303344353145303730453036434430E7
:204680003530304431433331413034433544354535314546463045303643443035303042EE
:2046A0003743413531303432314536304233364646453144314331453637464339334145A4
:2046C0003630424237433233423034434445453142433333423034323145353042333433AF
:2046E0004130463031323145343042413638313546304530364344303530304333393730BC
:2047000034433544354535314530443045303643443035303033413044303142374341386B
:20472000423034314530413045303643443035303030453044434439423034323137363076
:20474000433335434330313037453144314331433943354435453532414439323131313134
:2047600031303031393745453630314334383630354333393730344344373430354333463F
:204780003330343045304443354435453537394645303843414433303446453142434138B2
:2047A000353035464530434341383530354645304443414145303446453230444146333083
:2047C0003433414237323142374332354530343341454430423231303330314245443437BD
:2047E0003430353341454430423343333245443042324137333043373132333232373330C0
:20480000434531443143314339433533414544304242374341373230354333323130354347
:2048200035334145443042423743413732303533443437373946453044434132313035323A
:20484000413733304332423745464532304341323830353242303546323136303532413743
:204860003330433341454430423437433545353231454530423738423743413439303543E6
:204880003544354535354530453036434430353030453145353445434439423034453144C6
:2048A0003132334331303543323332303545313233433133414544304239303344463235FF
:2048C0003530354146333245443042434136363035313145453042374531323233313330CC
:2048E000354332354530353231454530423341454430424344303831463232373330434377
:204900003143394344303230354333373330343241443932313131303130303139374545B7
:2049200036303243394339334142373231423743303341453730424237434342343035432C
:2049400035443545353539433530453035434430353030433137394645304443323937302B
:2049600034334130453031423743413937303431453041304530354344303530304333392C
:20498000373034334333324537304245353231393430314344393430324531433932313528
:2049A0003230313745423743383341444632313637334145303231364645353241453132C9
:2049C0003145353241443132314535324144303231453532313532303143443745303241D2
:2049E000463332453530423345303133324237323133454646333245343042434437413083
:204A0000354332353330364344343530363231443330364344423230363345313143443591
:204A200039313343443937314230453246434442363034334531324344353931334344392B
:204A400037314233413033303134374344413330363231373330314344374530324146335B
:204A600032423732313332453430423332443532314531374433324430323145313232444C
:204A800031323145313232453132314531374333324446323137443332453032314344331B
:204AA0004532304339304532304344423630343345313043443539313337444333323131E2
:204AC0003643443435303632314442303643444232303633453131434435393133374446A6
:204AE000354237433236433036324530434333373430364645304444413734303644363084
:204B0000433646434439373142304533414344423630343345313243443539313343443332
:204B2000423037304532304344423630343045363146314645313843413938303646453035
:204B400043444139383036304537304344423630343045364443444236303443333134301A
:204B6000363341453530424238443043353045323043444236303443314333413330363308
:204B80004130333031464532374441434430364436313045353437434441333036453134DF
:204BA0003632333445434442363034303543324333303643394436303834374333413330E5
:204BC000363037353336333646373236353341323030363534363936443635334132303216
:204BE000443244324432443244324432443244324432443244324432443444364637323656
:204C000035324432443244324432443244324432443244324432443244324430303341305D
:204C2000343031423743383344373743444331303533453031333242373231323145323082
:204C4000364344363630414344333830343145304430453036434430353030303631464333
:204C6000353145323030453036434430353030433130354332323230373145304430453058
:204C8000364344303530304146333242373231433931313041303043443235314430453310
:204CA000304434423630344333393731423131354330303045313043443035303032313325
:204CC000313031434437453032304530304344303530304333343930373131354330303008
:204CE0004531304344303530303231333130314344374530324333303030314146333237DB
:204D00003530433131354330303045313043443035303043443643303831313543303030BD
:204D200045313343443035303031313543303030453136434430353030334343413335308A
:204D40003832414439323130313030303030393745333238303030324130373045323238AA
:204D60003130303231383330303131383732313031323930303431434434423033313135B8
:204D8000433030304531354344303530304237433233353038304530343131303930453042
:204DA00036383032313830303043443442303343354435313135433030304531354344300D
:204DC0003530304237433234383038443143313044433243323037324144393231313130E9
:204DE0004530303139344532414439323145423036303243353231383030303036383043D5
:204E0000443442303344353131354330303045313543443035303044314331423743323391
:204E2000353038303543324543303730363032304446324543303731313543303030453189
:204E4000304344303530304344334630393045313943443035303046353045304443443027
:204E60003530304631354630453045434430353030434442343034414633324345323143FA
:204E8000333830313331313543303030453130434430353030313135433030304531334361
:204EA00044303530304333353030383131354330303045313043443035303043443346301A
:204EC00039304531394344303530304635304530444344303530304631354630453045439F
:204EE0004430353030414633324345323143333731313332313038304143443636304130C0
:204F00003630383231454330324344303030393231363430414344363630413036303332B9
:204F20003146343032434430303039323134343041434436363041323130303030323236B7
:204F4000383030323236413030414633323743303031313830303033453045313230453099
:204F6000414344303530304344373330343045313943443035303046353045304443443009
:204F800035303046313546304530454344303530303341383130304237434133343039301A
:204FA000363042323145423032323333363230323330354332433830383437323138323043
:204FC000303131454330324645303344414544303833413833303046453341433245443085
:204FE0003830353035374545363046333245423032323332333035464133343039374543AF
:20500000443231303932334645324543413241303931323133433345443038374546453252
:20502000304341314230393446433544354535354530453036434430353030453145354327
:20504000443832304145314431433143443942303432333035433230303039433946453627
:20506000314438464537424430443632304339313146343032373845363033343743334502
:20508000443038313145423032323135433030303630434333344230333231353030394342
:2050A0004436363041434433383034323134453039433336363041304430303443364636E4
:2050C00031363432303437363136443635323034343639373336423230363936363230362C
:2050E0003937343230373736313733323037323635364436463736363536343245304435DD
:205100003437393730363532303343343534453534343535323345323037343646323036CD
:20512000333646364537343639364537353635323033453030344336463631363432303485
:20514000343639373336423230333232433230373437393730363532303343343534453590
:2051600034343535323345323037343646323036333646364537343639364537353635324A
:20518000303345303034433646363136343230343436393733364232303331324332303754
:2051A00034373937303635323033433435344535343435353233453230373436463230362D
:2051C0003336463645373436393645373536353230334530303443364636313634323034E5
:2051E0003736313644363532303434363937333642324332303734373937303635323033F8
:2052000043343534453534343535323345323037343646323036333646364537343639369D
:205220004537353635323033453030344336463631363432303533343135363435323036B9
:20524000343639373336423230373436383635364532303635364537343635373232303689
:20526000363639364336353230364536313644363532453044323836343635363636313748
:2052800035364337343230363636393643363532303645363136443635323036393733323E
:2052A000303030323932453044353437393730363532303343343534453534343535323337
:2052C0004532303734364632303633364636453734363936453735363532303230334532E4
:2052E000303030324530303445374542374338433544354535354530453036434430353082
:2053000030453145354344383230414531443143314344394230343233433336363041335B
:20532000413044303142374338374546453044433031453041304530364344303530304324
:20534000394146333237353043313135433030304531304344303530304344364330383154
:2053600031354330303045304643443035303033434341343830383131354330303045313F
:20538000344344303530304237433234383038324144393231313130303030313933413840
:2053A000303030424543323438303832413831303032323037304531313833303032313849
:2053C000373231303132393030343143443442303330453033323130393045433545353106
:2053E0003135433030304531344344303530304531433142374332343830383131383030D8
:2054000030303638304344344230333044433245303041453531313543303030453134438E
:205420004430353030453142374332343830383131383030303036343043443442303332A5
:20544000414439323131313131303031393232453830423745453630313332454130423263
:2054600041443932313131304530303139344532414439323130363032433545353131354D
:2054800043303030453134434430353030453143314237433235463037313138303030431C
:2054A0003530363830434434423033433130354332324630423036303230444632324630F5
:2054C00042324145383042374545364645453532314541304242364531373743333045305A
:2054E000384635334137353043464530334341443330424237433244333042313143373068
:2055000032334530334344314230324332443330423341423530314645303143413843305D
:20552000423231444430394344343230394333373030424146333237353043433344333048
:20554000424635334137353043464530324341443330424344443530423131443330323301
:20556000453032434431423032433244333042323138443039434434323039433339463007
:205580004246353341373530434645303143414433304243444435304231314446303233AF
:2055A0004530314344314230324332443330423231423530394344343230394333424630C4
:2055C0004246314339423743383131354330303045313043443035303041463332373530BE
:2055E00043433930303030303030303030303030303030303030303438303831313830305E
:2056000030303638304344344230333044433245303041453531313543303030453134438C
:205620004430353030453142374332343830383131383030303036343043443442303332A3
:20564000414439323131313131303031393232453830423745453630313332454130423261
:2056600041443932313131304530303139344532414439323130363032433545353131354B
:2056800043303030453134434430353030453143314237433235463037313138303030431A
:2056A0003530363830434434423033433130354332324630423036303230444632324630F3
:2056C000423241453830423745453646454535323145413042423645313737433330453058
:2056E000384635334137353043464530334341443330424237433244333042313143373066
:2057000032454530423030313730324332443330423341423530314645303143413843306C
:20572000423231444430394344343230394333373030424146333237353043433344333046
:205740004246353341373530434645303243414433304243444435304231314433303233FF
:20576000453032434431423032433244333042323138443039434434323039433339463005
:205780004246353341373530434645303143414433304243444435304231314446303233AD
:2057A0004530314344314230324332443330423231423530394344343230394333424630C2
:2057C0004246314339423743383131354330303045313043443035303041463332373530BC
:2057E00043433930303030303030303030303030303030303030303438303831313830305C
:2058000030303638304344344230333044433245303041453531313543303030453134438A
:205820004430353030453142374332343830383131383030303036343043443442303332A1
:2058400041443932313131313130303139323245383042374545363031333245413042325F
:20586000414439323131313045303031393445324144393231303630324335453531313549
:20588000433030304531344344303530304531433142374332354630373131383030304318
:2058A0003530363830434434423033433130354332324630423036303230444632324630F1
:2058C000423241453830423745453646454535323145413042423645313737433330453056
:2058E000384635334137353043464530334341443330424237433244333042313143373064
:2059000032454530423030313730324332443330423341423530314645303143413843306A
:20592000423231444430394344343230394333373030424146333237353043433344333044
:205940004246353341373530434645303243414433304243444435304231314433303233FD
:20596000453032434431423032433244333042323138443039434434323039433339463003
:205980004246353341373530434645303143414433304243444435304231314446303233AB
:2059A0004530314344314230324332443330423231423530394344343230394333424630C0
:2059C0004246314339423743383131354330303045313043443035303041463332373530BA
:2059E00043433930303030303030303030303030303030303030303438303831313830305A
:205A0000303036383043443442303330444332453030414535313135433030304531344388
:205A200044303530304531423743393046303831313830303030363430434434423033328E
:205A400041443932313131313130303139323245383042374545363031333245413042325D
:205A6000414439323131313045303031393445324144393231303630324335453531313547
:205A8000433030304531344344303530304531433142374332354630373131383030304316
:205AA0003530363830434434423033433130354332324630423036303230444632324630EF
:205AC000423241453830423745453646454535323145413042423645313737433330453054
:205AE000384635334137353043464530334341443330424237433244333042313143373062
:205B0000324545304230303137303243324433304233414235303146453031434138433068
:205B2000423231444430394344343230394333373030424146333237353043433344333042
:205B40004246353341373530434645303243414433304243444435304231314433303233FB
:205B6000453032434431423032433244333042323138443039434434323039433339463001
:205B80004246353341373530434645303143414433304243444435304231314446303233A9
:205BA0004530314344314230324332443330423231423530394344343230394333424630BE
:205BC0004246314339423743383131354330303045313043443035303041463332373530B8
:205BE000434339303030303030303030303030303030303030303034383038313138303058
:205C0000303036383043443442303330444332453030414535313135433030304531344386
:205C200044303530304531423743393046303831313830303030363430434434423033328C
:205C400041443932313131313130303139323245383042374545363031333245413042325B
:205C6000414439323131313045303031393445324144393231303630324335453531313545
:205C8000433030304531344344303530304531433142374332354630373131383030304314
:205CA0003530363830434434423033433130354332324630423036303230444632324630ED
:205CC000423241453830423745453646454535323145413042423645313737433330453052
:205CE000384635334137353043464530334341443330424237433244333042313143373060
:205D0000324545304230303137303243324433304233414235303146453031434138433066
:205D2000423231444430394344343230394333373030424146333237353043433344333040
:205D40004246353341373530434645303243414433304243444435304231314433303233F9
:205D60004530324344314230324332443330423231384430394344343230394333394630FF
:205D80004246353341373530434645303143414433304243444435304231314446303233A7
:205DA0004530314344314230324332443330423231423530394344343230394333424630BC
:205DC0004246314339423743383131354330303045313043443035303041463332373530B6
:205DE000434339303030303030303030303030303030303030303034383038313138303056
:205E0000303036383043443442303330444332453030414535313135433030304531344384
:205E200044303530304531423743393046303831313830303030363430434434423033328A
:205E4000414439323131313131303031393232453830423745453630313332454130423259
:205E6000414439323131313045303031393445324144393231303630324335453531313543
:205E8000433030304531344344303530304531433142374332354630373131383030304312
:205EA0003530363830434434423033433130354332324630423036303230444632324630EB
:205EC000423241453830423745453646454535323145413042423645313737433330453050
:205EE00038463533413735304346453033434144333042423743324433304231314337305E
:205F0000324545304230303137303243324433304233414235303146453031434138433064
:205F2000423231444430394344343230393044353535303434343135343435343432303396
:205F4000323245333532453338333530443030304435363435353235333439344634453269
:205F600030343330443030414633324345323133324435323133324443323130453139432D
:205F800044303530303546304530454344303530303345303133324138323132314339301E
:205FA000463232303730453131433930463031303034304146313232313430303031393730
:205FC000313334323138303030313937313335304331333035433243433130323133463020
:205FE00030313933364646334533463332444432313231454232313131464630303139329A
:2060000045303032324439323143444141303241463332373530433231313030314344377E
:2060200045303233413034303133443332373630434146333245443042323145453042324C
:20604000323733304332414439323141464344463730323241443932313131303430303147
:2060600039353632333545323130303032313937434536464536373245303032424542301F
:20608000313034303032414439323130393732323337333241443932314435313945424317
:2060A00044303930324542434432353144443144433036303237413046453637463537339E
:2060C0004333324239323132414439323130313030303231453030374142374341373331DE
:2060E000313135303931433742433544354535434446373032453144314331433335453162
:206100003132414439323145423231303130303139374545363031433430363032323130BC
:20612000373030313937453332413632313242374545363031333241373231374530464560
:20614000363746333241353231323130433030313944353536323335454542443131393253
:20616000324335323132313138303031394435353632333545454244313139323243383242
:2061800031323130343030313944353536323335454531313932333232443732313242453A
:2061A00042434430393032374339323046453637464645343044414432313133453430339D
:2061C0003244423231334433324444323132313039313043443038314633364646303630BF
:2061E000353231464646463232414332313232414532313231453630423336303043444572
:206200004531423035433246313131414633324237323132414439323131313031303031A4
:20622000393745343733413532303142373738433230463132463631303737414633324352
:206240003332314344354131443332433432314645383044414236313246454230444138EA
:206260004431324645433044413830313243443541314431314242323130363034344643E7
:20628000354435373945364330434345443132464538304343464131324645343043434563
:2062A0003431324431433146454330434135443132454237333233373232334542323143AF
:2062C00033323133343739303730373446303543323332313232313632313433414334321A
:2062E00031464545304441443731324436453046453041443242463135383734463036303C
:20630000303039354532333536324142423231454233414333323134374539443642304651
:20632000453045443242463135323146343133433336463132453633304343454431324613
:2063400045313043434534313246453230434346413132334530313332433332313232421B
:206360004232313341433432314536434644363830464531304432424631353231313031FF
:206380003443333646313245363430433446413132434345343132323242423231334143D0
:2063A0003432314536323043344641313243434534313232324244323133453032333243D7
:2063C0003332313341433432314536314646453139443242463135323133303134433336B7
:2063E000463132463543443541314436463236303046314339463543443541314436374531
:206400003543443541314445313646463143394635434435413144423743413232313346F8
:206420004531304432313631333344383735463136303032313837323131393536323335A9
:20644000454542463143394436313035463136303032414335323131394333304631334315
:206460004434353144463143394146364632363030434433313133433331303132453543F6
:20648000443541314445314237434132433144454246453130443234443133334438373491
:2064A000463036303032313837323130393732323337334339443631303446303630303231
:2064C0004143353231303943333438313346354237433230323133463143443435314443A3
:2064E000333243314442374332333631334535434434353144453143333243314443443553
:20650000413144423746323837313345363430434335413144433331303132434435413149
:2065200044423746323738313334374536343043413936313337384536334634463036303F
:206540003043334141313337384536334634374335434435413144433134463738453632ED
:206560003043414141313337384636433034373738423143413746313430423738423143D9
:2065800041373631343042363036393232434132313241413632313539373845363031351B
:2065A0003737383037373831463437313937434536303243414432313332353235303432FA
:2065C0003241363231323141353231373842374341453631333836373741463332434532A6
:2065E000314333313031323241434332314542324143413231313932324343323143333195
:206600003031323736313437463134383531344237313443303134433331344336313443AF
:20662000393134434331344435313444423134444531344534313445413134343231353451
:20664000443135353931353733313538333135393331353939313542363135424631354362
:20666000323135313831363333313637453136383731363933313639433136424631354345
:20668000323138413831364235313643313136434331364443313646303136303231373014
:2066A000453137314131373239313733363137343531373531313737443137384631374106
:2066C0003331374546313731343138334531383435313835313138374431384234313845D4
:2066E000463138374231393934313941383139444131393834314238453142434431424452
:206700004331424535314232313031303032324242323143333333313632313030303043BE
:20672000333739313443443842313443333130313232414136323132324431323133414173
:20674000353231333244303231414633324435323143443239314632414431323132324144
:2067600036323133414430323133324135323133414435323133324345323132414433323B
:206780003132324343323143394344384231344344423430344333373631344333313031E8
:2067A0003243333730303743333933304143333546303743443435314432324242323143C5
:2067C0003333333136434434353144433331303132433334393037434442343034433331C8
:2067E0003031324344433130354333313031323345303133324238323132313839313043D9
:2068000044363630413231394131304344363630413241443932313131314130303139358F
:20682000363233354532314530464631394542303130303030323134303030434445343175
:20684000444335443543443235314544314331374332363030303943443038314634343409
:2068600044314237414233433231333135313131433030324144393231313935363233353D
:206880004536303639414633324238323143443235314443413830313343333731313332EE
:2068A0004142423231374342354341383031334333373131333341424232314344463431A0
:2068C0004331313035303043333632313533414242323143444634314331313036303031E1
:2068E000393745463536463236303043443331313346314237433238303133433337313195
:20690000333341424232314344463431433131303430303139364532363030433332423186
:20692000333241424232314542324144393231313932424344453531433343433332383116
:20694000334344394631354333313031324344414331354333313031323341424232314315
:206960004435393133323345354344363531334531433933414242323143443539313332F4
:206980004243334136313532414242323143444534314443333844313643333130313243BD
:2069A0004443383135433331303132334142423231343743444634314345423231303430BF
:2069C00030313937454237433844354344463431433131303630304542313934453738427C
:2069E0003943324635313545314535303130353030303937453231303630303139373743C9
:206A000033304431363739434446343143313130353030313935343544344537384239436A
:206A20003246353135303130353030453145353039374531324531313130343030313933AC
:206A4000363030323333363030433933414242323143443231313643333130313243444643
:206A600034314331313037303031393536323335454542323343444534314443333239311E
:206A80004632414139323132323037304533414142323133324138323143443435314437E9
:206AA0004433324135323134343743383743413631313632313835323143443038314645D3
:206AC000424344343531444542373232333733324232423242303543323532313643443491
:206AE000353144323241363231434434353144323241393231434434353144374433324182
:206B000042323141463332434532313241424232314333324231333241424232313434345B
:206B200044304243334235313332414242323143444636314443443239314643333130310B
:206B4000323341424232314344353931334333324231333241424232313743324636373711
:206B60004432463646433332423133434431353144454243443144314444323830313343B0
:206B80003337313133434431353144434431443144443238303133433337313133434441D7
:206BA000433135454232414244323145424333443331364344394631354542324142443250
:206BC00031434431443144443238303133433337313133334142423231434446343143318E
:206BE0003130343030313933414244323142454341383031334333373131334344313531A2
:206C0000443743413235373744413335464344323531444341383031334333373131334335
:206C2000443135314437414234363737424235364643333242313343443135314437434103
:206C40003236373744413336464333324231334344413031433741413035373742413142EE
:206C6000324332383031334333373131334344413031433741423037373233374242313713
:206C80003743333130313243444130314337383246413237373233373932464133373743DD
:206CA0003331303132334142423231324142443231434436353133433331303132434443CC
:206CC0003831353341424232314344463431434535313130343030313933414244323137A8
:206CE000374344463431433131303630303139343633414242323137374531373842374382
:206D00004131303132313130353030313937374333313031323241424432313239454232B5
:206D20004142423231313943444534314443443235314543333242313332414244323145F9
:206D40004232414242323131394344453431444344333031453646323630304333324231F9
:206D600033434443413143434445313143343733414244323142384341443731374432428F
:206D80004131374344454331434333413631373241443932313131304130303139353632E5
:206DA0003335453241443932313139334142443231383743443038314632423545324235A0
:206DC000364542433332423133434445353143323333444641453931374334303630323576
:206DE000363233354545424333324231333645323630304333324231334344434131434356
:206E000044453131433437334142443231423843413036313844323237313343444543312C
:206E200043433346323137323345423241443932313742393536463741394336374333320E
:206E40004231334344434131433341424432314237434133323138434445313143343733D6
:206E60004142443231423843413338313844323237313343444543314343333145313843B8
:206E80004445313143433332383133434445433143433333323138434431353144313943AA
:206EA00033324231334344313531443742393536463741394336374333324231334344319B
:206EC000353144454243443738314345353231303230304344323531444341373831383287
:206EE000313034303043443235314443413735313845314344314331434344383531434351
:206F0000333242313345313239453545313239433336463138434431353144454243443728
:206F2000383143453532313032303043443235314443413945313832313034303043443258
:206F40003531444341413531384531434434353143433336463138453143444143313843C2
:206F60003336463138453143444143313843333946313842373743314636373744314636B2
:206F8000464339434431353144454243443738314343443435314345424333324231333271
:206FA00041424232314542334143333231343730354343303630323241424432314344458F
:206FC000333138324142463231434445333138324143313231434445333138434430363080
:206FE000324344323531444531434138303133303543413731313345393241424232313772
:20700000434235434132423133324141423231434432433144324141393231434432433113
:20702000443241413632314344324331443241413532314535414633324345323136373311
:2070400041424232313646323932324136323133414243323133324135323143443541311B
:207060004445313437363745353231383732314237434134433139433535363233354545EA
:20708000424344324331443142443543443541314435374435434435413144443135464553
:2070A0003137323233373332334331303543323245313933414333323134373035434136FC
:2070C0003831393231424432313131383732313745323331333132314237453233313231FE
:2070E00033313330354332354131394531434432433144334141383231333241423231328B
:20710000413037304532324139323143333130313232414244323132394542324142423260
:20712000313139454232414439323131394542324142463231454237323233373343333125
:207140003031323241424432314542324142423231313945423241443932313139334142FB
:207160004632313737433331303132434443413143434445313143343733414244323142C4
:20718000384341424631394434303630324344454331434333414231394344453531433274
:2071A000334542324142463231334446414435313943343036303245423732323337334395
:2071C000333130313245423733433331303132434443313035434445453142324144393287
:2071E000314542324142423231313932324242323132414244323131393232424432314372
:207200004435343033343730453030324142443231323333363030323332324539323132B8
:20722000414242323132334535324142443231374532334245453143413130313237384214
:207240003143413130313237394645303643433946314137394237433235313141453531FC
:20726000363036323142303231333630303233313543323237314145313341424232313550
:207280003737443932453532414539323132333233323337374531374543444336314144BE
:2072A00041364531413745434441443141443235313141323330354333303631413738428F
:2072C000374341373431413745434441443141444137343141353645353231423032313766
:2072E0003943443038314637324531303530433233433330363141333242303231304330A8
:20730000353233373942374341303631414535433532414539323132333233373143443956
:2073200030323043444544314132414539323137323233373332333233323332324539326A
:2073400031324142443231323333344331453130453030433330363141373842374338372D
:20736000454344414431414438323330353043433339463141434443363141443845353290
:207380003145333141313630414245434143333141323331354332423731414531423743AA
:2073A000394531333743394535434444343141353631353134434143303141323343334291
:2073C0003731413241443932313131303830303139353632333545324144393231313943D3
:2073E00039323032453243334630443041303930433232323243444434314137453233436F
:20740000443038314637453837383738373837344632333536323335453233334145343264
:20742000313437433331303142423243413235314237454238443232353142374438313634
:207440004637434345303036373742443631303546434130373142443230423142313546E3
:207460003230423142374439313646374344453030363737424336313035463741434530C6
:207480003035373739304630463046304634463341453432314245444137323142433236AB
:2074A0003831423233334145333231424544413732314243323637314232333341453632AA
:2074C00031424544413732314243323636314232333341453532314245444137323142435E
:2074E00041373631423242324232423739434430383146314237414233433233413142314C
:2075000031303030304339324232423242454232414439323137423935354637413943353D
:2075200037433933414242323134464344423630344333313031323241424232314344390C
:207540003731424333313031323743423746434335314230363030374342354341414531EE
:207560004231313041303043443435314344353034433339453142414638304341433031D7
:207580004244313345333038333446434442363034303543324233314243393045333043B8
:2075A00033423630343045324443444236303443333842314332414242323145424344455D
:2075C000453142434434353143454232334333324231333241424232314344324331444347
:2075E00033313031324344343531443341424232314333344231374335304530323036309B
:2076000038323141433231374530373037303741453137313732314143323137453137377C
:20762000373233374531373737323337453137373732333745313737373035433246373166
:20764000423044433246313142433132414145323143394335303130303030334531304611
:207660003537424536303143413245314345353039343434444531373831463437373931E6
:207680004634463741314635373742314635464631334443323232314336323642353035AF
:2076A0003943314339433534343444374132463537374232463546313332313030303033C7
:2076C00045313145353139443235413143453345314635373931373446373831373437378B
:2076E000443137364637433137363746313344433235343143423737433146353737443151
:207700004635463630363943314339414633324241323143443933314345424344393331FF
:207720004345424339334142413231453630314338414639353646334530303943363743DD
:207740003937434237463033414241323133433332424132314333384231433341424232DE
:207760003143444634314333414244323146453130444142323143443631303233323345C3
:207780003534373345304639303231303130304341433231433239334443334241314334DE
:2077A0003434444531353632333545324243393341424232314344463431433131303730A4
:2077C000303139353632333545324144393231313937453837334343333038314637454591
:2077E00036314643393745303730373037453630374339434445353143433630324333305B
:20780000383146443536463236303035343544323932393239313931313335303031394596
:20782000353241443932313131304130303139353632333545324144393231313944313176
:207840003944314339324142423231454232414244323143393741414346323235314437BE
:20786000434241433937414243433037444242334643394435454232413037304532423768
:207880003332423732323230373045323141383231333437454645453043433036303245E3
:2078A0004244314339443532413037304535363233354532333232303730453231413832D0
:2078C000313335434330363032454244314339334143453231423743413837314432414353
:2078E0004332313436323332324343323132414136323132433232413632313738433037AD
:20790000433234323241363231423737384338414633324137323133324345323132314162
:2079200035323133343738433933414135323132314239323142453241443932314441412F
:2079400036314443443046314633324346323144414239314443444339314533414346329A
:207960003132414437323138373834363745423241413632313139323243433231334546F4
:207980004633324345323143333541314432314436323142454332433631443437414633A1
:2079A0003244353231373832414437323138373834363733414135323143444637303233CB
:2079C00041434632313437323143393046434430383146334141353231373737384333397B
:2079E00044314437434237314633324430323137434536303136373232443132314146336F
:207A000032443532314339374333324430323132394333454131444146333244353231334F
:207A2000414444323133324436323143443936314543444339314533414436323134373205
:207A4000414437323138373834363732324433323137383231433930464344303831463324
:207A60003630304339434433303145463543443330314536464631363743393341443532BE
:207A80003142374341354431453241443332313436323332324433323132414431323132F2
:207AA0004332324431323137384330374332343232443132314237373843384146333244B6
:207AC0003232313332443532313231443032313334373843393341423832314237433241C4
:207AE00032314533414430323132314239323142453241443932314441383331454344305B
:207B0000463146333244363231444141383145434443393145334144363231324144373208
:207B200031383738343637454232414431323131393232443332313345464633324435323E
:207B40003143333330314532314346323142454330343741463332434532313738433933FC
:207B60004144443231333244363231434439363145324144373231383738343637334144DA
:207B80003032314344463730323341443632313437323143393046434430383146334144BD
:207BA00030323137373738433337413145344633414443323142394338343737393332449F
:207BC0004332313231303931304344303831463545373032313439313037394344303831CA
:207BE000463536333646463741323130393130434430383146373337383231343931304387
:207C000044303831463731374233434341303331463231343831304344303831463732434A
:207C2000393741333244443231433938353646334530303843363743393231444232313422
:207C4000363045303032314339304642454341323731463043323330354332313831463314
:207C60004144443231333743393739433941463332444632313332453032313344333244D0
:207C8000453231434434463230443834374237434145463146464530344441384531464645
:207CA000453036444130373230434433453230423743323538314633453542383034464384
:207CC000444236303443333334314633444332363131463345334243333530314637384672
:207CE000453036434137363146464530374341463431463231314532304344303831463435
:207D0000454333353231464344344632303046304630463446433543443446323043313804
:207D200031344646453039433235323146304532304333353231463344383738373837382A
:207D4000373837333243373231434434463230443834373341444632313637334145303208
:207D60003136464535324145313231453532414431323145353241443032314535324143D7
:207D80003832313341433732313830383743443038314637453332443032313233364532F0
:207DA0003630303239323244313231414633324435323143443239314641463332443532BE
:207DC0003145313744333244303231453132324431323145313232453132314531374333BD
:207DE000324446323137443332453032314344334532304333333431463045323043333575
:207E000032314630453044434442363034304530414333353231463738443630333332443E
:207E20004532314333333431464344334532304237434146453146334438373830443630EE
:207E400034453532313232323043443038314637454531333244463231433333343146301D
:207E6000313030303030323330333133323333333433353336333733383339324532433286
:207E80003133463546323332373232324635433244334132383239334144453231334333D3
:207EA00041444632314338453532314445323137453336464645314339334145303231425F
:207EC0003733374638433236383230334333324530323143443235314532324531323137B3
:207EE00043304630464536314643393344433237423230334530323332453032313241454F
:207F000031323132393239323937434536314643394146333245303231324145313231375D
:207F20004342374632384332303345464633324530323137444536314643394146333244D6
:207F4000463231323145333231303630363336303532333035433239393230303630363190
:207F60003145333231323142303231344532333739423733453035434144443230373946F5
:207F800045323033453030434144443230443537394344334232313546334144463231428E
:207FA0004243414431323037424336303344313132313330354341354132314435373944A4
:207FC000314344334232313344463245363230373944363542313231333035433241383298
:207FE00030433335413231433245463230373944363342433344443230373946453044432F
:20800000323031323137454645304143323031323132333345303743334444323037394362
:20802000443232323143324444323033453036313231333035434135413231373930373068
:20804000373037453630333132313330354341354132313739453631464333444432304316
:2080600035453532313344323030363138424543413335323132423035433232393231450F
:2080800031433143393738433630374531433143394645363144413437323146453742447D
:2080A000323437323141464339464534314441353432314645354244323534323133453090
:2080C0003143394237433846383345303243393031453332313231303030303534434437A5
:2080E000443231434437443231434437443231323245333231323130313030434437443278
:20810000314344374432314344374432313232453532314339304130333546323932393250
:208120003932393239313943393345464633324530323137444536314643394146333244F0
:2081400046323132314533323130363036333630353233303543323939323030363036318E
:2081600031453332313030303030303031303030303030364135373343393932303739466F
:20818000453230334530304646303130303031303030303030303030303030303030303082
:2081A0003030303030303030303030303030303030303030303030303030303030303030BF
:2081C000303030303030303030303030303030303030303030334630303030303030303086
:2081E00030433335413231433245463230303030303030303030303030303030303030300E
:2082000030303030303030303030303030303030303030303030303030303030303030305E
:2082200030303030303030303030303030303030303030303030303030303030303030303E
:2082400030303030303030303030303030303030303030303030303030303030303030301E
:208260003030303030303030303030303030303030303030303030303030303030303030FE
:208280003030303030303030303030303030303030303030303030303030303030303030DE
:2082A0003030303030303030303030303030303030303030303030303030303030303030BE
:2082C00030303030303030303030303030303030303030303030303030303030303030309E
:2082E00030303030303030303030303030303030303030303030303030303030303030307E
:2083000030303030303030303030303030303030303030303030303030303030303030305D
:2083200030303030303030303030303030303030303030303030303030303030303030303D
:2083400030303030303030303030303030303030303030303030303030303030303030301D
:208360003030303030303030303030303030303030303030303030303030303030303030FD
:208380003030303030303030303030303030303030303030303030303030303030303030DD
:2083A0003030303030303030303030303030303030303030303030303030303030303030BD
:2083C00030303030303030303030303030303030303030303030303030303030303030309D
:2083E00030303030303030303030303030303030303030303030303030303030303030307D
:208400003030303030303030303030303030303030303030303030303030303E303039383D
:208420000D0A413A444F574E4C4F4144205A4F524B332E4441540D0A55300D0A3A30333032
:20844000303030313134383435343933373338443230324145314631303244383830303067
:20846000303338333433303337333233373031454541313844324537413030303030303046
:208480003030303030303030303030303030303030303030303030303030303030303030DC
:2084A0003030303030303030303030303030303030303030303030303030303030363541A0
:2084C0004138304135313332444138303531334434453830353141363938304135393636A3
:2084E000303741394138304135424230303936343045363830443136303230443331373195
:20850000393830413537413941444330353141454138304135324546344338303537314116
:20852000454131413036354136453430353133324432414541383041353731443942343017
:20854000353334444241383035424136303236393444433035334137394430303536333318
:20856000344344343036354237353334434234303537323934323535333830413533363919
:208580003432353439383041353631344143423030314133373238433946383035313335F6
:2085A0003332353537333246343641363938304135313332444242303032314136344536CB
:2085C000414334303537323941433532303632343643363230324443433641454138304172
:2085E000353230443334453939383041353141423532384437453030353633333736393189
:20860000393641454138304135333544383830413534344437423134303730443143343047
:2086200035323639333137313938304135363239414535413039443430344539393830413F
:20864000353146353938304135313141413830413534453939333544334230303532373521
:208660003333313534434330353445393745354130313846344544343034394437354539D0
:208680003738304135323638413632363545333230323239373544433944324530333535E6
:2086A00037413841353644353746383035314146343641363938304135333444383830418F
:2086C000353731353845343035313144393830413537413941354630414335363032304493
:2086E00033383041353632394145354135393143303545393443383035363134413830416E
:20870000353245393738304135353335393830413536354145453030353534443836304352
:208720004341383035443236303443443735453943383041353633323634443245434438F7
:20874000303141374536354145434438303133333438304135353444334141323033324504
:208760004139423230363239324138303532384438453430353144344143433035333246E6
:208780003436413639383041353132463437384431383041353131353235354437413841DA
:2087A000353942323031334434454145303632393232423244334136433830413546413988
:2087C00041393043303342313331373139383041353144344235324541383041353632399C
:2087E000413635414144453630313246344432343542423230344539374535413533353544
:2088000037413830353143433843303035363333373141364341383035303032303030328C
:208820003230303234303032363030323830303239303032423030324330303244303032D2
:2088400045303032463030333230303334303033363030333830303341303033433030339E
:20886000463030343130303433303034343030343630303438303034413030344430303586
:2088800030303035333030353530303538303035443030354630303632303036343030366D
:2088A000363030363930303643303036463030373330303735303037373030373930303733
:2088C0004330303745303037463030383130303833303038353030383830303842303038F9
:2088E0004430303846303039323030393530303938303039413030394330303946303041B6
:2089000031303041333030413530304138303041413030414330304144303041463030426F
:2089200031303042333030423530304237303042413030424230304245303043313030435C
:2089400034303043363030433830304341303043433030434530304430303044333030442E
:20896000363030443930304441303044433030453030304531303045323030453530304517
:2089800038303045423030454430304545303046303030463230304634303030303030300D
:2089A0003030303030303030303030303030303030303030303030303030303030303030B7
:2089C000353030303030303030303030303030303030303030303030303030303030303092
:2089E000303030303030303030303030303030303030303030303030303030303030303077
:208A0000303030303030303030303030303030303030303030303130303030343044453028
:208A20003430303041424130303030303030303033303030303041443230303230303830CA
:208A400030303030303032304146383030303030303430444537323030304230433030308A
:208A600030303034383434303030303042313830303032303034303242323930303042328E
:208A8000443030303030383030304330303030304233443030303030303430304330373060
:208AA00030304235383030303138303030444330413030304236443030303138303030440D
:208AC0004330423030304238453030303138303030444330433030304241453030303138BE
:208AE000303030444330443038304243413030303038303030444330453030304244433080
:208B00003030303830303044433046303030424545303030313830303044433130303030A3
:208B20004330303030303138303030444331323030304332363030303230383030313230C7
:208B400030303030433339303030303830303044433133313130433632303030303830309E
:208B6000304443313430303043364530303030383030304443313930303043373830303040
:208B800030383030304443313630303043384230303030383030304443313830303043391E
:208BA0004130303030303043304444333930303043423130303030383030304443324230F4
:208BC0003030434330303030303830303044433135314130434432303030303038303031F6
:208BE000393030303030434539303033383034303030303030314330443030303030303004
:208C00003834303142303030303044304330303230303830303337303030303044324330D1
:208C2000303030303830303030303030303044343330303030303830303030303030303009
:208C4000443538303030303030343033413231303030443642303030303430343033413090
:208C600030303030443743303430303038303033413230303030443841303030303430346F
:208C8000303245323430303044414530303030303034303245303030303044433230303039
:208CA000303038303030303030303030444438303030303030343032453233303030444533
:208CC00042303830303038343030303030303030444642303030303038303030303030302A
:208CE00030304531303032303131383030324230303030304532353030303030303430321C
:208D000042303630303045333430303031383030304443324432413045344130303030309C
:208D200030343032443030303030453545303030313830303044433245324330453639306A
:208D4000303031383030304443333032363045383830303030303034304444393730303077
:208D6000454230303030313830303044433332303030454243303030303030303044443134
:208D8000373030304545393030303138303030444333343030304546443030303030303023
:208DA000304444344230303046313630303031383030304443333530303046323630303002
:208DC0003038303030444333373030304634423030303030303030444433423030304635D6
:208DE000433030303138303030444333413144304636413030303030303030444435453098
:208E00003030463834303031303030303044443336303030463930303030313830303044C2
:208E200043334332323046394330303030303034304444333330303046424230303031385E
:208E400030303044433344303030464339303030303830303044433345303030464446301B
:208E600030303038303030444333463030304646383030303038303030444334304334312B
:208E8000303144303030313830303044433434303031303330303830303438343034333062
:208EA000303030313034393038303034383430343334313030313035353030333830343066
:208EC00032303030303432313036313030303138303030444334353035313037423030302A
:208EE0003038303030444334363030313041433030303038303030444334373030313044C5
:208F00003530303030383030304443343830303130463930303030383030304443343930B5
:208F20003031313234303030303830303044433441303031313530303030303830303044C2
:208F4000433443303031313733303030303030343044443338303031313941303030303880
:208F6000303030444334443030313141363030303038303030444334453030313143443028
:208F8000303030383030304443354330303131463130303032303034303531303030303164
:208FA00032304230303032303034303635353930303132323130303238303036303636305C
:208FC000303446313232463038303030383430353435333030313234343030303030383420
:208FE000303534303030303132354330303238303036303636353135353132373630303011
:209000003030383430353435323030313238373030383030303430354235373030313239E7
:209020004330313238303036303542303030303132414330303030303034303542353630A8
:209040003031324244303030303030303036353541303031324339303030303030303036A1
:20906000353030303031324536303132383030303036353530353831333031303030313897
:2090800030303044433544303031333144303030313830303044433546303031333435301F
:2090A000303030303030304444363730303133354630303031383030304443363030303125
:2090C0003336443030303138303030444336313030313338463030303138303030444336E4
:2090E0003230303133423030303031383030304443363330303133433930303031383030F6
:209100003044433634303031334632303030313830303044433635303031343035303030BD
:20912000313830303044433636354231343234303030313830303044433639353431343480
:20914000353030363830303030444436383030313435453030363030303030444436423061
:2091600030313436453030303138303030444336433030313437443030343830303038443E
:20918000443943303031344139303036303030303044443641303031344235303030303817
:2091A000303030444336453030313443353030303230303430364530303030313444433003
:2091C000303030383030304443373036443134464430303030303034303730303030303104
:2091E0003530433030303138303030444337313646313531443030303038303030444338B1
:209200003530303135333530303030303034304445423730303135343830303030303034DF
:209220003043394242303031353543303031303034303030303030303031353641303030AE
:20924000303030343039453736303031353744303030303030343039453737303031353880
:2092600039303030303030343039453739303031353944303038303030343038423030306A
:2092800030313542313030303030303430394537413030313543383030303030303430394D
:2092A000453744303031354532303030303030343039443030303031354634303032383016
:2092C00030343039423030303031363036303030303030343039453745303031363231301A
:2092E0003030303030343039453746303031363335303030303030343039453831303031F4
:209300003634423030303030303430384237383030313635393030303030303430394538C5
:209320003230303136363930303030303034303945303030303136374130303030303034D0
:2093400030394537353030313638453030303230303430394130303030313639453030307A
:20936000313830303044433837303031364232303030303030343044443845303031364330
:20938000363030303138303030444338393030313644393030303030303430444438363028
:2093A0003031364641303030313830303044433841303031373044303030313830303044FD
:2093C0004338423030313732313030303138303030444338463830313734333030303030F0
:2093E0003034304444383830303137354130303030303034304444384330303137364630A8
:209400003036303030303044443932303031373744303030313830303044433930303031B6
:2094200037384630303031383030304443423230303137424130303630303034304444385E
:2094400044303031374536303036303030303844444144303031374635303030313830304E
:20946000304443393430303138303730303031383030304443393530303138323730303058
:20948000313830303044433938303031383341303030303030303044443331303031383435
:2094A0004430303030303030304444393630303138354430303030383030304443393930FE
:2094C000303138373130303030383030304443394130303138393330303030383030304401
:2094E000433942383431384134303030313830303044433944374331384336303036303085
:20950000303038444439313030313845323030303138303030444339453742313846343067
:2095200030303138303030444339463833313931393030303138303030444341303030317B
:20954000393533303030313830303044434131303031393733303030313830303044434163
:20956000323030313939333030303138303030444341333030313942333030303138303067
:20958000304443413430303139443330303031383030304443413530303139463330303005
:2095A0003138303030444341363030314131333030303138303030444341373030314133F1
:2095C0003330303031383030304443413830303141353330303031383030304443413930DB
:2095E0003031413733303030313830303044434141303031413933303030313830303044C2
:2096000043414230303141423930303031383030304443414330303141453930303031385A
:2096200030303044434145303031423141303030303030303044444146303031423436304C
:2096400030303138303030444343313030314235353030303030303030444442303030316E
:20966000423741303030303030303044444231303031423839303031303030303044444226
:20968000343030314239353030303138303030444339334233314241333030313030343028
:2096A000304232303030303142433130303130303030304444423530303142443630303002
:2096C0003030303030444442363030314245363030303030343030444442443030314246A1
:2096E0003830303030303130304445423830303143313230303030303130304445433030CA
:209700003031433144303030323038303030303030303031433236303030383030343030EE
:209720003030303030314334433030303630383030433943363030314336313030303030A0
:20974000303430444442453030314337453030303030303430444442433030314338433006
:2097600030303030303430444442463030314341303030303030303430444443323030312E
:209780004342333030303030303030444543383030314343363030303138303030444343ED
:2097A0003330303143443230303030303034304444434230303144304330303031383030FA
:2097C0003044433030303031443146303032383030303033463030433531443336303030DD
:2097E0003036383030433430303030314434433030303031383030433930303030314436D8
:209800003830303030303830303030303030303144374530303030303430304445434330B4
:20982000303144393930303031383030304443303943413144413930303030303434384352
:20984000393733303031444338303030303032303044444435303031444437303030303052
:209860003034304445434430303144453530303030303034304445434530303144464130D4
:20988000303030303034304445434630303145304430303030303034304445443030303106
:2098A0004531433030303030313430444544313030314532463030303030303030444544D1
:2098C000323030314534303030303030303030444544333030314535353030303030303408
:2098E000304445443430303145363730303030303034304445443630303145373830303098
:20990000303030343044444437303031453842303030303030343044454439303031453967
:20992000453030303030303430444444383030314541463030303030304330444430303052
:20994000303145424530303030303034304445444130303145443130303030303034304435
:20996000453030303031454445303030303030303044443246303031454633303030303024
:209980003030303030303043393145464330303030303030304445303144423145464530DB
:2099A0003030303030334630303030444431463045303631313731314232443238433930DB
:2099C00030393432313436434341353731343130363437374132443838323930433944309A
:2099E00030303833353436364643303039384534463645363143373435343034354436455D
:209A000039433946313432333333464432334235443344343032443837314236434135410E
:209A2000303946394532413030303230303032364443364334413537313437314634313043
:209A4000443244383741383241303030333235303030333030303236304345433639373338
:209A600031343338333244383636433030303531333645343144333330303436314145440E
:209A80003441354231334133373434323433423739304341313030303333413639333930F1
:209AA00036453639373731334543463343304332443835373730303032304646304142436E
:209AC00035333133463436324438344634454344444136463843434135413441334132321F
:209AE000413030304132394130463030303035343844333336393132383038353336414492
:209B0000434135333133423642324438343742324341374434303030353133383636353544
:209B2000373030393834354339413841353146393837433041313941304438313639383710
:209B4000303339353738393041324438334644343733313936393730303034313141453323
:209B60003141303130443741314135374630393139413043373143304233364130434537C5
:209B800030333935373839304132443833363834373331393639373030303331304436360A
:209BA00039343945393139314630413343413042433337413036323730343738313838468F
:209BC0004534373331393639373234413036423030303331323041373830334538413531B6
:209BE000443044373630423138413035383244383441383030303431313236354530303193
:209C000032423139393041314630453145304331373043313630453030303431313236356D
:209C2000453030313242313939304131463046314330443137304431363046303030363141
:209C40003331343642324432414633303039383336393741384135334641303439334541E9
:209C60003034323143304531373045463033394345383846343435424138384438303733C2
:209C80003332343946463830303037313330363232454532444338333844313030383634DC
:209CA000373236444341353244383245463030304231313737353046343746453031323493
:209CC000363331433830303843354634413030393732414141343632414346323537313476
:209CE000324539334141453244383236443243414141393239394538353236394541313011
:209D000030303230463430393630353345394537383234394533383030303431323436328C
:209D2000314145344434303846343530303034313133373139373937383033453841353149
:209D4000453139314331333134313932443832353930303034313132413139323031313563
:209D600033413441353146313632343944453930303035313232363235324135433034310F
:209D80004539394536393231443139314331353137313830373137323439444336303030E1
:209DA0003330373131313932394141453533313346373734434439414246393030303431A0
:209DC0003232363235324135433034453639353136313632373137443832343944394130A2
:209DE000303034313332453438454135433033453841353145313637443134314339453352
:209E000030324438323539323439444644303030353145463434313533303332453438454A
:209E2000414443413537313436363234314341324344394537324130303332303030314317
:209E400038443337313430343233443738324437423931303030393535443132383031323D
:209E60003444383632393736353439303336363437343631453241453041354231343730FC
:209E80004134363941343143413244374337353043414330303032323141414533323533A8
:209EA0003133423032324437414637304344333241303032383239394244423235303031A4
:209EC0003430303034314546343431353330333139393936423331343446443244373538A6
:209EE00046304345373241303030413030303330373138363443424143413533313434465B
:209F000044324437353846304344393241303030413030303236364541413841353731342A
:209F20003641313436413832443831463432434434414430303032354539354138413533FF
:209F4000313433334432443743423330434638303030363535434132313430303533433115
:209F60004243373544343641344135423133413631343739363431424332443735364632B5
:209F80004342304146324130303033323939424137323439423944303030343631414534AE
:209FA000464330353045464139313937313430464633393236324437464439304342323061
:209FC0003030353536323634463338303032333141324339393435423134314544343146A1
:209FE000343339313832443830343430303032343444324434413537313346383533463885
:20A00000433244383034423043453632413030304130303032363044334134413542313446
:20A02000333841334433393341343532443830313830303035333239313235353330304466
:20A04000323641324145344135373133393236343046463443433143304232303030353101
:20A060004635373444343931373833304233344444304433313436373732443832314532DD
:20A080004342354234303030323636393741314135333134363737324438323243323939D5
:20A0A00042383530303035364443413731443333303139313846314138413537313435459D
:20A0C0003434353945324438303734304342363030303531333038324136453230303436B6
:20A0E000444438453443353146324432443830453732343942383530303032354434414129
:20A10000373035333134324336304342373030303531333841363332413545363031333082
:20A120004444324541334539423736314332424630343432423838463433394345383846B1
:20A14000343037333332343942343530303034313335333235353737304439414145353140
:20A16000463245314532453144324531433245314232453141324531393245313832453199
:20A180003733303336394233433244374446373237333332463234394145363030303232C7
:20A1A0004444384234413533313344313632443838414430303034313239333030323031C0
:20A1C000323236433134353146333433453941444531443244314330463342394144453131
:20A1E000413244333939414445313830463136324537303435424138384438324437454308
:20A20000363237333332463234394138463030303331414441323933414133323542313349
:20A220003935303343364533414642324438324637304346463030303531304436363934F4
:20A24000393639313930303942423935433141333431373334333639413839323733314411
:20A260003832343941313930303032343444304138413542313346374534373741343539E2
:20A280004532443744424630303034313232363431343031333044443245413146333533C2
:20A2A00043393946353139333233383941303631363332463034343242383846343339439D
:20A2C0004538384634323733334438323439394239303030333131373433313945383037A0
:20A2E000413146344531443444314333343234393938323030303235453935413841353357
:20A3000031343333443244373838303043414530303035313131313339364230303931327F
:20A3200039324341384135333739393736313633433244373644363837443733363339330B
:20A34000423338303030323232324541443635333133423145324438313830303030314329
:20A36000384433373134303432334437383244374346313030303231313131423936423105
:20A380004533453138343533373939363837363337323639393631373034303838383844DD
:20A3A0004532443737364236373339443734423338303030323435343942313435333133BC
:20A3C000464236324437353444304342313030303431313131333936423030383739423099
:20A3E00041314334343142334433373939353930373342323439393230303030353131418E
:20A40000363341463530363634343639344434413531393345313833433137334531363347
:20A420004330374437323439384446303030353130453635454541344330343141454139E9
:20A440003841353145334631443341334339384438314133443339393844383138344337BA
:20A460003034303838383844453237443734423234393837333030303331314641344431EF
:20A480003942413933314634303145393831443345314334453234393833413030303531B7
:20A4A0003135333236324136333030313331393939443733463938333331433346333739C4
:20A4C0003833333037443832343937463730303032323233343941303533313342324332BC
:20A4E000443734363530303032333639344134413533313345374232443733413630303083
:20A50000333037324233393941444434354631343430383344303134303432343746463244
:20A520004537314346324437314346324342394238303030363131373131423244323843EE
:20A540003930303934323134364343413531463343314534363344393631413343393632F0
:20A560004531423435334139363141313934373338393631414630343238453838423734CE
:20A580003038383838444532443835383832333936314130303035313232313043323931EF
:20A5A000333044313933344630413531463341314534433144343431433436334239343989
:20A5C000443341393439443139344131383434313634343244373439423237443734423272
:20A5E00034393541343030303531323231304332393133304431393334463041353146349B
:20A60000353145344131443434314334373142344331413434313934393138343431363457
:20A6200034324437343942323439353832303030353132323130433239313330443139336E
